{
  "_format": "hh-sol-artifact-1",
  "contractName": "OrderRouter",
  "sourceName": "contracts/order/OrderRouter.sol",
  "abi": [
    {
      "inputs": [
        {
          "internalType": "address",
          "name": "_marketOrder",
          "type": "address"
        },
        {
          "internalType": "address",
          "name": "_orderBook",
          "type": "address"
        }
      ],
      "stateMutability": "nonpayable",
      "type": "constructor"
    },
    {
      "inputs": [],
      "name": "adjustLeverage",
      "outputs": [],
      "stateMutability": "nonpayable",
      "type": "function"
    },
    {
      "inputs": [],
      "name": "cancelLimitOrder",
      "outputs": [],
      "stateMutability": "nonpayable",
      "type": "function"
    },
    {
      "inputs": [],
      "name": "decreaseMargin",
      "outputs": [],
      "stateMutability": "nonpayable",
      "type": "function"
    },
    {
      "inputs": [],
      "name": "increaseMargin",
      "outputs": [],
      "stateMutability": "nonpayable",
      "type": "function"
    },
    {
      "inputs": [
        {
          "components": [
            {
              "internalType": "address",
              "name": "trader",
              "type": "address"
            },
            {
              "internalType": "bool",
              "name": "isLong",
              "type": "bool"
            },
            {
              "internalType": "bool",
              "name": "isIncrease",
              "type": "bool"
            },
            {
              "internalType": "enum OrderType",
              "name": "orderType",
              "type": "uint8"
            },
            {
              "internalType": "uint256",
              "name": "marketId",
              "type": "uint256"
            },
            {
              "internalType": "uint256",
              "name": "sizeAbs",
              "type": "uint256"
            },
            {
              "internalType": "uint256",
              "name": "marginAbs",
              "type": "uint256"
            },
            {
              "internalType": "uint256",
              "name": "limitPrice",
              "type": "uint256"
            }
          ],
          "internalType": "struct OrderRequest",
          "name": "req",
          "type": "tuple"
        }
      ],
      "name": "placeLimitOrder",
      "outputs": [],
      "stateMutability": "nonpayable",
      "type": "function"
    },
    {
      "inputs": [
        {
          "components": [
            {
              "internalType": "address",
              "name": "trader",
              "type": "address"
            },
            {
              "internalType": "bool",
              "name": "isLong",
              "type": "bool"
            },
            {
              "internalType": "bool",
              "name": "isIncrease",
              "type": "bool"
            },
            {
              "internalType": "enum OrderType",
              "name": "orderType",
              "type": "uint8"
            },
            {
              "internalType": "uint256",
              "name": "marketId",
              "type": "uint256"
            },
            {
              "internalType": "uint256",
              "name": "sizeAbs",
              "type": "uint256"
            },
            {
              "internalType": "uint256",
              "name": "marginAbs",
              "type": "uint256"
            },
            {
              "internalType": "uint256",
              "name": "limitPrice",
              "type": "uint256"
            }
          ],
          "internalType": "struct OrderRequest",
          "name": "req",
          "type": "tuple"
        }
      ],
      "name": "placeMarketOrder",
      "outputs": [
        {
          "internalType": "bytes32",
          "name": "",
          "type": "bytes32"
        }
      ],
      "stateMutability": "nonpayable",
      "type": "function"
    },
    {
      "inputs": [],
      "name": "updateLimitOrder",
      "outputs": [],
      "stateMutability": "nonpayable",
      "type": "function"
    }
  ],
  "bytecode": "0x608060405234801561001057600080fd5b5060405161045f38038061045f83398101604081905261002f9161007c565b600080546001600160a01b039384166001600160a01b031991821617909155600180549290931691161790556100af565b80516001600160a01b038116811461007757600080fd5b919050565b6000806040838503121561008f57600080fd5b61009883610060565b91506100a660208401610060565b90509250929050565b6103a1806100be6000396000f3fe608060405234801561001057600080fd5b506004361061006d5760003560e01c80630fa22883146100725780632202ce8c146100975780633d7125d11461009757806364ed20b3146100975780637782a7ec14610097578063d10a1d0c14610099578063fdd4ff5514610097575b600080fd5b610085610080366004610265565b6100ac565b60405190815260200160405180910390f35b005b6100976100a7366004610265565b610130565b60006100b78261019e565b600054604051632308af6d60e21b81526001600160a01b0390911690638c22bdb4906100e79085906004016102c4565b6020604051808303816000875af1158015610106573d6000803e3d6000fd5b505050506040513d601f19601f8201168201806040525081019061012a9190610352565b92915050565b6101398161019e565b600154604051633442874360e21b81526001600160a01b039091169063d10a1d0c906101699084906004016102c4565b600060405180830381600087803b15801561018357600080fd5b505af1158015610197573d6000803e3d6000fd5b5050505050565b336101fc5760405162461bcd60e51b815260206004820152602360248201527f4f72646572526f757465723a20496e76616c69642073656e646572206164647260448201526265737360e81b60648201526084015b60405180910390fd5b3332146102625760405162461bcd60e51b815260206004820152602e60248201527f4f72646572526f757465723a20496e76616c69642073656e646572206164647260448201526d6573732028636f6e74726163742960901b60648201526084016101f3565b50565b6000610100828403121561027857600080fd5b50919050565b8035801515811461028e57600080fd5b919050565b80356004811061028e57600080fd5b600481106102c057634e487b7160e01b600052602160045260246000fd5b9052565b610100810182356001600160a01b0381168082146102e157600080fd5b8352506102f06020840161027e565b151560208301526103036040840161027e565b1515604083015261031660608401610293565b61032360608401826102a2565b506080830135608083015260a083013560a083015260c083013560c083015260e083013560e083015292915050565b60006020828403121561036457600080fd5b505191905056fea2646970667358221220aed303bc084fa450aed73bb001079029fc4e789e994b57bbf03c44527a197f0764736f6c63430008120033",
  "linkReferences": {},
  "deployedLinkReferences": {}
}