{
  "_format": "hh-sol-artifact-1",
  "contractName": "OrderRouter",
  "sourceName": "contracts/order/OrderRouter.sol",
  "abi": [
    {
      "inputs": [
        {
          "internalType": "address",
          "name": "_marketOrder",
          "type": "address"
        }
      ],
      "stateMutability": "nonpayable",
      "type": "constructor"
    },
    {
      "inputs": [
        {
          "components": [
            {
              "internalType": "address",
              "name": "trader",
              "type": "address"
            },
            {
              "internalType": "bool",
              "name": "isLong",
              "type": "bool"
            },
            {
              "internalType": "bool",
              "name": "isIncrease",
              "type": "bool"
            },
            {
              "internalType": "enum OrderType",
              "name": "orderType",
              "type": "uint8"
            },
            {
              "internalType": "uint256",
              "name": "marketId",
              "type": "uint256"
            },
            {
              "internalType": "uint256",
              "name": "sizeAbs",
              "type": "uint256"
            },
            {
              "internalType": "uint256",
              "name": "marginAbs",
              "type": "uint256"
            },
            {
              "internalType": "uint256",
              "name": "limitPrice",
              "type": "uint256"
            }
          ],
          "internalType": "struct OrderRequest",
          "name": "req",
          "type": "tuple"
        }
      ],
      "name": "placeMarketOrder",
      "outputs": [
        {
          "internalType": "bytes32",
          "name": "",
          "type": "bytes32"
        }
      ],
      "stateMutability": "nonpayable",
      "type": "function"
    }
  ],
  "bytecode": "0x608060405234801561001057600080fd5b5060405161036f38038061036f83398101604081905261002f91610054565b600080546001600160a01b0319166001600160a01b0392909216919091179055610084565b60006020828403121561006657600080fd5b81516001600160a01b038116811461007d57600080fd5b9392505050565b6102dc806100936000396000f3fe608060405234801561001057600080fd5b506004361061002b5760003560e01c80630fa2288314610030575b600080fd5b61004361003e3660046101a0565b610055565b60405190815260200160405180910390f35b6000610060826100d9565b600054604051632308af6d60e21b81526001600160a01b0390911690638c22bdb4906100909085906004016101ff565b6020604051808303816000875af11580156100af573d6000803e3d6000fd5b505050506040513d601f19601f820116820180604052508101906100d3919061028d565b92915050565b336101375760405162461bcd60e51b815260206004820152602360248201527f4f72646572526f757465723a20496e76616c69642073656e646572206164647260448201526265737360e81b60648201526084015b60405180910390fd5b33321461019d5760405162461bcd60e51b815260206004820152602e60248201527f4f72646572526f757465723a20496e76616c69642073656e646572206164647260448201526d6573732028636f6e74726163742960901b606482015260840161012e565b50565b600061010082840312156101b357600080fd5b50919050565b803580151581146101c957600080fd5b919050565b8035600481106101c957600080fd5b600481106101fb57634e487b7160e01b600052602160045260246000fd5b9052565b610100810182356001600160a01b03811680821461021c57600080fd5b83525061022b602084016101b9565b1515602083015261023e604084016101b9565b15156040830152610251606084016101ce565b61025e60608401826101dd565b506080830135608083015260a083013560a083015260c083013560c083015260e083013560e083015292915050565b60006020828403121561029f57600080fd5b505191905056fea264697066735822122008cbccf12937a524bb85900886624e9f5518d9434ac98de23448ba548e35a8e364736f6c63430008120033",
  "linkReferences": {},
  "deployedLinkReferences": {}
}