{
  "_format": "hh-sol-artifact-1",
  "contractName": "Liquidation",
  "sourceName": "contracts/liquidation/Liquidation.sol",
  "abi": [
    {
      "inputs": [
        {
          "internalType": "address",
          "name": "_priceManager",
          "type": "address"
        },
        {
          "internalType": "address",
          "name": "_traderVault",
          "type": "address"
        },
        {
          "internalType": "address",
          "name": "_tokenInfo",
          "type": "address"
        },
        {
          "internalType": "address",
          "name": "_market",
          "type": "address"
        }
      ],
      "stateMutability": "nonpayable",
      "type": "constructor"
    },
    {
      "inputs": [],
      "name": "BASIS_POINTS_PRECISION",
      "outputs": [
        {
          "internalType": "uint256",
          "name": "",
          "type": "uint256"
        }
      ],
      "stateMutability": "view",
      "type": "function"
    },
    {
      "inputs": [
        {
          "components": [
            {
              "internalType": "address",
              "name": "trader",
              "type": "address"
            },
            {
              "internalType": "bool",
              "name": "isLong",
              "type": "bool"
            },
            {
              "internalType": "int256",
              "name": "unrealizedPnl",
              "type": "int256"
            },
            {
              "internalType": "uint256",
              "name": "currentPositionRecordId",
              "type": "uint256"
            },
            {
              "internalType": "uint256",
              "name": "marketId",
              "type": "uint256"
            },
            {
              "internalType": "uint256",
              "name": "size",
              "type": "uint256"
            },
            {
              "internalType": "uint256",
              "name": "margin",
              "type": "uint256"
            },
            {
              "internalType": "uint256",
              "name": "avgOpenPrice",
              "type": "uint256"
            },
            {
              "internalType": "uint256",
              "name": "lastUpdatedTime",
              "type": "uint256"
            },
            {
              "internalType": "int256",
              "name": "avgEntryFundingIndex",
              "type": "int256"
            }
          ],
          "internalType": "struct OpenPosition[]",
          "name": "_positions",
          "type": "tuple[]"
        },
        {
          "internalType": "address[]",
          "name": "_traders",
          "type": "address[]"
        }
      ],
      "name": "executeLiquidations",
      "outputs": [],
      "stateMutability": "view",
      "type": "function"
    },
    {
      "inputs": [],
      "name": "market",
      "outputs": [
        {
          "internalType": "contract Market",
          "name": "",
          "type": "address"
        }
      ],
      "stateMutability": "view",
      "type": "function"
    },
    {
      "inputs": [],
      "name": "priceManager",
      "outputs": [
        {
          "internalType": "contract PriceManager",
          "name": "",
          "type": "address"
        }
      ],
      "stateMutability": "view",
      "type": "function"
    },
    {
      "inputs": [],
      "name": "tokenInfo",
      "outputs": [
        {
          "internalType": "contract TokenInfo",
          "name": "",
          "type": "address"
        }
      ],
      "stateMutability": "view",
      "type": "function"
    },
    {
      "inputs": [],
      "name": "traderVault",
      "outputs": [
        {
          "internalType": "contract TraderVault",
          "name": "",
          "type": "address"
        }
      ],
      "stateMutability": "view",
      "type": "function"
    }
  ],
  "bytecode": "0x6080604052670de0b6b3a764000060055534801561001c57600080fd5b506040516110ab3803806110ab83398101604081905261003b916100aa565b600080546001600160a01b039586166001600160a01b03199182161790915560018054948616948216949094179093556002805492851692841692909217909155600380549190931691161790556100fe565b80516001600160a01b03811681146100a557600080fd5b919050565b600080600080608085870312156100c057600080fd5b6100c98561008e565b93506100d76020860161008e565b92506100e56040860161008e565b91506100f36060860161008e565b905092959194509250565b610f9e8061010d6000396000f3fe608060405234801561001057600080fd5b50600436106100625760003560e01c806351ed0ee31461006757806359311c32146100975780636addb663146100ae5780636c062e5c146100c157806380f55605146100d6578063c7e1ffe3146100e9575b600080fd5b60015461007a906001600160a01b031681565b6040516001600160a01b0390911681526020015b60405180910390f35b6100a061271081565b60405190815260200161008e565b60025461007a906001600160a01b031681565b6100d46100cf366004610b39565b6100fc565b005b60035461007a906001600160a01b031681565b60005461007a906001600160a01b031681565b60005b8381101561013a5761012885858381811061011c5761011c610c02565b9050610140020161018e565b8061013281610c2e565b9150506100ff565b5060005b818110156101875761017583838381811061015b5761015b610c02565b90506020020160208101906101709190610c6c565b6101a1565b8061017f81610c2e565b91505061013e565b5050505050565b610197816101aa565b61019e5750565b50565b610197816102dc565b600354604051633ec7919360e01b81526080830135600482015260009182916001600160a01b0390911690633ec791939060240161012060405180830381865afa1580156101fc573d6000803e3d6000fd5b505050506040513d601f19601f820116820180604052508101906102209190610d05565b604090810151600254915163a7de07cd60e01b8152600481018290529092506000916001600160a01b03169063a7de07cd90602401602060405180830381865afa158015610272573d6000803e3d6000fd5b505050506040513d601f19601f820116820180604052508101906102969190610d83565b6102a190600a610e82565b90506000806102bd6102b836889003880188610e9e565b6103ea565b9092509050806102d18360c0890135610f33565b109695505050505050565b600080806060815b81518110156103e15760035482516000916001600160a01b031690633ec791939085908590811061031757610317610c02565b6020026020010151608001516040518263ffffffff1660e01b815260040161034191815260200190565b61012060405180830381865afa15801561035f573d6000803e3d6000fd5b505050506040513d601f19601f820116820180604052508101906103839190610d05565b6040015190506000806103ae8585815181106103a1576103a1610c02565b60200260200101516103ea565b90925090506103bd8288610f33565b96506103c98187610f33565b955050505080806103d990610c2e565b9150506102e4565b50501192915050565b6003546080820151604051633ec7919360e01b81526004810191909152600091829182916001600160a01b031690633ec791939060240161012060405180830381865afa15801561043f573d6000803e3d6000fd5b505050506040513d601f19601f820116820180604052508101906104639190610d05565b604090810151600254915163a7de07cd60e01b8152600481018290529092506000916001600160a01b03169063a7de07cd90602401602060405180830381865afa1580156104b5573d6000803e3d6000fd5b505050506040513d601f19601f820116820180604052508101906104d99190610d83565b6104e490600a610e82565b90506000612710905060008660200151610502578660e0015161056f565b600054604051635af3d06160e01b8152600481018690526001600160a01b0390911690635af3d06190602401602060405180830381865afa15801561054b573d6000803e3d6000fd5b505050506040513d601f19601f8201168201806040525081019061056f9190610d83565b9050600087602001516105ee57600054604051635af3d06160e01b8152600481018790526001600160a01b0390911690635af3d06190602401602060405180830381865afa1580156105c5573d6000803e3d6000fd5b505050506040513d601f19601f820116820180604052508101906105e99190610d83565b6105f4565b8760e001515b60a089015160405163554d048960e11b81526004810185905260248101919091526044810186905290915060009073__$2fd9b049b395f2393b7444f3bf5e98655a$__9063aa9a091290606401602060405180830381865af415801561065e573d6000803e3d6000fd5b505050506040513d601f19601f820116820180604052508101906106829190610d83565b60008054604051631208064760e01b8152600481018a905292935090916002916001600160a01b031690631208064790602401602060405180830381865afa1580156106d2573d6000803e3d6000fd5b505050506040513d601f19601f820116820180604052508101906106f69190610d83565b60a08c015160405163554d048960e11b8152600481019290925260248201526044810188905273__$2fd9b049b395f2393b7444f3bf5e98655a$__9063aa9a091290606401602060405180830381865af4158015610758573d6000803e3d6000fd5b505050506040513d601f19601f8201168201806040525081019061077c9190610d83565b60a08c015160405163554d048960e11b8152600481019290925260248201526044810188905273__$2fd9b049b395f2393b7444f3bf5e98655a$__9063aa9a091290606401602060405180830381865af41580156107de573d6000803e3d6000fd5b505050506040513d601f19601f820116820180604052508101906108029190610d83565b600254604051630f7d833560e11b8152600481018b905273__$2fd9b049b395f2393b7444f3bf5e98655a$__9263aa9a09129290916001600160a01b0390911690631efb066a90602401602060405180830381865afa158015610869573d6000803e3d6000fd5b505050506040513d601f19601f8201168201806040525081019061088d9190610d83565b6040516001600160e01b031960e085901b168152600481019290925260248201526402540be4006044820152606401602060405180830381865af41580156108d9573d6000803e3d6000fd5b505050506040513d601f19601f820116820180604052508101906108fd9190610d83565b6109079190610f46565b600054604051635af3d06160e01b8152600481018a90526001600160a01b0390911690635af3d06190602401602060405180830381865afa158015610950573d6000803e3d6000fd5b505050506040513d601f19601f820116820180604052508101906109749190610d83565b60a08c015160405163554d048960e11b8152600481019290925260248201526044810188905273__$2fd9b049b395f2393b7444f3bf5e98655a$__9063aa9a091290606401602060405180830381865af41580156109d6573d6000803e3d6000fd5b505050506040513d601f19601f820116820180604052508101906109fa9190610d83565b60008981526004602081905260409182902054915163554d048960e11b81529081019290925260248201526044810187905273__$2fd9b049b395f2393b7444f3bf5e98655a$__9063aa9a091290606401602060405180830381865af4158015610a68573d6000803e3d6000fd5b505050506040513d601f19601f82011682018060405250810190610a8c9190610d83565b60a08c015160405163554d048960e11b81526004810187905260248101919091526044810189905273__$2fd9b049b395f2393b7444f3bf5e98655a$__9063aa9a091290606401602060405180830381865af4158015610af0573d6000803e3d6000fd5b505050506040513d601f19601f82011682018060405250810190610b149190610d83565b610b1e9190610f33565b610b289190610f33565b919a91995090975050505050505050565b60008060008060408587031215610b4f57600080fd5b843567ffffffffffffffff80821115610b6757600080fd5b818701915087601f830112610b7b57600080fd5b813581811115610b8a57600080fd5b88602061014083028501011115610ba057600080fd5b602092830196509450908601359080821115610bbb57600080fd5b818701915087601f830112610bcf57600080fd5b813581811115610bde57600080fd5b8860208260051b8501011115610bf357600080fd5b95989497505060200194505050565b634e487b7160e01b600052603260045260246000fd5b634e487b7160e01b600052601160045260246000fd5b600060018201610c4057610c40610c18565b5060010190565b6001600160a01b038116811461019e57600080fd5b8035610c6781610c47565b919050565b600060208284031215610c7e57600080fd5b8135610c8981610c47565b9392505050565b604051610120810167ffffffffffffffff81118282101715610cc257634e487b7160e01b600052604160045260246000fd5b60405290565b604051610140810167ffffffffffffffff81118282101715610cc257634e487b7160e01b600052604160045260246000fd5b8051610c6781610c47565b60006101208284031215610d1857600080fd5b610d20610c90565b825181526020830151602082015260408301516040820152606083015160608201526080830151608082015260a083015160a082015260c083015160c082015260e083015160e0820152610100610d78818501610cfa565b908201529392505050565b600060208284031215610d9557600080fd5b5051919050565b600181815b80851115610dd7578160001904821115610dbd57610dbd610c18565b80851615610dca57918102915b93841c9390800290610da1565b509250929050565b600082610dee57506001610e7c565b81610dfb57506000610e7c565b8160018114610e115760028114610e1b57610e37565b6001915050610e7c565b60ff841115610e2c57610e2c610c18565b50506001821b610e7c565b5060208310610133831016604e8410600b8410161715610e5a575081810a610e7c565b610e648383610d9c565b8060001904821115610e7857610e78610c18565b0290505b92915050565b6000610c898383610ddf565b80358015158114610c6757600080fd5b60006101408284031215610eb157600080fd5b610eb9610cc8565b610ec283610c5c565b8152610ed060208401610e8e565b602082015260408301356040820152606083013560608201526080830135608082015260a083013560a082015260c083013560c082015260e083013560e08201526101008084013581830152506101208084013581830152508091505092915050565b80820180821115610e7c57610e7c610c18565b600082610f6357634e487b7160e01b600052601260045260246000fd5b50049056fea2646970667358221220d474fe7371751a7f885336789af70b3cb123755501bd6bb80627b83a3011f80e64736f6c63430008120033",
  "linkReferences": {
    "contracts/utils/MathUtils.sol": {
      "MathUtils": [
        {
          "length": 20,
          "start": 1841
        },
        {
          "length": 20,
          "start": 2091
        },
        {
          "length": 20,
          "start": 2225
        },
        {
          "length": 20,
          "start": 2344
        },
        {
          "length": 20,
          "start": 2729
        },
        {
          "length": 20,
          "start": 2875
        },
        {
          "length": 20,
          "start": 3011
        }
      ]
    }
  },
  "deployedLinkReferences": {
    "contracts/utils/MathUtils.sol": {
      "MathUtils": [
        {
          "length": 20,
          "start": 1572
        },
        {
          "length": 20,
          "start": 1822
        },
        {
          "length": 20,
          "start": 1956
        },
        {
          "length": 20,
          "start": 2075
        },
        {
          "length": 20,
          "start": 2460
        },
        {
          "length": 20,
          "start": 2606
        },
        {
          "length": 20,
          "start": 2742
        }
      ]
    }
  }
}