{
  "_format": "hh-sol-artifact-1",
  "contractName": "PriceMaster",
  "sourceName": "contracts/price/PriceMaster.sol",
  "abi": [
    {
      "inputs": [
        {
          "internalType": "address",
          "name": "_priceManager",
          "type": "address"
        },
        {
          "internalType": "address",
          "name": "_orderBook",
          "type": "address"
        },
        {
          "internalType": "address",
          "name": "_keeperAddress",
          "type": "address"
        }
      ],
      "stateMutability": "nonpayable",
      "type": "constructor"
    },
    {
      "inputs": [
        {
          "internalType": "address",
          "name": "",
          "type": "address"
        }
      ],
      "name": "isPriceKeeper",
      "outputs": [
        {
          "internalType": "bool",
          "name": "",
          "type": "bool"
        }
      ],
      "stateMutability": "view",
      "type": "function"
    },
    {
      "inputs": [],
      "name": "orderBook",
      "outputs": [
        {
          "internalType": "contract OrderBook",
          "name": "",
          "type": "address"
        }
      ],
      "stateMutability": "view",
      "type": "function"
    },
    {
      "inputs": [],
      "name": "priceManager",
      "outputs": [
        {
          "internalType": "contract PriceManager",
          "name": "",
          "type": "address"
        }
      ],
      "stateMutability": "view",
      "type": "function"
    },
    {
      "inputs": [
        {
          "internalType": "uint256[]",
          "name": "_marketId",
          "type": "uint256[]"
        },
        {
          "internalType": "uint256[]",
          "name": "_price",
          "type": "uint256[]"
        },
        {
          "internalType": "bool",
          "name": "_isInitialize",
          "type": "bool"
        }
      ],
      "name": "setPricesAndExecuteLimitOrders",
      "outputs": [],
      "stateMutability": "nonpayable",
      "type": "function"
    }
  ],
  "bytecode": "0x608060405234801561001057600080fd5b5060405161060f38038061060f83398101604081905261002f91610097565b600080546001600160a01b03199081166001600160a01b03958616178255600180549091169385169390931783559216825260026020526040909120805460ff191690911790556100da565b80516001600160a01b038116811461009257600080fd5b919050565b6000806000606084860312156100ac57600080fd5b6100b58461007b565b92506100c36020850161007b565b91506100d16040850161007b565b90509250925092565b610526806100e96000396000f3fe608060405234801561001057600080fd5b506004361061004c5760003560e01c8063776af5ba1461005157806382d143a914610081578063ad6ea0b4146100b4578063c7e1ffe3146100c9575b600080fd5b600154610064906001600160a01b031681565b6040516001600160a01b0390911681526020015b60405180910390f35b6100a461008f366004610395565b60026020526000908152604090205460ff1681565b6040519015158152602001610078565b6100c76100c2366004610411565b6100dc565b005b600054610064906001600160a01b031681565b3360009081526002602052604090205460ff166101515760405162461bcd60e51b815260206004820152602860248201527f50726963654d616e616765723a2053686f756c642062652063616c6c656420626044820152673c9035b2b2b832b960c11b60648201526084015b60405180910390fd5b83821461019b5760405162461bcd60e51b8152602060048201526018602482015277141c9a58d953585cdd195c8e8815dc9bdb99c81a5b9c1d5d60421b6044820152606401610148565b8360005b8181101561038c576000546001600160a01b031663f7d975778888848181106101ca576101ca61049a565b905060200201358787858181106101e3576101e361049a565b905060200201356040518363ffffffff1660e01b8152600401610210929190918252602082015260400190565b600060405180830381600087803b15801561022a57600080fd5b505af115801561023e573d6000803e3d6000fd5b505050508261037a57600080546001600160a01b0316631208064789898581811061026b5761026b61049a565b905060200201356040518263ffffffff1660e01b815260040161029091815260200190565b602060405180830381865afa1580156102ad573d6000803e3d6000fd5b505050506040513d601f19601f820116820180604052508101906102d191906104b0565b8686848181106102e3576102e361049a565b600154602090910292909201359290921092506001600160a01b03169050635f8fa7b7828a8a868181106103195761031961049a565b6040516001600160e01b031960e087901b16815293151560048501526020029190910135602483015250604401600060405180830381600087803b15801561036057600080fd5b505af1158015610374573d6000803e3d6000fd5b50505050505b80610384816104c9565b91505061019f565b50505050505050565b6000602082840312156103a757600080fd5b81356001600160a01b03811681146103be57600080fd5b9392505050565b60008083601f8401126103d757600080fd5b50813567ffffffffffffffff8111156103ef57600080fd5b6020830191508360208260051b850101111561040a57600080fd5b9250929050565b60008060008060006060868803121561042957600080fd5b853567ffffffffffffffff8082111561044157600080fd5b61044d89838a016103c5565b9097509550602088013591508082111561046657600080fd5b50610473888289016103c5565b9094509250506040860135801515811461048c57600080fd5b809150509295509295909350565b634e487b7160e01b600052603260045260246000fd5b6000602082840312156104c257600080fd5b5051919050565b6000600182016104e957634e487b7160e01b600052601160045260246000fd5b506001019056fea2646970667358221220dc0f001648badec013a6c69693189109f405f75daea22125a0ef3b8ba4f8135e64736f6c63430008120033",
  "linkReferences": {},
  "deployedLinkReferences": {}
}