{
  "_format": "hh-sol-artifact-1",
  "contractName": "L3Gateway",
  "sourceName": "contracts/crosschain/L3Gateway.sol",
  "abi": [
    {
      "inputs": [
        {
          "internalType": "address",
          "name": "_traderVault",
          "type": "address"
        },
        {
          "internalType": "address",
          "name": "_tokenInfo",
          "type": "address"
        },
        {
          "internalType": "address",
          "name": "_risePool",
          "type": "address"
        },
        {
          "internalType": "address",
          "name": "_market",
          "type": "address"
        },
        {
          "internalType": "address",
          "name": "_l2MarginGateway",
          "type": "address"
        },
        {
          "internalType": "address",
          "name": "_l2LiquidityGateway",
          "type": "address"
        }
      ],
      "stateMutability": "nonpayable",
      "type": "constructor"
    },
    {
      "inputs": [
        {
          "internalType": "uint256",
          "name": "_marketId",
          "type": "uint256"
        },
        {
          "internalType": "bool",
          "name": "_isLongReserve",
          "type": "bool"
        },
        {
          "internalType": "uint256",
          "name": "_amount",
          "type": "uint256"
        }
      ],
      "name": "addLiquidity",
      "outputs": [],
      "stateMutability": "nonpayable",
      "type": "function"
    },
    {
      "inputs": [
        {
          "internalType": "address",
          "name": "_trader",
          "type": "address"
        },
        {
          "internalType": "uint256",
          "name": "_assetId",
          "type": "uint256"
        },
        {
          "internalType": "uint256",
          "name": "_amount",
          "type": "uint256"
        }
      ],
      "name": "increaseTraderBalance",
      "outputs": [],
      "stateMutability": "nonpayable",
      "type": "function"
    },
    {
      "inputs": [],
      "name": "l2LiquidityGatewayAddress",
      "outputs": [
        {
          "internalType": "address",
          "name": "",
          "type": "address"
        }
      ],
      "stateMutability": "view",
      "type": "function"
    },
    {
      "inputs": [],
      "name": "l2MarginGatewayAddress",
      "outputs": [
        {
          "internalType": "address",
          "name": "",
          "type": "address"
        }
      ],
      "stateMutability": "view",
      "type": "function"
    },
    {
      "inputs": [],
      "name": "market",
      "outputs": [
        {
          "internalType": "contract Market",
          "name": "",
          "type": "address"
        }
      ],
      "stateMutability": "view",
      "type": "function"
    },
    {
      "inputs": [
        {
          "internalType": "uint256",
          "name": "_marketId",
          "type": "uint256"
        },
        {
          "internalType": "bool",
          "name": "_isLongReserve",
          "type": "bool"
        },
        {
          "internalType": "address",
          "name": "_recipient",
          "type": "address"
        },
        {
          "internalType": "uint256",
          "name": "_amount",
          "type": "uint256"
        }
      ],
      "name": "removeLiquidityToL2",
      "outputs": [],
      "stateMutability": "nonpayable",
      "type": "function"
    },
    {
      "inputs": [],
      "name": "risePool",
      "outputs": [
        {
          "internalType": "contract RisePool",
          "name": "",
          "type": "address"
        }
      ],
      "stateMutability": "view",
      "type": "function"
    },
    {
      "inputs": [],
      "name": "tokenInfo",
      "outputs": [
        {
          "internalType": "contract TokenInfo",
          "name": "",
          "type": "address"
        }
      ],
      "stateMutability": "view",
      "type": "function"
    },
    {
      "inputs": [],
      "name": "traderVault",
      "outputs": [
        {
          "internalType": "contract TraderVault",
          "name": "",
          "type": "address"
        }
      ],
      "stateMutability": "view",
      "type": "function"
    },
    {
      "inputs": [
        {
          "internalType": "address",
          "name": "_trader",
          "type": "address"
        },
        {
          "internalType": "uint256",
          "name": "_assetId",
          "type": "uint256"
        },
        {
          "internalType": "uint256",
          "name": "_amount",
          "type": "uint256"
        }
      ],
      "name": "withdrawAssetToL2",
      "outputs": [],
      "stateMutability": "nonpayable",
      "type": "function"
    }
  ],
  "bytecode": "0x608060405234801561001057600080fd5b50604051610c7f380380610c7f83398101604081905261002f916100bd565b600280546001600160a01b03199081166001600160a01b0398891617909155600380548216968816969096179095556005805486169487169490941790935560048054851692861692909217909155600080548416918516919091179055600180549092169216919091179055610131565b80516001600160a01b03811681146100b857600080fd5b919050565b60008060008060008060c087890312156100d657600080fd5b6100df876100a1565b95506100ed602088016100a1565b94506100fb604088016100a1565b9350610109606088016100a1565b9250610117608088016100a1565b915061012560a088016100a1565b90509295509295509295565b610b3f806101406000396000f3fe608060405234801561001057600080fd5b506004361061009e5760003560e01c80637411e99f116100665780637411e99f1461012057806380f5560514610133578063b997f08c14610146578063df486d1f14610159578063ee746e7b1461016c57600080fd5b80631f71514b146100a357806351ed0ee3146100b85780636597bc9a146100e75780636addb663146100fa578063720e60771461010d575b600080fd5b6100b66100b136600461088b565b61017f565b005b6002546100cb906001600160a01b031681565b6040516001600160a01b03909116815260200160405180910390f35b6100b66100f53660046108d5565b61045a565b6003546100cb906001600160a01b031681565b6100b661011b36600461090a565b6104cd565b6005546100cb906001600160a01b031681565b6004546100cb906001600160a01b031681565b6000546100cb906001600160a01b031681565b6100b661016736600461088b565b61083f565b6001546100cb906001600160a01b031681565b60025460405163dd9d659360e01b81526000916001600160a01b03169063dd9d6593906101b29087908790600401610950565b602060405180830381865afa1580156101cf573d6000803e3d6000fd5b505050506040513d601f19601f820116820180604052508101906101f39190610969565b90508181101561024a5760405162461bcd60e51b815260206004820152601f60248201527f4c33476174657761793a20696e73756666696369656e742062616c616e63650060448201526064015b60405180910390fd5b600254604051630b665acb60e01b81526001600160a01b0390911690630b665acb9061027e90879087908790600401610982565b600060405180830381600087803b15801561029857600080fd5b505af11580156102ac573d6000803e3d6000fd5b505060035460405163d9758b0160e01b815260048101879052600093506001600160a01b03909116915063d9758b0190602401602060405180830381865afa1580156102fc573d6000803e3d6000fd5b505050506040513d601f19601f8201168201806040525081019061032091906109ae565b9050600060606001860361038657604051637786a7df60e11b9250829061034d9089908890602401610950565b60408051601f198184030181529190526020810180516001600160e01b03166001600160e01b03199093169290921790915290506103dc565b604051632b7cabab60e21b925082906103a7908990889087906024016109d2565b60408051601f198184030181529190526020810180516001600160e01b03166001600160e01b03199093169290921790915290505b6000546040516349460b4d60e11b815260649163928c169a9161040d916001600160a01b03169085906004016109f5565b6020604051808303816000875af115801561042c573d6000803e3d6000fd5b505050506040513d601f19601f820116820180604052508101906104509190610969565b5050505050505050565b6005546040516332cbde4d60e11b8152600481018590528315156024820152604481018390526001600160a01b0390911690636597bc9a906064015b600060405180830381600087803b1580156104b057600080fd5b505af11580156104c4573d6000803e3d6000fd5b50505050505050565b6005546040516333ec55fd60e11b81526004810186905282916001600160a01b0316906367d8abfa90602401602060405180830381865afa158015610516573d6000803e3d6000fd5b505050506040513d601f19601f8201168201806040525081019061053a9190610969565b101561059b5760405162461bcd60e51b815260206004820152602a60248201527f4c33476174657761793a20696e73756666696369656e74206c6f6e6720706f6f6044820152696c20636170616369747960b01b6064820152608401610241565b600554604051630fb175a960e01b8152600481018690528415156024820152604481018390526001600160a01b0390911690630fb175a990606401600060405180830381600087803b1580156105f057600080fd5b505af1158015610604573d6000803e3d6000fd5b505060048054604051633ec7919360e01b8152918201889052600093506001600160a01b03169150633ec791939060240161012060405180830381865afa158015610653573d6000803e3d6000fd5b505050506040513d601f19601f820116820180604052508101906106779190610a8b565b905060008461068a578160a00151610690565b81608001515b60035460405163d9758b0160e01b8152600481018390529192506000916001600160a01b039091169063d9758b0190602401602060405180830381865afa1580156106df573d6000803e3d6000fd5b505050506040513d601f19601f8201168201806040525081019061070391906109ae565b9050600060606001840361076957604051631847f9c360e21b925082906107309089908990602401610950565b60408051601f198184030181529190526020810180516001600160e01b03166001600160e01b03199093169290921790915290506107bf565b604051631957e3d160e21b9250829061078a908990899087906024016109d2565b60408051601f198184030181529190526020810180516001600160e01b03166001600160e01b03199093169290921790915290505b6001546040516349460b4d60e11b815260649163928c169a916107f0916001600160a01b03169085906004016109f5565b6020604051808303816000875af115801561080f573d6000803e3d6000fd5b505050506040513d601f19601f820116820180604052508101906108339190610969565b50505050505050505050565b60025460405163df486d1f60e01b81526001600160a01b039091169063df486d1f9061049690869086908690600401610982565b6001600160a01b038116811461088857600080fd5b50565b6000806000606084860312156108a057600080fd5b83356108ab81610873565b95602085013595506040909401359392505050565b803580151581146108d057600080fd5b919050565b6000806000606084860312156108ea57600080fd5b833592506108fa602085016108c0565b9150604084013590509250925092565b6000806000806080858703121561092057600080fd5b84359350610930602086016108c0565b9250604085013561094081610873565b9396929550929360600135925050565b6001600160a01b03929092168252602082015260400190565b60006020828403121561097b57600080fd5b5051919050565b6001600160a01b039390931683526020830191909152604082015260600190565b80516108d081610873565b6000602082840312156109c057600080fd5b81516109cb81610873565b9392505050565b6001600160a01b0393841681526020810192909252909116604082015260600190565b60018060a01b038316815260006020604081840152835180604085015260005b81811015610a3157858101830151858201606001528201610a15565b506000606082860101526060601f19601f830116850101925050509392505050565b604051610120810167ffffffffffffffff81118282101715610a8557634e487b7160e01b600052604160045260246000fd5b60405290565b60006101208284031215610a9e57600080fd5b610aa6610a53565b825181526020830151602082015260408301516040820152606083015160608201526080830151608082015260a083015160a082015260c083015160c082015260e083015160e0820152610100610afe8185016109a3565b90820152939250505056fea2646970667358221220bff9474ce3bec05aeaa79023ffa502058a6ed9f6a6701b2abbd0827ea8cb529a64736f6c63430008120033",
  "linkReferences": {},
  "deployedLinkReferences": {}
}