{
  "_format": "hh-sol-artifact-1",
  "contractName": "GlobalState",
  "sourceName": "contracts/global/GlobalState.sol",
  "abi": [
    {
      "inputs": [
        {
          "internalType": "uint256",
          "name": "_marketId",
          "type": "uint256"
        }
      ],
      "name": "getGlobalLongPositionState",
      "outputs": [
        {
          "components": [
            {
              "internalType": "uint256",
              "name": "totalSize",
              "type": "uint256"
            },
            {
              "internalType": "uint256",
              "name": "totalMargin",
              "type": "uint256"
            },
            {
              "internalType": "uint256",
              "name": "avgPrice",
              "type": "uint256"
            }
          ],
          "internalType": "struct GlobalPositionState",
          "name": "",
          "type": "tuple"
        }
      ],
      "stateMutability": "view",
      "type": "function"
    },
    {
      "inputs": [
        {
          "internalType": "uint256",
          "name": "_marketId",
          "type": "uint256"
        }
      ],
      "name": "getGlobalShortPositionState",
      "outputs": [
        {
          "components": [
            {
              "internalType": "uint256",
              "name": "totalSize",
              "type": "uint256"
            },
            {
              "internalType": "uint256",
              "name": "totalMargin",
              "type": "uint256"
            },
            {
              "internalType": "uint256",
              "name": "avgPrice",
              "type": "uint256"
            }
          ],
          "internalType": "struct GlobalPositionState",
          "name": "",
          "type": "tuple"
        }
      ],
      "stateMutability": "view",
      "type": "function"
    },
    {
      "inputs": [
        {
          "internalType": "uint256",
          "name": "_marketId",
          "type": "uint256"
        }
      ],
      "name": "getLongOpenInterest",
      "outputs": [
        {
          "internalType": "uint256",
          "name": "",
          "type": "uint256"
        }
      ],
      "stateMutability": "view",
      "type": "function"
    },
    {
      "inputs": [
        {
          "internalType": "uint256",
          "name": "_marketId",
          "type": "uint256"
        }
      ],
      "name": "getLongShortOIDiff",
      "outputs": [
        {
          "internalType": "int256",
          "name": "",
          "type": "int256"
        }
      ],
      "stateMutability": "view",
      "type": "function"
    },
    {
      "inputs": [
        {
          "internalType": "uint256",
          "name": "_marketId",
          "type": "uint256"
        }
      ],
      "name": "getShortOpenInterest",
      "outputs": [
        {
          "internalType": "uint256",
          "name": "",
          "type": "uint256"
        }
      ],
      "stateMutability": "view",
      "type": "function"
    },
    {
      "inputs": [
        {
          "components": [
            {
              "internalType": "bool",
              "name": "_isIncrease",
              "type": "bool"
            },
            {
              "internalType": "uint256",
              "name": "_marketId",
              "type": "uint256"
            },
            {
              "internalType": "uint256",
              "name": "_sizeDeltaAbs",
              "type": "uint256"
            },
            {
              "internalType": "uint256",
              "name": "_marginDeltaAbs",
              "type": "uint256"
            },
            {
              "internalType": "uint256",
              "name": "_markPrice",
              "type": "uint256"
            }
          ],
          "internalType": "struct UpdateGlobalPositionStateParams",
          "name": "p",
          "type": "tuple"
        }
      ],
      "name": "updateGlobalLongPositionState",
      "outputs": [],
      "stateMutability": "nonpayable",
      "type": "function"
    },
    {
      "inputs": [
        {
          "components": [
            {
              "internalType": "bool",
              "name": "_isIncrease",
              "type": "bool"
            },
            {
              "internalType": "uint256",
              "name": "_marketId",
              "type": "uint256"
            },
            {
              "internalType": "uint256",
              "name": "_sizeDeltaAbs",
              "type": "uint256"
            },
            {
              "internalType": "uint256",
              "name": "_marginDeltaAbs",
              "type": "uint256"
            },
            {
              "internalType": "uint256",
              "name": "_markPrice",
              "type": "uint256"
            }
          ],
          "internalType": "struct UpdateGlobalPositionStateParams",
          "name": "p",
          "type": "tuple"
        }
      ],
      "name": "updateGlobalShortPositionState",
      "outputs": [],
      "stateMutability": "nonpayable",
      "type": "function"
    }
  ],
  "bytecode": "0x608060405234801561001057600080fd5b50610698806100206000396000f3fe608060405234801561001057600080fd5b506004361061006d5760003560e01c80630eb91fcd1461007257806328722396146100ac578063d3cac64d146100cd578063f2ea9064146100e2578063f4e79e2d146100f5578063fd887e8214610108578063ffde152314610128575b600080fd5b610085610080366004610541565b610148565b60408051825181526020808401519082015291810151908201526060015b60405180910390f35b6100bf6100ba366004610541565b6101a4565b6040519081526020016100a3565b6100e06100db36600461055a565b6101cd565b005b6100856100f0366004610541565b61035d565b6100e061010336600461055a565b6103b8565b6100bf610116366004610541565b60009081526001602052604090205490565b6100bf610136366004610541565b60009081526020819052604090205490565b61016c60405180606001604052806000815260200160008152602001600081525090565b506000908152600160208181526040928390208351606081018552815481529281015491830191909152600201549181019190915290565b600081815260016020908152604080832054918390528220546101c791906105fc565b92915050565b8051156102f757602081810180516000908152808352604080822054925182529081902060020154818501516080860151835163c901b33d60e01b815260048101959095526024850192909252604484015260648301525173__$91a1a7f12f728c8759f4be979bae55555f$__9263c901b33d92608480820193918290030181865af4158015610261573d6000803e3d6000fd5b505050506040513d601f19601f820116820180604052508101906102859190610623565b60208083018051600090815291829052604080832060020193909355828401519051825291812080549091906102bc90849061063c565b909155505060608101516020808301516000908152908190526040812060010180549091906102ec90849061063c565b9091555061035a9050565b8060400151600080836020015181526020019081526020016000206000016000828254610324919061064f565b9091555050606081015160208083015160009081529081905260408120600101805490919061035490849061064f565b90915550505b50565b61038160405180606001604052806000815260200160008152602001600081525090565b5060009081526020818152604091829020825160608101845281548152600182015492810192909252600201549181019190915290565b8051156104de5760208181018051600090815260018352604080822054925182529081902060020154818501516080860151835163c901b33d60e01b815260048101959095526024850192909252604484015260648301525173__$91a1a7f12f728c8759f4be979bae55555f$__9263c901b33d92608480820193918290030181865af415801561044d573d6000803e3d6000fd5b505050506040513d601f19601f820116820180604052508101906104719190610623565b6020808301805160009081526001909252604080832060020193909355828401519051825291812080549091906104a990849061063c565b925050819055508060600151600160008360200151815260200190815260200160002060010160008282546102ec919061063c565b80604001516001600083602001518152602001908152602001600020600001600082825461050c919061064f565b92505081905550806060015160016000836020015181526020019081526020016000206001016000828254610354919061064f565b60006020828403121561055357600080fd5b5035919050565b600060a0828403121561056c57600080fd5b60405160a0810181811067ffffffffffffffff8211171561059d57634e487b7160e01b600052604160045260246000fd5b604052823580151581146105b057600080fd5b80825250602083013560208201526040830135604082015260608301356060820152608083013560808201528091505092915050565b634e487b7160e01b600052601160045260246000fd5b818103600083128015838313168383128216171561061c5761061c6105e6565b5092915050565b60006020828403121561063557600080fd5b5051919050565b808201808211156101c7576101c76105e6565b818103818111156101c7576101c76105e656fea2646970667358221220318aa5d93f92f2f1aec18f077db1855066bf25560f3affbf36c9a62b759ecdf064736f6c63430008120033",
  "linkReferences": {
    "contracts/position/PositionUtils.sol": {
      "PositionUtils": [
        {
          "length": 20,
          "start": 583
        },
        {
          "length": 20,
          "start": 1075
        }
      ]
    }
  },
  "deployedLinkReferences": {
    "contracts/position/PositionUtils.sol": {
      "PositionUtils": [
        {
          "length": 20,
          "start": 551
        },
        {
          "length": 20,
          "start": 1043
        }
      ]
    }
  }
}