{
  "_format": "hh-sol-artifact-1",
  "contractName": "L2Vault",
  "sourceName": "contracts/crosschain/L2Vault.sol",
  "abi": [
    {
      "inputs": [
        {
          "internalType": "address",
          "name": "sender",
          "type": "address"
        }
      ],
      "name": "NotL2Gateway",
      "type": "error"
    },
    {
      "inputs": [
        {
          "internalType": "address",
          "name": "_account",
          "type": "address"
        },
        {
          "internalType": "address",
          "name": "_token",
          "type": "address"
        },
        {
          "internalType": "uint256",
          "name": "_amount",
          "type": "uint256"
        }
      ],
      "name": "_transferInERC20ToL2Vault",
      "outputs": [],
      "stateMutability": "nonpayable",
      "type": "function"
    },
    {
      "inputs": [
        {
          "internalType": "address",
          "name": "_token",
          "type": "address"
        },
        {
          "internalType": "uint256",
          "name": "_amount",
          "type": "uint256"
        },
        {
          "internalType": "address",
          "name": "_receiver",
          "type": "address"
        }
      ],
      "name": "_transferOutERC20FromL2Vault",
      "outputs": [],
      "stateMutability": "nonpayable",
      "type": "function"
    },
    {
      "inputs": [
        {
          "internalType": "address payable",
          "name": "_to",
          "type": "address"
        },
        {
          "internalType": "uint256",
          "name": "_amount",
          "type": "uint256"
        }
      ],
      "name": "_transferOutEthFromL2Vault",
      "outputs": [],
      "stateMutability": "nonpayable",
      "type": "function"
    },
    {
      "inputs": [
        {
          "internalType": "address",
          "name": "",
          "type": "address"
        }
      ],
      "name": "allowedL2GatewaysMap",
      "outputs": [
        {
          "internalType": "uint256",
          "name": "index",
          "type": "uint256"
        },
        {
          "internalType": "bool",
          "name": "allowed",
          "type": "bool"
        }
      ],
      "stateMutability": "view",
      "type": "function"
    },
    {
      "inputs": [
        {
          "internalType": "address",
          "name": "_allowedL2Gateway",
          "type": "address"
        }
      ],
      "name": "setAllowedGateway",
      "outputs": [],
      "stateMutability": "nonpayable",
      "type": "function"
    }
  ],
  "bytecode": "0x608060405234801561001057600080fd5b50610781806100206000396000f3fe608060405234801561001057600080fd5b50600436106100575760003560e01c806306ef9d701461005c578063129518a9146100715780631d0a2e2b14610084578063c301f34e146100c7578063d65f90ca146100da575b600080fd5b61006f61006a3660046105e3565b6100ed565b005b61006f61007f36600461060f565b6101db565b6100ae61009236600461060f565b6000602081905290815260409020805460019091015460ff1682565b6040805192835290151560208301520160405180910390f35b61006f6100d5366004610633565b61026a565b61006f6100e8366004610675565b610318565b3360009081526020819052604090206001015460ff16610127576040516308bbd35b60e41b81523360048201526024015b60405180910390fd5b6000826001600160a01b03168260405160006040518083038185875af1925050503d8060008114610174576040519150601f19603f3d011682016040523d82523d6000602084013e610179565b606091505b50509050806101d65760405162461bcd60e51b815260206004820152602360248201527f5472616e7366657248656c7065723a20455448207472616e73666572206661696044820152621b195960ea1b606482015260840161011e565b505050565b6001600160a01b038116600090815260208190526040902054156102415760405162461bcd60e51b815260206004820152601a60248201527f4c32476174657761793a20616c726561647920616c6c6f776564000000000000604482015260640161011e565b6001600160a01b031660009081526020819052604090206001908101805460ff19169091179055565b3360009081526020819052604090206001015460ff1661029f576040516308bbd35b60e41b815233600482015260240161011e565b60405163a9059cbb60e01b81526001600160a01b0382811660048301526024820184905284169063a9059cbb906044016020604051808303816000875af11580156102ee573d6000803e3d6000fd5b505050506040513d601f19601f8201168201806040525081019061031291906106b6565b50505050565b604080516001600160a01b038581166024830152306044830181905260648084018690528451808503909101815260849093018452602080840180516001600160e01b03166323b872dd60e01b17905284518086019095528085527f5361666545524332303a206c6f772d6c6576656c2063616c6c206661696c6564908501526101d6939186169287928691610312918691906000906103bb908490849061043b565b90508051600014806103dc5750808060200190518101906103dc91906106b6565b6101d65760405162461bcd60e51b815260206004820152602a60248201527f5361666545524332303a204552433230206f7065726174696f6e20646964206e6044820152691bdd081cdd58d8d9595960b21b606482015260840161011e565b606061044a8484600085610452565b949350505050565b6060824710156104b35760405162461bcd60e51b815260206004820152602660248201527f416464726573733a20696e73756666696369656e742062616c616e636520666f6044820152651c8818d85b1b60d21b606482015260840161011e565b600080866001600160a01b031685876040516104cf91906106fc565b60006040518083038185875af1925050503d806000811461050c576040519150601f19603f3d011682016040523d82523d6000602084013e610511565b606091505b50915091506105228783838761052d565b979650505050505050565b6060831561059c578251600003610595576001600160a01b0385163b6105955760405162461bcd60e51b815260206004820152601d60248201527f416464726573733a2063616c6c20746f206e6f6e2d636f6e7472616374000000604482015260640161011e565b508161044a565b61044a83838151156105b15781518083602001fd5b8060405162461bcd60e51b815260040161011e9190610718565b6001600160a01b03811681146105e057600080fd5b50565b600080604083850312156105f657600080fd5b8235610601816105cb565b946020939093013593505050565b60006020828403121561062157600080fd5b813561062c816105cb565b9392505050565b60008060006060848603121561064857600080fd5b8335610653816105cb565b925060208401359150604084013561066a816105cb565b809150509250925092565b60008060006060848603121561068a57600080fd5b8335610695816105cb565b925060208401356106a5816105cb565b929592945050506040919091013590565b6000602082840312156106c857600080fd5b8151801515811461062c57600080fd5b60005b838110156106f35781810151838201526020016106db565b50506000910152565b6000825161070e8184602087016106d8565b9190910192915050565b60208152600082518060208401526107378160408501602087016106d8565b601f01601f1916919091016040019291505056fea264697066735822122006c7d97f86ec7fdb50ab02b2682df11a989ec0d0d20ec181ab90800b674edcef64736f6c63430008120033",
  "linkReferences": {},
  "deployedLinkReferences": {}
}