{
  "_format": "hh-sol-artifact-1",
  "contractName": "OrderUtils",
  "sourceName": "contracts/order/OrderUtils.sol",
  "abi": [
    {
      "inputs": [
        {
          "internalType": "address",
          "name": "_account",
          "type": "address"
        },
        {
          "internalType": "bool",
          "name": "_isLong",
          "type": "bool"
        },
        {
          "internalType": "uint256",
          "name": "_marketId",
          "type": "uint256"
        }
      ],
      "name": "_getPositionKey",
      "outputs": [
        {
          "internalType": "bytes32",
          "name": "",
          "type": "bytes32"
        }
      ],
      "stateMutability": "pure",
      "type": "function"
    },
    {
      "inputs": [
        {
          "internalType": "uint256",
          "name": "_tokenAmount",
          "type": "uint256"
        },
        {
          "internalType": "uint256",
          "name": "_tokenPrice",
          "type": "uint256"
        },
        {
          "internalType": "uint256",
          "name": "_tokenDecimals",
          "type": "uint256"
        }
      ],
      "name": "_tokenToUsd",
      "outputs": [
        {
          "internalType": "uint256",
          "name": "",
          "type": "uint256"
        }
      ],
      "stateMutability": "pure",
      "type": "function"
    },
    {
      "inputs": [
        {
          "internalType": "uint256",
          "name": "_usdAmount",
          "type": "uint256"
        },
        {
          "internalType": "uint256",
          "name": "_tokenPrice",
          "type": "uint256"
        },
        {
          "internalType": "uint256",
          "name": "_tokenDecimals",
          "type": "uint256"
        }
      ],
      "name": "_usdToToken",
      "outputs": [
        {
          "internalType": "uint256",
          "name": "",
          "type": "uint256"
        }
      ],
      "stateMutability": "pure",
      "type": "function"
    }
  ],
  "bytecode": "0x61032661003a600b82828239805160001a60731461002d57634e487b7160e01b600052600060045260246000fd5b30600052607381538281f3fe730000000000000000000000000000000000000000301460806040526004361061004b5760003560e01c806312b6c3b414610050578063ad58c8c9146100c3578063b9597017146100d6575b600080fd5b6100b161005e36600461012a565b6040516bffffffffffffffffffffffff19606085901b16602082015282151560f81b6034820152603581018290526000906055016040516020818303038152906040528051906020012090509392505050565b60405190815260200160405180910390f35b6100b16100d136600461017c565b6100e9565b6100b16100e436600461017c565b610113565b6000826100f783600a6102a4565b61010190866102b7565b61010b91906102ce565b949350505050565b600061012082600a6102a4565b61010184866102b7565b60008060006060848603121561013f57600080fd5b83356001600160a01b038116811461015657600080fd5b92506020840135801515811461016b57600080fd5b929592945050506040919091013590565b60008060006060848603121561019157600080fd5b505081359360208301359350604090920135919050565b634e487b7160e01b600052601160045260246000fd5b600181815b808511156101f95781600019048211156101df576101df6101a8565b808516156101ec57918102915b93841c93908002906101c3565b509250929050565b6000826102105750600161029e565b8161021d5750600061029e565b8160018114610233576002811461023d57610259565b600191505061029e565b60ff84111561024e5761024e6101a8565b50506001821b61029e565b5060208310610133831016604e8410600b841016171561027c575081810a61029e565b61028683836101be565b806000190482111561029a5761029a6101a8565b0290505b92915050565b60006102b08383610201565b9392505050565b808202811582820484141761029e5761029e6101a8565b6000826102eb57634e487b7160e01b600052601260045260246000fd5b50049056fea264697066735822122014066ad878487bfaec7b019e2884563f5ea15acd503efcba3039c8318c9004ea64736f6c63430008120033",
  "linkReferences": {},
  "deployedLinkReferences": {}
}