{
  "_format": "hh-sol-artifact-1",
  "contractName": "OrderUtils",
  "sourceName": "contracts/order/OrderUtils.sol",
  "abi": [
    {
      "inputs": [
        {
          "internalType": "address",
          "name": "_account",
          "type": "address"
        },
        {
          "internalType": "bool",
          "name": "_isLong",
          "type": "bool"
        },
        {
          "internalType": "uint256",
          "name": "_marketId",
          "type": "uint256"
        }
      ],
      "name": "_getPositionKey",
      "outputs": [
        {
          "internalType": "bytes32",
          "name": "",
          "type": "bytes32"
        }
      ],
      "stateMutability": "pure",
      "type": "function"
    }
  ],
  "bytecode": "0x61012d61003a600b82828239805160001a60731461002d57634e487b7160e01b600052600060045260246000fd5b30600052607381538281f3fe730000000000000000000000000000000000000000301460806040526004361060335760003560e01c806312b6c3b4146038575b600080fd5b6096604336600460a8565b6040516bffffffffffffffffffffffff19606085901b16602082015282151560f81b6034820152603581018290526000906055016040516020818303038152906040528051906020012090509392505050565b60405190815260200160405180910390f35b60008060006060848603121560bc57600080fd5b83356001600160a01b038116811460d257600080fd5b92506020840135801515811460e657600080fd5b92959294505050604091909101359056fea26469706673582212201843ccdaad4c50406630bb597e984800efeb0ab80953a72a3916f38d7dd3f0e564736f6c63430008120033",
  "linkReferences": {},
  "deployedLinkReferences": {}
}