{
  "_format": "hh-sol-artifact-1",
  "contractName": "OrderBookBase",
  "sourceName": "contracts/orderbook/OrderBookBase.sol",
  "abi": [
    {
      "inputs": [
        {
          "internalType": "uint256",
          "name": "",
          "type": "uint256"
        },
        {
          "internalType": "uint256",
          "name": "",
          "type": "uint256"
        }
      ],
      "name": "buyFirstIndex",
      "outputs": [
        {
          "internalType": "uint256",
          "name": "",
          "type": "uint256"
        }
      ],
      "stateMutability": "view",
      "type": "function"
    },
    {
      "inputs": [
        {
          "internalType": "uint256",
          "name": "",
          "type": "uint256"
        },
        {
          "internalType": "uint256",
          "name": "",
          "type": "uint256"
        }
      ],
      "name": "buyLastIndex",
      "outputs": [
        {
          "internalType": "uint256",
          "name": "",
          "type": "uint256"
        }
      ],
      "stateMutability": "view",
      "type": "function"
    },
    {
      "inputs": [
        {
          "components": [
            {
              "internalType": "address",
              "name": "trader",
              "type": "address"
            },
            {
              "internalType": "bool",
              "name": "isLong",
              "type": "bool"
            },
            {
              "internalType": "bool",
              "name": "isIncrease",
              "type": "bool"
            },
            {
              "internalType": "enum OrderType",
              "name": "orderType",
              "type": "uint8"
            },
            {
              "internalType": "uint256",
              "name": "marketId",
              "type": "uint256"
            },
            {
              "internalType": "uint256",
              "name": "sizeAbs",
              "type": "uint256"
            },
            {
              "internalType": "uint256",
              "name": "marginAbs",
              "type": "uint256"
            },
            {
              "internalType": "uint256",
              "name": "limitPrice",
              "type": "uint256"
            }
          ],
          "internalType": "struct OrderRequest",
          "name": "req",
          "type": "tuple"
        },
        {
          "internalType": "bool",
          "name": "_isBuy",
          "type": "bool"
        }
      ],
      "name": "dequeueOrderBook",
      "outputs": [],
      "stateMutability": "nonpayable",
      "type": "function"
    },
    {
      "inputs": [
        {
          "components": [
            {
              "internalType": "address",
              "name": "trader",
              "type": "address"
            },
            {
              "internalType": "bool",
              "name": "isLong",
              "type": "bool"
            },
            {
              "internalType": "bool",
              "name": "isIncrease",
              "type": "bool"
            },
            {
              "internalType": "enum OrderType",
              "name": "orderType",
              "type": "uint8"
            },
            {
              "internalType": "uint256",
              "name": "marketId",
              "type": "uint256"
            },
            {
              "internalType": "uint256",
              "name": "sizeAbs",
              "type": "uint256"
            },
            {
              "internalType": "uint256",
              "name": "marginAbs",
              "type": "uint256"
            },
            {
              "internalType": "uint256",
              "name": "limitPrice",
              "type": "uint256"
            }
          ],
          "internalType": "struct OrderRequest",
          "name": "req",
          "type": "tuple"
        },
        {
          "internalType": "bool",
          "name": "_isBuy",
          "type": "bool"
        }
      ],
      "name": "enqueueOrderBook",
      "outputs": [],
      "stateMutability": "nonpayable",
      "type": "function"
    },
    {
      "inputs": [
        {
          "internalType": "uint256",
          "name": "",
          "type": "uint256"
        }
      ],
      "name": "maxBidPrice",
      "outputs": [
        {
          "internalType": "uint256",
          "name": "",
          "type": "uint256"
        }
      ],
      "stateMutability": "view",
      "type": "function"
    },
    {
      "inputs": [
        {
          "internalType": "uint256",
          "name": "",
          "type": "uint256"
        }
      ],
      "name": "minAskPrice",
      "outputs": [
        {
          "internalType": "uint256",
          "name": "",
          "type": "uint256"
        }
      ],
      "stateMutability": "view",
      "type": "function"
    },
    {
      "inputs": [
        {
          "internalType": "uint256",
          "name": "",
          "type": "uint256"
        },
        {
          "internalType": "uint256",
          "name": "",
          "type": "uint256"
        }
      ],
      "name": "orderSizeForPriceTick",
      "outputs": [
        {
          "internalType": "uint256",
          "name": "",
          "type": "uint256"
        }
      ],
      "stateMutability": "view",
      "type": "function"
    },
    {
      "inputs": [
        {
          "internalType": "address",
          "name": "",
          "type": "address"
        },
        {
          "internalType": "uint256",
          "name": "",
          "type": "uint256"
        }
      ],
      "name": "pendingOrders",
      "outputs": [
        {
          "internalType": "address",
          "name": "trader",
          "type": "address"
        },
        {
          "internalType": "bool",
          "name": "isLong",
          "type": "bool"
        },
        {
          "internalType": "bool",
          "name": "isIncrease",
          "type": "bool"
        },
        {
          "internalType": "enum OrderType",
          "name": "orderType",
          "type": "uint8"
        },
        {
          "internalType": "uint256",
          "name": "marketId",
          "type": "uint256"
        },
        {
          "internalType": "uint256",
          "name": "sizeAbs",
          "type": "uint256"
        },
        {
          "internalType": "uint256",
          "name": "marginAbs",
          "type": "uint256"
        },
        {
          "internalType": "uint256",
          "name": "limitPrice",
          "type": "uint256"
        }
      ],
      "stateMutability": "view",
      "type": "function"
    },
    {
      "inputs": [
        {
          "internalType": "uint256",
          "name": "",
          "type": "uint256"
        },
        {
          "internalType": "uint256",
          "name": "",
          "type": "uint256"
        }
      ],
      "name": "sellFirstIndex",
      "outputs": [
        {
          "internalType": "uint256",
          "name": "",
          "type": "uint256"
        }
      ],
      "stateMutability": "view",
      "type": "function"
    },
    {
      "inputs": [
        {
          "internalType": "uint256",
          "name": "",
          "type": "uint256"
        },
        {
          "internalType": "uint256",
          "name": "",
          "type": "uint256"
        }
      ],
      "name": "sellLastIndex",
      "outputs": [
        {
          "internalType": "uint256",
          "name": "",
          "type": "uint256"
        }
      ],
      "stateMutability": "view",
      "type": "function"
    },
    {
      "inputs": [
        {
          "internalType": "uint256",
          "name": "_marketId",
          "type": "uint256"
        },
        {
          "internalType": "uint256",
          "name": "_price",
          "type": "uint256"
        }
      ],
      "name": "setMaxBidPrice",
      "outputs": [],
      "stateMutability": "nonpayable",
      "type": "function"
    },
    {
      "inputs": [
        {
          "internalType": "uint256",
          "name": "_marketId",
          "type": "uint256"
        },
        {
          "internalType": "uint256",
          "name": "_price",
          "type": "uint256"
        }
      ],
      "name": "setMinAskPrice",
      "outputs": [],
      "stateMutability": "nonpayable",
      "type": "function"
    },
    {
      "inputs": [
        {
          "internalType": "address",
          "name": "",
          "type": "address"
        }
      ],
      "name": "traderOrderRequestCounts",
      "outputs": [
        {
          "internalType": "uint256",
          "name": "",
          "type": "uint256"
        }
      ],
      "stateMutability": "view",
      "type": "function"
    }
  ],
  "bytecode": "0x608060405234801561001057600080fd5b50610bfd806100206000396000f3fe608060405234801561001057600080fd5b50600436106100bf5760003560e01c8063aaffadec1161007c578063aaffadec14610205578063c1fc741014610225578063cd7dfc9914610250578063dfaae7f31461027b578063e0efd6ea1461029b578063eb4ebf4c146102c6578063f66ad163146102d957600080fd5b80630c679658146100c457806326b5eb08146100f75780636ef7ff251461010c5780637c191e7a146101375780637cc4d34014610157578063a2e63b2c146101da575b600080fd5b6100e46100d2366004610965565b60056020526000908152604090205481565b6040519081526020015b60405180910390f35b61010a6101053660046109b9565b6102f9565b005b6100e461011a366004610a92565b600960209081526000928352604080842090915290825290205481565b6100e4610145366004610ab4565b60006020819052908152604090205481565b6101c6610165366004610ad6565b60016020818152600093845260408085209091529183529120805491810154600282015460038301546004909301546001600160a01b0385169460ff600160a01b8204811695600160a81b8304821695600160b01b90930490911693919288565b6040516100ee989796959493929190610b16565b6100e46101e8366004610a92565b600860209081526000928352604080842090915290825290205481565b61010a610213366004610a92565b60009182526004602052604090912055565b6100e4610233366004610a92565b600660209081526000928352604080842090915290825290205481565b6100e461025e366004610a92565b600a60209081526000928352604080842090915290825290205481565b6100e4610289366004610965565b60046020526000908152604090205481565b6100e46102a9366004610a92565b600760209081526000928352604080842090915290825290205481565b61010a6102d43660046109b9565b610651565b61010a6102e7366004610a92565b60009182526005602052604090912055565b80156104b057608082018051600090815260086020908152604080832060e08701805185529083528184205494518452600783528184209051845290915290205481158015906103495750600081115b6103ad5760405162461bcd60e51b815260206004820152602a60248201527f426173654f72646572426f6f6b3a206275794f72646572426f6f6b20717565756044820152696520697320656d70747960b01b60648201526084015b60405180910390fd5b608084018051600090815260026020818152604080842060e08a0180518652908352818520878652835281852080546001600160b81b0319168155600181018690559384018590556003840185905560049093018490558451845260078252808420835185528252808420549451845260088252808420925184529190529020540361047657608084018051600090815260086020908152604080832060e0890180518552908352818420849055935183526007825280832093518352929052908120556104aa565b6080840151600090815260076020908152604080832060e0880151845290915281208054916104a483610b95565b91905055505b50505050565b6080820180516000908152600a6020908152604080832060e08701805185529083528184205494518452600983528184209051845290915290205481158015906104fa5750600081115b61055a5760405162461bcd60e51b815260206004820152602b60248201527f426173654f72646572426f6f6b3a2073656c6c4f72646572426f6f6b2071756560448201526a756520697320656d70747960a81b60648201526084016103a4565b608084018051600090815260036020818152604080842060e08a0180518652908352818520878652835281852080546001600160b81b03191681556001810186905560028101869055938401859055600490930184905584518452600982528084208351855282528084205494518452600a82528084209251845291905290205403610623576080840180516000908152600a6020908152604080832060e0890180518552908352818420849055935183526009825280832093518352929052908120556104aa565b6080840151600090815260096020908152604080832060e0880151845290915281208054916104a483610b95565b80156107bf576080820151600090815260086020908152604080832060e0860151845290915281205490036106a7576080820151600090815260076020908152604080832060e086015184529091529020600190555b6080820151600090815260086020908152604080832060e086015184529091528120805482906106d690610b95565b91829055506080840151600090815260026020908152604080832060e0880151845282528083208484528252918290208651815492880151938801511515600160a81b0260ff60a81b19941515600160a01b026001600160a81b03199094166001600160a01b039092169190911792909217928316821781556060870151939450869390929091839160ff60b01b1990911661ffff60a81b1990911617600160b01b83600381111561078a5761078a610b00565b02179055506080820151600182015560a0820151600282015560c0820151600382015560e09091015160049091015550610925565b60808201516000908152600a6020908152604080832060e08601518452909152812054900361080f576080820151600090815260096020908152604080832060e086015184529091529020600190555b60808201516000908152600a6020908152604080832060e0860151845290915281208054829061083e90610b95565b91829055506080840151600090815260036020818152604080842060e0890151855282528084208585528252928390208751815492890151948901511515600160a81b0260ff60a81b19951515600160a01b026001600160a81b03199094166001600160a01b039092169190911792909217938416821781556060880151949550879490939092849260ff60b01b191661ffff60a81b199092169190911790600160b01b9084908111156108f4576108f4610b00565b02179055506080820151600182015560a0820151600282015560c0820151600382015560e090910151600490910155505b60a08201516080830151600090815260066020908152604080832060e087015184529091528120805490919061095c908490610bae565b90915550505050565b60006020828403121561097757600080fd5b5035919050565b80356001600160a01b038116811461099557600080fd5b919050565b8035801515811461099557600080fd5b80356004811061099557600080fd5b6000808284036101208112156109ce57600080fd5b610100808212156109de57600080fd5b604051915080820182811067ffffffffffffffff82111715610a1057634e487b7160e01b600052604160045260246000fd5b604052610a1c8561097e565b8252610a2a6020860161099a565b6020830152610a3b6040860161099a565b6040830152610a4c606086016109aa565b60608301526080850135608083015260a085013560a083015260c085013560c083015260e085013560e0830152819350610a8781860161099a565b925050509250929050565b60008060408385031215610aa557600080fd5b50508035926020909101359150565b600060208284031215610ac657600080fd5b610acf8261097e565b9392505050565b60008060408385031215610ae957600080fd5b610af28361097e565b946020939093013593505050565b634e487b7160e01b600052602160045260246000fd5b6001600160a01b038916815287151560208201528615156040820152610100810160048710610b5557634e487b7160e01b600052602160045260246000fd5b6060820196909652608081019490945260a084019290925260c083015260e0909101529392505050565b634e487b7160e01b600052601160045260246000fd5b600060018201610ba757610ba7610b7f565b5060010190565b80820180821115610bc157610bc1610b7f565b9291505056fea26469706673582212207fde48d101e611ef4ec55cb777ba9ef8bbf0ab4f5444f9dd6f837586caebb21464736f6c63430008120033",
  "linkReferences": {},
  "deployedLinkReferences": {}
}