{
  "_format": "hh-sol-artifact-1",
  "contractName": "TokenInfo",
  "sourceName": "contracts/market/TokenInfo.sol",
  "abi": [
    {
      "inputs": [
        {
          "internalType": "address",
          "name": "_market",
          "type": "address"
        }
      ],
      "stateMutability": "nonpayable",
      "type": "constructor"
    },
    {
      "inputs": [
        {
          "internalType": "address",
          "name": "_tokenAddress",
          "type": "address"
        }
      ],
      "name": "getAssetIdFromTokenAddress",
      "outputs": [
        {
          "internalType": "uint256",
          "name": "",
          "type": "uint256"
        }
      ],
      "stateMutability": "view",
      "type": "function"
    },
    {
      "inputs": [
        {
          "internalType": "uint256",
          "name": "_marketId",
          "type": "uint256"
        }
      ],
      "name": "getBaseTokenDecimals",
      "outputs": [
        {
          "internalType": "uint256",
          "name": "",
          "type": "uint256"
        }
      ],
      "stateMutability": "view",
      "type": "function"
    },
    {
      "inputs": [
        {
          "internalType": "uint256",
          "name": "_marketId",
          "type": "uint256"
        }
      ],
      "name": "getBaseTokenSizeToPriceBufferDeltaMultiplier",
      "outputs": [
        {
          "internalType": "uint256",
          "name": "",
          "type": "uint256"
        }
      ],
      "stateMutability": "view",
      "type": "function"
    },
    {
      "inputs": [
        {
          "internalType": "uint256",
          "name": "_assetId",
          "type": "uint256"
        }
      ],
      "name": "getSizeToPriceBufferDeltaMultiplier",
      "outputs": [
        {
          "internalType": "uint256",
          "name": "",
          "type": "uint256"
        }
      ],
      "stateMutability": "view",
      "type": "function"
    },
    {
      "inputs": [
        {
          "internalType": "uint256",
          "name": "_assetId",
          "type": "uint256"
        }
      ],
      "name": "getTokenAddressFromAssetId",
      "outputs": [
        {
          "internalType": "address",
          "name": "",
          "type": "address"
        }
      ],
      "stateMutability": "view",
      "type": "function"
    },
    {
      "inputs": [
        {
          "internalType": "uint256",
          "name": "_assetId",
          "type": "uint256"
        }
      ],
      "name": "getTokenData",
      "outputs": [
        {
          "components": [
            {
              "internalType": "uint256",
              "name": "decimals",
              "type": "uint256"
            },
            {
              "internalType": "uint256",
              "name": "sizeToPriceBufferDeltaMultiplier",
              "type": "uint256"
            },
            {
              "internalType": "address",
              "name": "tokenAddress",
              "type": "address"
            }
          ],
          "internalType": "struct TokenData",
          "name": "",
          "type": "tuple"
        }
      ],
      "stateMutability": "view",
      "type": "function"
    },
    {
      "inputs": [
        {
          "internalType": "uint256",
          "name": "_assetId",
          "type": "uint256"
        }
      ],
      "name": "getTokenDecimals",
      "outputs": [
        {
          "internalType": "uint256",
          "name": "",
          "type": "uint256"
        }
      ],
      "stateMutability": "view",
      "type": "function"
    },
    {
      "inputs": [],
      "name": "globalTokenIdCounter",
      "outputs": [
        {
          "internalType": "uint256",
          "name": "",
          "type": "uint256"
        }
      ],
      "stateMutability": "view",
      "type": "function"
    },
    {
      "inputs": [],
      "name": "market",
      "outputs": [
        {
          "internalType": "contract Market",
          "name": "",
          "type": "address"
        }
      ],
      "stateMutability": "view",
      "type": "function"
    },
    {
      "inputs": [
        {
          "internalType": "address",
          "name": "_tokenAddress",
          "type": "address"
        },
        {
          "internalType": "uint256",
          "name": "_tokenDecimals",
          "type": "uint256"
        }
      ],
      "name": "registerToken",
      "outputs": [],
      "stateMutability": "nonpayable",
      "type": "function"
    },
    {
      "inputs": [
        {
          "internalType": "uint256",
          "name": "_assetId",
          "type": "uint256"
        },
        {
          "internalType": "uint256",
          "name": "_multiplier",
          "type": "uint256"
        }
      ],
      "name": "setSizeToPriceBufferDeltaMultiplier",
      "outputs": [],
      "stateMutability": "nonpayable",
      "type": "function"
    }
  ],
  "bytecode": "0x608060405234801561001057600080fd5b5060405161065338038061065383398101604081905261002f91610054565b600080546001600160a01b0319166001600160a01b0392909216919091179055610084565b60006020828403121561006657600080fd5b81516001600160a01b038116811461007d57600080fd5b9392505050565b6105c0806100936000396000f3fe608060405234801561001057600080fd5b50600436106100a95760003560e01c8063a7de07cd11610071578063a7de07cd1461014a578063ab1d29381461015d578063b09afec114610186578063c295fa83146101c4578063d7d88f0c146101cd578063d9758b01146101e057600080fd5b806302ca5994146100ae5780631efb066a146100c35780636b9c4198146100e957806371880e1a1461010c57806380f556051461011f575b600080fd5b6100c16100bc366004610419565b6101f3565b005b6100d66100d1366004610445565b610253565b6040519081526020015b60405180910390f35b6100c16100f736600461045e565b60009182526003602052604090912060010155565b6100d661011a366004610445565b610268565b600054610132906001600160a01b031681565b6040516001600160a01b0390911681526020016100e0565b6100d6610158366004610445565b6102ed565b6100d661016b366004610480565b6001600160a01b031660009081526002602052604090205490565b610199610194366004610445565b6102ff565b604080518251815260208084015190820152918101516001600160a01b0316908201526060016100e0565b6100d660015481565b6100d66101db366004610445565b61036e565b6101326101ee366004610445565b6103ec565b6001805460008181526003602090815260408083208681556001600160a01b03881680855260029384905291842085905591820180546001600160a01b0319169091179055835492939092916102488361049d565b919050555050505050565b600061025e826102ff565b6020015192915050565b60008054604051633ec7919360e01b81526004810184905282916001600160a01b031690633ec791939060240161012060405180830381865afa1580156102b3573d6000803e3d6000fd5b505050506040513d601f19601f820116820180604052508101906102d7919061050c565b90506102e68160400151610253565b9392505050565b60006102f8826102ff565b5192915050565b61032c6040518060600160405280600081526020016000815260200160006001600160a01b031681525090565b50600090815260036020908152604091829020825160608101845281548152600182015492810192909252600201546001600160a01b03169181019190915290565b60008054604051633ec7919360e01b81526004810184905282916001600160a01b031690633ec791939060240161012060405180830381865afa1580156103b9573d6000803e3d6000fd5b505050506040513d601f19601f820116820180604052508101906103dd919061050c565b90506102e681604001516102ed565b60006103f7826102ff565b6040015192915050565b6001600160a01b038116811461041657600080fd5b50565b6000806040838503121561042c57600080fd5b823561043781610401565b946020939093013593505050565b60006020828403121561045757600080fd5b5035919050565b6000806040838503121561047157600080fd5b50508035926020909101359150565b60006020828403121561049257600080fd5b81356102e681610401565b6000600182016104bd57634e487b7160e01b600052601160045260246000fd5b5060010190565b604051610120810167ffffffffffffffff811182821017156104f657634e487b7160e01b600052604160045260246000fd5b60405290565b805161050781610401565b919050565b6000610120828403121561051f57600080fd5b6105276104c4565b825181526020830151602082015260408301516040820152606083015160608201526080830151608082015260a083015160a082015260c083015160c082015260e083015160e082015261010061057f8185016104fc565b90820152939250505056fea264697066735822122023666adff029d38c7514c54ed50b9a5432c9a0fb1e70b6675af58d63d97bb94364736f6c63430008120033",
  "linkReferences": {},
  "deployedLinkReferences": {}
}