{
  "_format": "hh-sol-artifact-1",
  "contractName": "RisePool",
  "sourceName": "contracts/risepool/RisePool.sol",
  "abi": [
    {
      "inputs": [
        {
          "internalType": "uint256",
          "name": "_marketId",
          "type": "uint256"
        },
        {
          "internalType": "bool",
          "name": "_isLongReserve",
          "type": "bool"
        },
        {
          "internalType": "uint256",
          "name": "_amount",
          "type": "uint256"
        }
      ],
      "name": "addLiquidity",
      "outputs": [],
      "stateMutability": "nonpayable",
      "type": "function"
    },
    {
      "inputs": [
        {
          "internalType": "uint256",
          "name": "_marketId",
          "type": "uint256"
        },
        {
          "internalType": "uint256",
          "name": "_amount",
          "type": "uint256"
        }
      ],
      "name": "decreaseLongPoolAmount",
      "outputs": [],
      "stateMutability": "nonpayable",
      "type": "function"
    },
    {
      "inputs": [
        {
          "internalType": "uint256",
          "name": "_marketId",
          "type": "uint256"
        },
        {
          "internalType": "uint256",
          "name": "_amount",
          "type": "uint256"
        }
      ],
      "name": "decreaseLongReserveAmount",
      "outputs": [],
      "stateMutability": "nonpayable",
      "type": "function"
    },
    {
      "inputs": [
        {
          "internalType": "uint256",
          "name": "_marketId",
          "type": "uint256"
        },
        {
          "internalType": "uint256",
          "name": "_amount",
          "type": "uint256"
        }
      ],
      "name": "decreaseShortPoolAmount",
      "outputs": [],
      "stateMutability": "nonpayable",
      "type": "function"
    },
    {
      "inputs": [
        {
          "internalType": "uint256",
          "name": "_marketId",
          "type": "uint256"
        },
        {
          "internalType": "uint256",
          "name": "_amount",
          "type": "uint256"
        }
      ],
      "name": "decreaseShortReserveAmount",
      "outputs": [],
      "stateMutability": "nonpayable",
      "type": "function"
    },
    {
      "inputs": [
        {
          "internalType": "uint256",
          "name": "_marketId",
          "type": "uint256"
        }
      ],
      "name": "getLongPoolAmount",
      "outputs": [
        {
          "internalType": "uint256",
          "name": "",
          "type": "uint256"
        }
      ],
      "stateMutability": "view",
      "type": "function"
    },
    {
      "inputs": [
        {
          "internalType": "uint256",
          "name": "_marketId",
          "type": "uint256"
        }
      ],
      "name": "getLongPoolCapacity",
      "outputs": [
        {
          "internalType": "uint256",
          "name": "",
          "type": "uint256"
        }
      ],
      "stateMutability": "view",
      "type": "function"
    },
    {
      "inputs": [
        {
          "internalType": "uint256",
          "name": "_marketId",
          "type": "uint256"
        }
      ],
      "name": "getLongReserveAmount",
      "outputs": [
        {
          "internalType": "uint256",
          "name": "",
          "type": "uint256"
        }
      ],
      "stateMutability": "view",
      "type": "function"
    },
    {
      "inputs": [
        {
          "internalType": "uint256",
          "name": "_marketId",
          "type": "uint256"
        }
      ],
      "name": "getShortPoolAmount",
      "outputs": [
        {
          "internalType": "uint256",
          "name": "",
          "type": "uint256"
        }
      ],
      "stateMutability": "view",
      "type": "function"
    },
    {
      "inputs": [
        {
          "internalType": "uint256",
          "name": "_marketId",
          "type": "uint256"
        }
      ],
      "name": "getShortPoolCapacity",
      "outputs": [
        {
          "internalType": "uint256",
          "name": "",
          "type": "uint256"
        }
      ],
      "stateMutability": "view",
      "type": "function"
    },
    {
      "inputs": [
        {
          "internalType": "uint256",
          "name": "_marketId",
          "type": "uint256"
        }
      ],
      "name": "getShortReserveAmount",
      "outputs": [
        {
          "internalType": "uint256",
          "name": "",
          "type": "uint256"
        }
      ],
      "stateMutability": "view",
      "type": "function"
    },
    {
      "inputs": [
        {
          "internalType": "uint256",
          "name": "_marketId",
          "type": "uint256"
        },
        {
          "internalType": "uint256",
          "name": "_amount",
          "type": "uint256"
        }
      ],
      "name": "increaseLongPoolAmount",
      "outputs": [],
      "stateMutability": "nonpayable",
      "type": "function"
    },
    {
      "inputs": [
        {
          "internalType": "uint256",
          "name": "_marketId",
          "type": "uint256"
        },
        {
          "internalType": "uint256",
          "name": "_amount",
          "type": "uint256"
        }
      ],
      "name": "increaseLongReserveAmount",
      "outputs": [],
      "stateMutability": "nonpayable",
      "type": "function"
    },
    {
      "inputs": [
        {
          "internalType": "uint256",
          "name": "_marketId",
          "type": "uint256"
        },
        {
          "internalType": "uint256",
          "name": "_amount",
          "type": "uint256"
        }
      ],
      "name": "increaseShortPoolAmount",
      "outputs": [],
      "stateMutability": "nonpayable",
      "type": "function"
    },
    {
      "inputs": [
        {
          "internalType": "uint256",
          "name": "_marketId",
          "type": "uint256"
        },
        {
          "internalType": "uint256",
          "name": "_amount",
          "type": "uint256"
        }
      ],
      "name": "increaseShortReserveAmount",
      "outputs": [],
      "stateMutability": "nonpayable",
      "type": "function"
    },
    {
      "inputs": [
        {
          "internalType": "uint256",
          "name": "_marketId",
          "type": "uint256"
        },
        {
          "internalType": "bool",
          "name": "_isLongReserve",
          "type": "bool"
        },
        {
          "internalType": "uint256",
          "name": "_amount",
          "type": "uint256"
        }
      ],
      "name": "removeLiquidity",
      "outputs": [],
      "stateMutability": "nonpayable",
      "type": "function"
    }
  ],
  "bytecode": "0x608060405234801561001057600080fd5b506106e9806100206000396000f3fe608060405234801561001057600080fd5b50600436106100e05760003560e01c806375348afd1161008757806375348afd1461019e57806385c88f80146101b15780638a4cc1e5146101c45780639ea38d88146101e4578063b4faf0d3146101f7578063dc4ae3001461020a578063e7e38f051461021d578063fa14c3961461023d57600080fd5b80630fb175a9146100e557806334903f50146100fa578063396d89ea1461010d57806346c3ef9d146101205780636597bc9a1461013357806367d8abfa146101465780636dfeed1c1461016b5780636f4d643c1461017e575b600080fd5b6100f86100f3366004610529565b61025d565b005b6100f8610108366004610566565b61027b565b6100f861011b366004610566565b6102d9565b6100f861012e366004610566565b61033e565b6100f8610141366004610529565b6103a3565b610159610154366004610588565b6103bc565b60405190815260200160405180910390f35b6100f8610179366004610566565b6103e5565b61015961018c366004610588565b60009081526002602052604090205490565b6101596101ac366004610588565b610403565b6100f86101bf366004610566565b610427565b6101596101d2366004610588565b60009081526001602052604090205490565b6100f86101f2366004610566565b610473565b6100f8610205366004610566565b610491565b6100f8610218366004610566565b6104dd565b61015961022b366004610588565b60009081526003602052604090205490565b61015961024b366004610588565b60009081526020819052604090205490565b816102715761026c838261027b565b505050565b61026c83826104dd565b6000828152600160205260409020548111156102b25760405162461bcd60e51b81526004016102a9906105a1565b60405180910390fd5b600082815260016020526040812080548392906102d09084906105fe565b90915550505050565b6000828152600260205260409020546102f3908290610611565b60008381526020819052604090205410156103205760405162461bcd60e51b81526004016102a990610624565b600082815260026020526040812080548392906102d0908490610611565b600082815260036020526040902054610358908290610611565b60008381526001602052604090205410156103855760405162461bcd60e51b81526004016102a990610624565b600082815260036020526040812080548392906102d0908490610611565b816103b25761026c8382610473565b61026c83826103e5565b600081815260026020908152604080832054918390528220546103df91906105fe565b92915050565b600082815260208190526040812080548392906102d0908490610611565b60008181526003602090815260408083205460019092528220546103df91906105fe565b6000828152600360205260409020548111156104555760405162461bcd60e51b81526004016102a99061066a565b600082815260036020526040812080548392906102d09084906105fe565b600082815260016020526040812080548392906102d0908490610611565b6000828152600260205260409020548111156104bf5760405162461bcd60e51b81526004016102a99061066a565b600082815260026020526040812080548392906102d09084906105fe565b60008281526020819052604090205481111561050b5760405162461bcd60e51b81526004016102a9906105a1565b600082815260208190526040812080548392906102d09084906105fe565b60008060006060848603121561053e57600080fd5b833592506020840135801515811461055557600080fd5b929592945050506040919091013590565b6000806040838503121561057957600080fd5b50508035926020909101359150565b60006020828403121561059a57600080fd5b5035919050565b60208082526027908201527f52697365506f6f6c3a204e6f7420656e6f75676820746f6b656e20706f6f6c2060408201526617d85b5bdd5b9d60ca1b606082015260800190565b634e487b7160e01b600052601160045260246000fd5b818103818111156103df576103df6105e8565b808201808211156103df576103df6105e8565b60208082526026908201527f52697365506f6f6c3a204e6f7420656e6f75676820746f6b656e20706f6f6c20604082015265185b5bdd5b9d60d21b606082015260800190565b60208082526029908201527f52697365506f6f6c3a204e6f7420656e6f75676820746f6b656e2072657365726040820152681d9948185b5bdd5b9d60ba1b60608201526080019056fea2646970667358221220a6e7262735b4b916564612485348b319ecf08ed70ca74ecc3d0e08b3760b333e64736f6c63430008120033",
  "linkReferences": {},
  "deployedLinkReferences": {}
}