{
  "_format": "hh-sol-artifact-1",
  "contractName": "RisePoolUtils",
  "sourceName": "contracts/risepool/RisePoolUtils.sol",
  "abi": [
    {
      "inputs": [],
      "name": "getMintAmount",
      "outputs": [
        {
          "internalType": "uint256",
          "name": "",
          "type": "uint256"
        }
      ],
      "stateMutability": "nonpayable",
      "type": "function"
    }
  ],
  "bytecode": "0x6080604052348015600f57600080fd5b50607780601d6000396000f3fe6080604052348015600f57600080fd5b506004361060285760003560e01c8063a8995deb14602d575b600080fd5b600060405190815260200160405180910390f3fea2646970667358221220ddeab606727c4e5e645b7e55b931ca5e23b2a825c168a913e890a0b19c0d826464736f6c63430008120033",
  "linkReferences": {},
  "deployedLinkReferences": {}
}