{
  "_format": "hh-sol-artifact-1",
  "contractName": "MarketOrder",
  "sourceName": "contracts/order/MarketOrder.sol",
  "abi": [
    {
      "inputs": [
        {
          "internalType": "address",
          "name": "_traderVault",
          "type": "address"
        },
        {
          "internalType": "address",
          "name": "_risePool",
          "type": "address"
        },
        {
          "internalType": "address",
          "name": "_funding",
          "type": "address"
        },
        {
          "internalType": "address",
          "name": "_market",
          "type": "address"
        },
        {
          "internalType": "address",
          "name": "_positionHistory",
          "type": "address"
        },
        {
          "internalType": "address",
          "name": "_positionVault",
          "type": "address"
        },
        {
          "internalType": "address",
          "name": "_orderValidator",
          "type": "address"
        },
        {
          "internalType": "address",
          "name": "_orderHistory",
          "type": "address"
        },
        {
          "internalType": "address",
          "name": "_priceFetcher",
          "type": "address"
        },
        {
          "internalType": "address",
          "name": "_globalState",
          "type": "address"
        },
        {
          "internalType": "address",
          "name": "_positionFee",
          "type": "address"
        }
      ],
      "stateMutability": "nonpayable",
      "type": "constructor"
    },
    {
      "inputs": [
        {
          "components": [
            {
              "internalType": "address",
              "name": "trader",
              "type": "address"
            },
            {
              "internalType": "bool",
              "name": "isLong",
              "type": "bool"
            },
            {
              "internalType": "bool",
              "name": "isIncrease",
              "type": "bool"
            },
            {
              "internalType": "enum OrderType",
              "name": "orderType",
              "type": "uint8"
            },
            {
              "internalType": "uint256",
              "name": "marketId",
              "type": "uint256"
            },
            {
              "internalType": "uint256",
              "name": "sizeAbs",
              "type": "uint256"
            },
            {
              "internalType": "uint256",
              "name": "marginAbs",
              "type": "uint256"
            },
            {
              "internalType": "uint256",
              "name": "limitPrice",
              "type": "uint256"
            }
          ],
          "internalType": "struct OrderRequest",
          "name": "req",
          "type": "tuple"
        }
      ],
      "name": "executeMarketOrder",
      "outputs": [
        {
          "internalType": "bytes32",
          "name": "",
          "type": "bytes32"
        }
      ],
      "stateMutability": "nonpayable",
      "type": "function"
    },
    {
      "inputs": [],
      "name": "funding",
      "outputs": [
        {
          "internalType": "contract Funding",
          "name": "",
          "type": "address"
        }
      ],
      "stateMutability": "view",
      "type": "function"
    },
    {
      "inputs": [],
      "name": "globalState",
      "outputs": [
        {
          "internalType": "contract GlobalState",
          "name": "",
          "type": "address"
        }
      ],
      "stateMutability": "view",
      "type": "function"
    },
    {
      "inputs": [],
      "name": "market",
      "outputs": [
        {
          "internalType": "contract Market",
          "name": "",
          "type": "address"
        }
      ],
      "stateMutability": "view",
      "type": "function"
    },
    {
      "inputs": [],
      "name": "orderHistory",
      "outputs": [
        {
          "internalType": "contract OrderHistory",
          "name": "",
          "type": "address"
        }
      ],
      "stateMutability": "view",
      "type": "function"
    },
    {
      "inputs": [],
      "name": "orderValidator",
      "outputs": [
        {
          "internalType": "contract OrderValidator",
          "name": "",
          "type": "address"
        }
      ],
      "stateMutability": "view",
      "type": "function"
    },
    {
      "inputs": [],
      "name": "positionFee",
      "outputs": [
        {
          "internalType": "contract PositionFee",
          "name": "",
          "type": "address"
        }
      ],
      "stateMutability": "view",
      "type": "function"
    },
    {
      "inputs": [],
      "name": "positionHistory",
      "outputs": [
        {
          "internalType": "contract PositionHistory",
          "name": "",
          "type": "address"
        }
      ],
      "stateMutability": "view",
      "type": "function"
    },
    {
      "inputs": [],
      "name": "positionVault",
      "outputs": [
        {
          "internalType": "contract PositionVault",
          "name": "",
          "type": "address"
        }
      ],
      "stateMutability": "view",
      "type": "function"
    },
    {
      "inputs": [],
      "name": "priceFetcher",
      "outputs": [
        {
          "internalType": "contract PriceFetcher",
          "name": "",
          "type": "address"
        }
      ],
      "stateMutability": "view",
      "type": "function"
    },
    {
      "inputs": [],
      "name": "risePool",
      "outputs": [
        {
          "internalType": "contract RisePool",
          "name": "",
          "type": "address"
        }
      ],
      "stateMutability": "view",
      "type": "function"
    },
    {
      "inputs": [
        {
          "components": [
            {
              "internalType": "address",
              "name": "trader",
              "type": "address"
            },
            {
              "internalType": "bool",
              "name": "isLong",
              "type": "bool"
            },
            {
              "internalType": "int256",
              "name": "unrealizedPnl",
              "type": "int256"
            },
            {
              "internalType": "uint256",
              "name": "currentPositionRecordId",
              "type": "uint256"
            },
            {
              "internalType": "uint256",
              "name": "marketId",
              "type": "uint256"
            },
            {
              "internalType": "uint256",
              "name": "size",
              "type": "uint256"
            },
            {
              "internalType": "uint256",
              "name": "margin",
              "type": "uint256"
            },
            {
              "internalType": "uint256",
              "name": "avgOpenPrice",
              "type": "uint256"
            },
            {
              "internalType": "uint256",
              "name": "lastUpdatedTime",
              "type": "uint256"
            },
            {
              "internalType": "int256",
              "name": "avgEntryFundingIndex",
              "type": "int256"
            }
          ],
          "internalType": "struct OpenPosition",
          "name": "_position",
          "type": "tuple"
        },
        {
          "internalType": "bool",
          "name": "_isLong",
          "type": "bool"
        },
        {
          "internalType": "uint256",
          "name": "_executionPrice",
          "type": "uint256"
        },
        {
          "internalType": "uint256",
          "name": "_marketId",
          "type": "uint256"
        },
        {
          "internalType": "uint256",
          "name": "_sizeAbs",
          "type": "uint256"
        },
        {
          "internalType": "uint256",
          "name": "_marginAbs",
          "type": "uint256"
        }
      ],
      "name": "settlePnL",
      "outputs": [
        {
          "internalType": "int256",
          "name": "",
          "type": "int256"
        }
      ],
      "stateMutability": "nonpayable",
      "type": "function"
    },
    {
      "inputs": [],
      "name": "traderVault",
      "outputs": [
        {
          "internalType": "contract TraderVault",
          "name": "",
          "type": "address"
        }
      ],
      "stateMutability": "view",
      "type": "function"
    }
  ],
  "bytecode": "0x60806040523480156200001157600080fd5b5060405162001ff038038062001ff0833981016040819052620000349162000115565b600080546001600160a01b03199081166001600160a01b039d8e16179091556001805482169b8d169b909b17909a55600280548b16998c1699909917909855600380548a16978b1697909717909655600480548916958a16959095179094556005805488169389169390931790925560068054871695881695909517909455600780548616948716949094179093556008805485169386169390931790925560098054841692851692909217909155600a80549092169216919091179055620001f8565b80516001600160a01b03811681146200011057600080fd5b919050565b60008060008060008060008060008060006101608c8e0312156200013857600080fd5b620001438c620000f8565b9a506200015360208d01620000f8565b99506200016360408d01620000f8565b98506200017360608d01620000f8565b97506200018360808d01620000f8565b96506200019360a08d01620000f8565b9550620001a360c08d01620000f8565b9450620001b360e08d01620000f8565b9350620001c46101008d01620000f8565b9250620001d56101208d01620000f8565b9150620001e66101408d01620000f8565b90509295989b509295989b9093969950565b611de880620002086000396000f3fe608060405234801561001057600080fd5b50600436106100bf5760003560e01c806380f556051161007c57806380f55605146101535780638c22bdb41461016657806398654aff14610187578063b728ffbc1461019a578063c8a8da06146101ad578063cb4c86b7146101c0578063e76c01e4146101d357600080fd5b80630dbc9ce1146100c45780631e71615b146100f45780632421d7261461010757806351ed0ee31461011a5780635737e1961461012d5780637411e99f14610140575b600080fd5b6006546100d7906001600160a01b031681565b6040516001600160a01b0390911681526020015b60405180910390f35b6008546100d7906001600160a01b031681565b6009546100d7906001600160a01b031681565b6000546100d7906001600160a01b031681565b6007546100d7906001600160a01b031681565b6001546100d7906001600160a01b031681565b6003546100d7906001600160a01b031681565b610179610174366004611652565b6101e6565b6040519081526020016100eb565b6005546100d7906001600160a01b031681565b6004546100d7906001600160a01b031681565b6101796101bb366004611716565b6108da565b6002546100d7906001600160a01b031681565b600a546100d7906001600160a01b031681565b60006101f061159d565b60808301356060820181905260a0808501359083015260c08085013590830152600354604051633ec7919360e01b815260048101929092526001600160a01b031690633ec791939060240161012060405180830381865afa158015610259573d6000803e3d6000fd5b505050506040513d601f19601f8201168201806040525081019061027d9190611800565b60c0015160808083019190915260095460a08301516001600160a01b039091169163d95a48729190860135906102b9606088016040890161187e565b15156102cb6040890160208a0161187e565b6040516001600160e01b031960e087901b16815260048101949094526024840192909252901515146044820152606401602060405180830381865afa158015610318573d6000803e3d6000fd5b505050506040513d601f19601f8201168201806040525081019061033c91906118a2565b61010082015273__$18943158f75973db0541c3d7c8650b2485$__6312b6c3b43261036d604087016020880161187e565b6040516001600160e01b031960e085901b1681526001600160a01b0390921660048301521515602482015260808601356044820152606401602060405180830381865af41580156103c2573d6000803e3d6000fd5b505050506040513d601f19601f820116820180604052508101906103e691906118a2565b6040808301919091526103ff906060850190850161187e565b61046e576007546040808301519051632675e8a160e21b81526001600160a01b03909216916399d7a2849161043991879190600401611991565b60006040518083038186803b15801561045157600080fd5b505afa158015610465573d6000803e3d6000fd5b505050506104cf565b60075460405163c057757f60e01b81526001600160a01b039091169063c057757f9061049e9086906004016119ae565b60006040518083038186803b1580156104b657600080fd5b505afa1580156104ca573d6000803e3d6000fd5b505050505b6005546040808301519051631928b3cb60e01b81526001600160a01b0390921691631928b3cb916105069160040190815260200190565b61014060405180830381865afa158015610524573d6000803e3d6000fd5b505050506040513d601f19601f8201168201806040525081019061054891906119ce565b80825260a001511580156105675750610567606084016040850161187e565b1561058b576000602082015261058b61058536859003850185611a63565b82610c46565b805160a00151158015906105aa57506105aa606084016040850161187e565b156105c857600160208201526105c861058536859003850185611a63565b805160a00151158015906105e957506105e7606084016040850161187e565b155b80156106015750806000015160a001518160a0015114155b15610625576002602082015261062561061f36859003850185611a63565b826111e4565b805160a00151158015906106465750610644606084016040850161187e565b155b801561065d5750806000015160a001518160a00151145b1561067b576003602082015261067b61061f36859003850185611a63565b6008546040805161012081019091523281526001600160a01b0390911690636dfd5b3b9060208101600081526020018660200160208101906106bd919061187e565b151581526020016106d4606088016040890161187e565b151581526020018460e001518152602001866080013581526020018460a0015181526020018460c0015181526020018461010001518152506040518263ffffffff1660e01b81526004016107289190611b22565b600060405180830381600087803b15801561074257600080fd5b505af1158015610756573d6000803e3d6000fd5b5061076b92505050604084016020850161187e565b1561082257600a546040805160a0810182526001600160a01b039092169163d3cac64d9181906107a1906060890190890161187e565b15158152602001866080013581526020018460a0015181526020018460c0015181526020018461010001518152506040518263ffffffff1660e01b81526004016107eb9190611bac565b600060405180830381600087803b15801561080557600080fd5b505af1158015610819573d6000803e3d6000fd5b505050506108d0565b600a546040805160a0810182526001600160a01b039092169163f4e79e2d918190610853906060890190890161187e565b15158152602001866080013581526020018460a0015181526020018460c0015181526020018461010001518152506040518263ffffffff1660e01b815260040161089d9190611bac565b600060405180830381600087803b1580156108b757600080fd5b505af11580156108cb573d6000803e3d6000fd5b505050505b6040015192915050565b600354604051633ec7919360e01b81526004810185905260009182916001600160a01b0390911690633ec791939060240161012060405180830381865afa158015610929573d6000803e3d6000fd5b505050506040513d601f19601f8201168201806040525081019061094d9190611800565b60e0890151604051632d43eefb60e01b8152600481018790526024810191909152604481018890528815156064820152909150600090819073__$e8652f61bc11c22d415b40de743c60e742$__90632d43eefb90608401602060405180830381865af41580156109c1573d6000803e3d6000fd5b505050506040513d601f19601f820116820180604052508101906109e591906118a2565b6000548b5160c086015160405163df486d1f60e01b81529394506001600160a01b039092169263df486d1f92610a2092918a90600401611be8565b600060405180830381600087803b158015610a3a57600080fd5b505af1158015610a4e573d6000803e3d6000fd5b5050505088610ac15760015460405163010b911f60e71b815260048101899052602481018890526001600160a01b03909116906385c88f8090604401600060405180830381600087803b158015610aa457600080fd5b505af1158015610ab8573d6000803e3d6000fd5b50505050610b27565b60015460405163b4faf0d360e01b815260048101899052602481018890526001600160a01b039091169063b4faf0d390604401600060405180830381600087803b158015610b0e57600080fd5b505af1158015610b22573d6000803e3d6000fd5b505050505b6000610b338383611c1f565b90506000811215610bc1576000548b5160c08601516001600160a01b0390921691630b665acb9190610b6c610b6786611c46565b611547565b6040518463ffffffff1660e01b8152600401610b8a93929190611be8565b600060405180830381600087803b158015610ba457600080fd5b505af1158015610bb8573d6000803e3d6000fd5b50505050610c38565b6000548b5160c08601516001600160a01b039092169163df486d1f9190610be785611547565b6040518463ffffffff1660e01b8152600401610c0593929190611be8565b600060405180830381600087803b158015610c1f57600080fd5b505af1158015610c33573d6000803e3d6000fd5b505050505b9a9950505050505050505050565b60065460a082015161010083015160808401516060860151604051633829543560e01b81526001600160a01b0390951694633829543594610c8f94329491939092600401611c62565b600060405180830381600087803b158015610ca957600080fd5b505af1158015610cbd573d6000803e3d6000fd5b5050600054608084015160c0850151604051630b665acb60e01b81526001600160a01b039093169450630b665acb9350610cfd9232929190600401611be8565b600060405180830381600087803b158015610d1757600080fd5b505af1158015610d2b573d6000803e3d6000fd5b505050508160200151610dab57600154606082015160a08301516040516346c3ef9d60e01b8152600481019290925260248201526001600160a01b03909116906346c3ef9d90604401600060405180830381600087803b158015610d8e57600080fd5b505af1158015610da2573d6000803e3d6000fd5b50505050610e1a565b600154606082015160a0830151604051631cb6c4f560e11b8152600481019290925260248201526001600160a01b039091169063396d89ea90604401600060405180830381600087803b158015610e0157600080fd5b505af1158015610e15573d6000803e3d6000fd5b505050505b600081602001516003811115610e3257610e326118ca565b03610ffb576004805460408051608080820183523282528601516020820190815260a0860151828401908152610100870151606084019081529351633f74b61b60e11b815292516001600160a01b03908116968401969096529051602483015251604482015290516064820152911690637ee96c36906084016020604051808303816000875af1158015610eca573d6000803e3d6000fd5b505050506040513d601f19601f82011682018060405250810190610eee91906118a2565b60e082015260055460408051610180810190915260208301516001600160a01b039092169163d9b34d0e919081906003811115610f2d57610f2d6118ca565b815260200184604001518152602001600115158152602001326001600160a01b031681526020018560200151151581526020018460e0015181526020018560800151815260200184610100015181526020018460a0015181526020018460c001518152602001856040015115158152602001856040015115158152506040518263ffffffff1660e01b8152600401610fc59190611ca0565b600060405180830381600087803b158015610fdf57600080fd5b505af1158015610ff3573d6000803e3d6000fd5b505050505050565b600181602001516003811115611013576110136118ca565b0361119e5780516060015160e082015260055460408051610180810190915260208301516001600160a01b039092169163d9b34d0e91908190600381111561105d5761105d6118ca565b815260200184604001518152602001600015158152602001326001600160a01b031681526020018560200151151581526020018460e0015181526020018560800151815260200184610100015181526020018460a0015181526020018460c001518152602001856040015115158152602001856040015115158152506040518263ffffffff1660e01b81526004016110f59190611ca0565b600060405180830381600087803b15801561110f57600080fd5b505af1158015611123573d6000803e3d6000fd5b5050600480546040805160e08082018352328252878301516020830152870151818301528782015115156060820152610120870151608082015260a0808801519082015261010087015160c082015290516315af5e8f60e01b81526001600160a01b0390921694506315af5e8f9350610fc592909101611d5e565b60405162461bcd60e51b8152602060048201526016602482015275496e76616c696420657865637574696f6e207479706560501b60448201526064015b60405180910390fd5b60065460a082015161010083015160808401516060860151604051633829543560e01b81526001600160a01b039095169463382954359461122d94329491939092600401611c62565b600060405180830381600087803b15801561124757600080fd5b505af115801561125b573d6000803e3d6000fd5b505050506112868160000151836020015183610100015185608001518560a001518660c001516108da565b61012082015280516060015160e08201526002816020015160038111156112af576112af6118ca565b036114325760055460408051610180810190915260208301516001600160a01b039092169163d9b34d0e9190819060038111156112ee576112ee6118ca565b815260200184604001518152602001600015158152602001326001600160a01b031681526020018560200151151581526020018460e0015181526020018560800151815260200184610100015181526020018460a0015181526020018460c001518152602001856040015115158152602001856040015115158152506040518263ffffffff1660e01b81526004016113869190611ca0565b600060405180830381600087803b1580156113a057600080fd5b505af11580156113b4573d6000803e3d6000fd5b5050600480546040805160e08101825232815286820151602082015286516060908101518284015288830151151590820152610120870151608082015260a0808801519082015261010087015160c082015290516315af5e8f60e01b81526001600160a01b0390921694506315af5e8f9350610fc592909101611d5e565b60038160200151600381111561144a5761144a6118ca565b0361119e576005546040808301519051634ca0d05960e11b81526001600160a01b0390921691639941a0b2916114869160040190815260200190565b600060405180830381600087803b1580156114a057600080fd5b505af11580156114b4573d6000803e3d6000fd5b5050600480546040805160a080820183523282528751606090810151602084019081526101208a0151848601908152928a01519184019182526101008a01516080850190815294516315d2cae360e11b815293516001600160a01b0390811697850197909752516024840152905160448301525160648201529051608482015291169250632ba595c6915060a401610fc5565b6000808212156115995760405162461bcd60e51b815260206004820181905260248201527f53616665436173743a2076616c7565206d75737420626520706f73697469766560448201526064016111db565b5090565b60405180610140016040528061160a60405180610140016040528060006001600160a01b0316815260200160001515815260200160008152602001600081526020016000815260200160008152602001600081526020016000815260200160008152602001600081525090565b81526020016000815260200160008019168152602001600081526020016000815260200160008152602001600081526020016000815260200160008152602001600081525090565b6000610100828403121561166557600080fd5b50919050565b604051610140810167ffffffffffffffff8111828210171561169d57634e487b7160e01b600052604160045260246000fd5b60405290565b604051610120810167ffffffffffffffff8111828210171561169d57634e487b7160e01b600052604160045260246000fd5b6001600160a01b03811681146116ea57600080fd5b50565b80356116f8816116d5565b919050565b80151581146116ea57600080fd5b80356116f8816116fd565b6000806000806000808688036101e081121561173157600080fd5b6101408082121561174157600080fd5b61174961166b565b9150611754896116ed565b825261176260208a0161170b565b602083015260408901356040830152606089013560608301526080890135608083015260a089013560a083015260c089013560c083015260e089013560e0830152610100808a01358184015250610120808a013581840152508197506117c9818a0161170b565b979a97995050505061016086013595610180810135956101a082013595506101c0909101359350915050565b80516116f8816116d5565b6000610120828403121561181357600080fd5b61181b6116a3565b825181526020830151602082015260408301516040820152606083015160608201526080830151608082015260a083015160a082015260c083015160c082015260e083015160e08201526101006118738185016117f5565b908201529392505050565b60006020828403121561189057600080fd5b813561189b816116fd565b9392505050565b6000602082840312156118b457600080fd5b5051919050565b8035600481106116f857600080fd5b634e487b7160e01b600052602160045260246000fd5b600481106116ea57634e487b7160e01b600052602160045260246000fd5b611907816118e0565b9052565b8035611916816116d5565b6001600160a01b03168252602081013561192f816116fd565b151560208301526040810135611944816116fd565b15156040830152611957606082016118bb565b61196460608401826118fe565b506080810135608083015260a081013560a083015260c081013560c083015260e081013560e08301525050565b61012081016119a0828561190b565b826101008301529392505050565b61010081016119bd828461190b565b92915050565b80516116f8816116fd565b600061014082840312156119e157600080fd5b6119e961166b565b6119f2836117f5565b8152611a00602084016119c3565b602082015260408301516040820152606083015160608201526080830151608082015260a083015160a082015260c083015160c082015260e083015160e08201526101008084015181830152506101208084015181830152508091505092915050565b6000610100808385031215611a7757600080fd5b6040519081019067ffffffffffffffff82118183101715611aa857634e487b7160e01b600052604160045260246000fd5b8160405283359150611ab9826116d5565b818152611ac86020850161170b565b6020820152611ad96040850161170b565b6040820152611aea606085016118bb565b60608201526080840135608082015260a084013560a082015260c084013560c082015260e084013560e0820152809250505092915050565b81516001600160a01b031681526020820151610120820190611b43816118e0565b806020840152506040830151611b5d604084018215159052565b506060830151611b71606084018215159052565b506080830151608083015260a083015160a083015260c083015160c083015260e083015160e083015261010080840151818401525092915050565b600060a0820190508251151582526020830151602083015260408301516040830152606083015160608301526080830151608083015292915050565b6001600160a01b039390931683526020830191909152604082015260600190565b634e487b7160e01b600052601160045260246000fd5b8181036000831280158383131683831282161715611c3f57611c3f611c09565b5092915050565b6000600160ff1b8201611c5b57611c5b611c09565b5060000390565b6001600160a01b038616815260208101859052604081018490526060810183905260a08101611c90836118e0565b8260808301529695505050505050565b600061018082019050611cb48284516118fe565b602083015160208301526040830151611cd1604084018215159052565b506060830151611cec60608401826001600160a01b03169052565b506080830151611d00608084018215159052565b5060a083015160a083015260c083015160c083015260e083015160e083015261010080840151818401525061012080840151818401525061014080840151611d4b8285018215159052565b5050610160928301511515919092015290565b81516001600160a01b0316815260208083015190820152604080830151908201526060808301511515908201526080808301519082015260a0828101519082015260c0918201519181019190915260e0019056fea2646970667358221220b61706d32ffa9e25fc0487ebc6b3c5ad010a9babae7835e3ae2f664b335d06a864736f6c63430008120033",
  "linkReferences": {
    "contracts/order/OrderUtils.sol": {
      "OrderUtils": [
        {
          "length": 20,
          "start": 1356
        }
      ]
    },
    "contracts/position/PnlUtils.sol": {
      "PnlUtils": [
        {
          "length": 20,
          "start": 2959
        }
      ]
    }
  },
  "deployedLinkReferences": {
    "contracts/order/OrderUtils.sol": {
      "OrderUtils": [
        {
          "length": 20,
          "start": 836
        }
      ]
    },
    "contracts/position/PnlUtils.sol": {
      "PnlUtils": [
        {
          "length": 20,
          "start": 2439
        }
      ]
    }
  }
}