{
  "_format": "hh-sol-artifact-1",
  "contractName": "MarketOrder",
  "sourceName": "contracts/order/MarketOrder.sol",
  "abi": [
    {
      "inputs": [
        {
          "internalType": "address",
          "name": "_traderVault",
          "type": "address"
        },
        {
          "internalType": "address",
          "name": "_risePool",
          "type": "address"
        },
        {
          "internalType": "address",
          "name": "_market",
          "type": "address"
        },
        {
          "internalType": "address",
          "name": "_positionHistory",
          "type": "address"
        },
        {
          "internalType": "address",
          "name": "_positionVault",
          "type": "address"
        },
        {
          "internalType": "address",
          "name": "_orderHistory",
          "type": "address"
        },
        {
          "internalType": "address",
          "name": "_priceFetcher",
          "type": "address"
        },
        {
          "internalType": "address",
          "name": "_globalState",
          "type": "address"
        }
      ],
      "stateMutability": "nonpayable",
      "type": "constructor"
    },
    {
      "inputs": [
        {
          "components": [
            {
              "internalType": "address",
              "name": "trader",
              "type": "address"
            },
            {
              "internalType": "bool",
              "name": "isLong",
              "type": "bool"
            },
            {
              "internalType": "bool",
              "name": "isIncrease",
              "type": "bool"
            },
            {
              "internalType": "enum OrderType",
              "name": "orderType",
              "type": "uint8"
            },
            {
              "internalType": "uint256",
              "name": "marketId",
              "type": "uint256"
            },
            {
              "internalType": "uint256",
              "name": "sizeAbs",
              "type": "uint256"
            },
            {
              "internalType": "uint256",
              "name": "marginAbs",
              "type": "uint256"
            },
            {
              "internalType": "uint256",
              "name": "limitPrice",
              "type": "uint256"
            }
          ],
          "internalType": "struct OrderRequest",
          "name": "req",
          "type": "tuple"
        }
      ],
      "name": "executeMarketOrder",
      "outputs": [
        {
          "internalType": "bytes32",
          "name": "",
          "type": "bytes32"
        }
      ],
      "stateMutability": "nonpayable",
      "type": "function"
    },
    {
      "inputs": [],
      "name": "globalState",
      "outputs": [
        {
          "internalType": "contract GlobalState",
          "name": "",
          "type": "address"
        }
      ],
      "stateMutability": "view",
      "type": "function"
    },
    {
      "inputs": [],
      "name": "market",
      "outputs": [
        {
          "internalType": "contract Market",
          "name": "",
          "type": "address"
        }
      ],
      "stateMutability": "view",
      "type": "function"
    },
    {
      "inputs": [],
      "name": "orderHistory",
      "outputs": [
        {
          "internalType": "contract OrderHistory",
          "name": "",
          "type": "address"
        }
      ],
      "stateMutability": "view",
      "type": "function"
    },
    {
      "inputs": [],
      "name": "positionHistory",
      "outputs": [
        {
          "internalType": "contract PositionHistory",
          "name": "",
          "type": "address"
        }
      ],
      "stateMutability": "view",
      "type": "function"
    },
    {
      "inputs": [],
      "name": "positionVault",
      "outputs": [
        {
          "internalType": "contract PositionVault",
          "name": "",
          "type": "address"
        }
      ],
      "stateMutability": "view",
      "type": "function"
    },
    {
      "inputs": [],
      "name": "priceFetcher",
      "outputs": [
        {
          "internalType": "contract PriceFetcher",
          "name": "",
          "type": "address"
        }
      ],
      "stateMutability": "view",
      "type": "function"
    },
    {
      "inputs": [],
      "name": "risePool",
      "outputs": [
        {
          "internalType": "contract RisePool",
          "name": "",
          "type": "address"
        }
      ],
      "stateMutability": "view",
      "type": "function"
    },
    {
      "inputs": [
        {
          "components": [
            {
              "internalType": "address",
              "name": "trader",
              "type": "address"
            },
            {
              "internalType": "bool",
              "name": "isLong",
              "type": "bool"
            },
            {
              "internalType": "int256",
              "name": "unrealizedPnl",
              "type": "int256"
            },
            {
              "internalType": "uint256",
              "name": "currentPositionRecordId",
              "type": "uint256"
            },
            {
              "internalType": "uint256",
              "name": "marketId",
              "type": "uint256"
            },
            {
              "internalType": "uint256",
              "name": "size",
              "type": "uint256"
            },
            {
              "internalType": "uint256",
              "name": "margin",
              "type": "uint256"
            },
            {
              "internalType": "uint256",
              "name": "avgOpenPrice",
              "type": "uint256"
            },
            {
              "internalType": "uint256",
              "name": "lastUpdatedTime",
              "type": "uint256"
            },
            {
              "internalType": "int256",
              "name": "avgEntryFundingIndex",
              "type": "int256"
            }
          ],
          "internalType": "struct OpenPosition",
          "name": "_position",
          "type": "tuple"
        },
        {
          "internalType": "bool",
          "name": "_isLong",
          "type": "bool"
        },
        {
          "internalType": "uint256",
          "name": "_executionPrice",
          "type": "uint256"
        },
        {
          "internalType": "uint256",
          "name": "_marketId",
          "type": "uint256"
        },
        {
          "internalType": "uint256",
          "name": "_sizeAbs",
          "type": "uint256"
        },
        {
          "internalType": "uint256",
          "name": "_marginAbs",
          "type": "uint256"
        }
      ],
      "name": "settlePnL",
      "outputs": [
        {
          "internalType": "int256",
          "name": "",
          "type": "int256"
        }
      ],
      "stateMutability": "nonpayable",
      "type": "function"
    },
    {
      "inputs": [],
      "name": "traderVault",
      "outputs": [
        {
          "internalType": "contract TraderVault",
          "name": "",
          "type": "address"
        }
      ],
      "stateMutability": "view",
      "type": "function"
    }
  ],
  "bytecode": "0x60806040523480156200001157600080fd5b5060405162001bfb38038062001bfb8339810160408190526200003491620000e3565b600080546001600160a01b03199081166001600160a01b039a8b1617909155600180548216988a16989098179097556002805488169689169690961790955560038054871694881694909417909355600480548616928716929092179091556005805485169186169190911790556006805484169185169190911790556007805490921692169190911790556200018b565b80516001600160a01b0381168114620000de57600080fd5b919050565b600080600080600080600080610100898b0312156200010157600080fd5b6200010c89620000c6565b97506200011c60208a01620000c6565b96506200012c60408a01620000c6565b95506200013c60608a01620000c6565b94506200014c60808a01620000c6565b93506200015c60a08a01620000c6565b92506200016c60c08a01620000c6565b91506200017c60e08a01620000c6565b90509295985092959890939650565b611a60806200019b6000396000f3fe608060405234801561001057600080fd5b506004361061009e5760003560e01c80638c22bdb4116100665780638c22bdb41461011f57806398654aff14610140578063b728ffbc14610153578063c8a8da0614610166578063e76c01e41461017957600080fd5b80631e71615b146100a35780632421d726146100d357806351ed0ee3146100e65780637411e99f146100f957806380f556051461010c575b600080fd5b6005546100b6906001600160a01b031681565b6040516001600160a01b0390911681526020015b60405180910390f35b6006546100b6906001600160a01b031681565b6000546100b6906001600160a01b031681565b6001546100b6906001600160a01b031681565b6002546100b6906001600160a01b031681565b61013261012d3660046113ef565b61018c565b6040519081526020016100ca565b6004546100b6906001600160a01b031681565b6003546100b6906001600160a01b031681565b6101326101743660046114b3565b610792565b6007546100b6906001600160a01b031681565b600061019661133a565b60808301356060820181905260a0808501359083015260c08085013590830152600254604051633ec7919360e01b815260048101929092526001600160a01b031690633ec791939060240161012060405180830381865afa1580156101ff573d6000803e3d6000fd5b505050506040513d601f19601f82011682018060405250810190610223919061159d565b60c0015160808083019190915260065460a08301516001600160a01b039091169163d95a487291908601359061025f606088016040890161161b565b15156102716040890160208a0161161b565b6040516001600160e01b031960e087901b16815260048101949094526024840192909252901515146044820152606401602060405180830381865afa1580156102be573d6000803e3d6000fd5b505050506040513d601f19601f820116820180604052508101906102e2919061163f565b61010082015273__$18943158f75973db0541c3d7c8650b2485$__6312b6c3b432610313604087016020880161161b565b6040516001600160e01b031960e085901b1681526001600160a01b0390921660048301521515602482015260808601356044820152606401602060405180830381865af4158015610368573d6000803e3d6000fd5b505050506040513d601f19601f8201168201806040525081019061038c919061163f565b6040828101829052600480549151631928b3cb60e01b8152908101929092526001600160a01b031690631928b3cb9060240161014060405180830381865afa1580156103dc573d6000803e3d6000fd5b505050506040513d601f19601f820116820180604052508101906104009190611663565b80825260a0015115801561041f575061041f606084016040850161161b565b15610443576000602082015261044361043d3685900385018561171d565b82610aec565b805160a00151158015906104625750610462606084016040850161161b565b15610480576001602082015261048061043d3685900385018561171d565b805160a00151158015906104a1575061049f606084016040850161161b565b155b80156104b95750806000015160a001518160a0015114155b156104dd57600260208201526104dd6104d73685900385018561171d565b82611009565b805160a00151158015906104fe57506104fc606084016040850161161b565b155b80156105155750806000015160a001518160a00151145b1561053357600360208201526105336104d73685900385018561171d565b6005546040805161012081019091523281526001600160a01b0390911690636dfd5b3b906020810160008152602001866020016020810190610575919061161b565b1515815260200161058c606088016040890161161b565b151581526020018460e001518152602001866080013581526020018460a0015181526020018460c0015181526020018461010001518152506040518263ffffffff1660e01b81526004016105e091906117fa565b600060405180830381600087803b1580156105fa57600080fd5b505af115801561060e573d6000803e3d6000fd5b5061062392505050604084016020850161161b565b156106da576007546040805160a0810182526001600160a01b039092169163d3cac64d918190610659906060890190890161161b565b15158152602001866080013581526020018460a0015181526020018460c0015181526020018461010001518152506040518263ffffffff1660e01b81526004016106a39190611884565b600060405180830381600087803b1580156106bd57600080fd5b505af11580156106d1573d6000803e3d6000fd5b50505050610788565b6007546040805160a0810182526001600160a01b039092169163f4e79e2d91819061070b906060890190890161161b565b15158152602001866080013581526020018460a0015181526020018460c0015181526020018461010001518152506040518263ffffffff1660e01b81526004016107559190611884565b600060405180830381600087803b15801561076f57600080fd5b505af1158015610783573d6000803e3d6000fd5b505050505b6040015192915050565b600254604051633ec7919360e01b81526004810185905260009182916001600160a01b0390911690633ec791939060240161012060405180830381865afa1580156107e1573d6000803e3d6000fd5b505050506040513d601f19601f82011682018060405250810190610805919061159d565b60e0890151604051632d43eefb60e01b815260048101879052602481019190915260448101889052881515606482015290915060009073__$e8652f61bc11c22d415b40de743c60e742$__90632d43eefb90608401602060405180830381865af4158015610877573d6000803e3d6000fd5b505050506040513d601f19601f8201168201806040525081019061089b919061163f565b6000548a5160c085015160405163df486d1f60e01b81529394506001600160a01b039092169263df486d1f926108d6929189906004016118c0565b600060405180830381600087803b1580156108f057600080fd5b505af1158015610904573d6000803e3d6000fd5b50505050876109775760015460405163010b911f60e71b815260048101889052602481018790526001600160a01b03909116906385c88f8090604401600060405180830381600087803b15801561095a57600080fd5b505af115801561096e573d6000803e3d6000fd5b505050506109dd565b60015460405163b4faf0d360e01b815260048101889052602481018790526001600160a01b039091169063b4faf0d390604401600060405180830381600087803b1580156109c457600080fd5b505af11580156109d8573d6000803e3d6000fd5b505050505b6000811215610a6957600054895160c08401516001600160a01b0390921691630b665acb9190610a14610a0f866118e1565b6112e4565b6040518463ffffffff1660e01b8152600401610a32939291906118c0565b600060405180830381600087803b158015610a4c57600080fd5b505af1158015610a60573d6000803e3d6000fd5b50505050610ae0565b600054895160c08401516001600160a01b039092169163df486d1f9190610a8f856112e4565b6040518463ffffffff1660e01b8152600401610aad939291906118c0565b600060405180830381600087803b158015610ac757600080fd5b505af1158015610adb573d6000803e3d6000fd5b505050505b98975050505050505050565b600054608082015160c0830151604051630b665acb60e01b81526001600160a01b0390931692630b665acb92610b269232926004016118c0565b600060405180830381600087803b158015610b4057600080fd5b505af1158015610b54573d6000803e3d6000fd5b505050508160200151610bd457600154606082015160a08301516040516346c3ef9d60e01b8152600481019290925260248201526001600160a01b03909116906346c3ef9d90604401600060405180830381600087803b158015610bb757600080fd5b505af1158015610bcb573d6000803e3d6000fd5b50505050610c43565b600154606082015160a0830151604051631cb6c4f560e11b8152600481019290925260248201526001600160a01b039091169063396d89ea90604401600060405180830381600087803b158015610c2a57600080fd5b505af1158015610c3e573d6000803e3d6000fd5b505050505b600081602001516003811115610c5b57610c5b6116f8565b03610e215760035460408051608080820183523282528501516020820190815260a0850151828401908152610100860151606084019081529351633f74b61b60e11b815292516001600160a01b0390811660048501529151602484015251604483015291516064820152911690637ee96c36906084016020604051808303816000875af1158015610cf0573d6000803e3d6000fd5b505050506040513d601f19601f82011682018060405250810190610d14919061163f565b60e082015260045460408051610180810190915260208301516001600160a01b039092169163d9b34d0e919081906003811115610d5357610d536116f8565b815260200184604001518152602001600115158152602001326001600160a01b031681526020018560200151151581526020018460e0015181526020018560800151815260200184610100015181526020018460a0015181526020018460c001518152602001856040015115158152602001856040015115158152506040518263ffffffff1660e01b8152600401610deb9190611918565b600060405180830381600087803b158015610e0557600080fd5b505af1158015610e19573d6000803e3d6000fd5b505050505050565b600181602001516003811115610e3957610e396116f8565b03610fc35780516060015160e082015260045460408051610180810190915260208301516001600160a01b039092169163d9b34d0e919081906003811115610e8357610e836116f8565b815260200184604001518152602001600015158152602001326001600160a01b031681526020018560200151151581526020018460e0015181526020018560800151815260200184610100015181526020018460a0015181526020018460c001518152602001856040015115158152602001856040015115158152506040518263ffffffff1660e01b8152600401610f1b9190611918565b600060405180830381600087803b158015610f3557600080fd5b505af1158015610f49573d6000803e3d6000fd5b50506003546040805160e08082018352328252868301516020830152860151818301528682015115156060820152610120860151608082015260a0808701519082015261010086015160c082015290516315af5e8f60e01b81526001600160a01b0390921693506315af5e8f9250610deb916004016119d6565b60405162461bcd60e51b8152602060048201526016602482015275496e76616c696420657865637574696f6e207479706560501b60448201526064015b60405180910390fd5b6110308160000151836020015183610100015185608001518560a001518660c00151610792565b61012082015280516060015160e0820152600281602001516003811115611059576110596116f8565b036111db5760045460408051610180810190915260208301516001600160a01b039092169163d9b34d0e919081906003811115611098576110986116f8565b815260200184604001518152602001600015158152602001326001600160a01b031681526020018560200151151581526020018460e0015181526020018560800151815260200184610100015181526020018460a0015181526020018460c001518152602001856040015115158152602001856040015115158152506040518263ffffffff1660e01b81526004016111309190611918565b600060405180830381600087803b15801561114a57600080fd5b505af115801561115e573d6000803e3d6000fd5b50506003546040805160e08101825232815285820151602082015285516060908101518284015287830151151590820152610120860151608082015260a0808701519082015261010086015160c082015290516315af5e8f60e01b81526001600160a01b0390921693506315af5e8f9250610deb916004016119d6565b6003816020015160038111156111f3576111f36116f8565b03610fc357600480546040838101519051634ca0d05960e11b8152928301526001600160a01b031690639941a0b290602401600060405180830381600087803b15801561123f57600080fd5b505af1158015611253573d6000803e3d6000fd5b50506003546040805160a08082018352328252865160609081015160208401908152610120890151848601908152928901519184019182526101008901516080850190815294516315d2cae360e11b815293516001600160a01b03908116600486015290516024850152915160448401525160648301529151608482015291169250632ba595c6915060a401610deb565b6000808212156113365760405162461bcd60e51b815260206004820181905260248201527f53616665436173743a2076616c7565206d75737420626520706f7369746976656044820152606401611000565b5090565b6040518061014001604052806113a760405180610140016040528060006001600160a01b0316815260200160001515815260200160008152602001600081526020016000815260200160008152602001600081526020016000815260200160008152602001600081525090565b81526020016000815260200160008019168152602001600081526020016000815260200160008152602001600081526020016000815260200160008152602001600081525090565b6000610100828403121561140257600080fd5b50919050565b604051610140810167ffffffffffffffff8111828210171561143a57634e487b7160e01b600052604160045260246000fd5b60405290565b604051610120810167ffffffffffffffff8111828210171561143a57634e487b7160e01b600052604160045260246000fd5b6001600160a01b038116811461148757600080fd5b50565b803561149581611472565b919050565b801515811461148757600080fd5b80356114958161149a565b6000806000806000808688036101e08112156114ce57600080fd5b610140808212156114de57600080fd5b6114e6611408565b91506114f18961148a565b82526114ff60208a016114a8565b602083015260408901356040830152606089013560608301526080890135608083015260a089013560a083015260c089013560c083015260e089013560e0830152610100808a01358184015250610120808a01358184015250819750611566818a016114a8565b979a97995050505061016086013595610180810135956101a082013595506101c0909101359350915050565b805161149581611472565b600061012082840312156115b057600080fd5b6115b8611440565b825181526020830151602082015260408301516040820152606083015160608201526080830151608082015260a083015160a082015260c083015160c082015260e083015160e0820152610100611610818501611592565b908201529392505050565b60006020828403121561162d57600080fd5b81356116388161149a565b9392505050565b60006020828403121561165157600080fd5b5051919050565b80516114958161149a565b6000610140828403121561167657600080fd5b61167e611408565b61168783611592565b815261169560208401611658565b602082015260408301516040820152606083015160608201526080830151608082015260a083015160a082015260c083015160c082015260e083015160e08201526101008084015181830152506101208084015181830152508091505092915050565b634e487b7160e01b600052602160045260246000fd5b80356004811061149557600080fd5b600061010080838503121561173157600080fd5b6040519081019067ffffffffffffffff8211818310171561176257634e487b7160e01b600052604160045260246000fd5b816040528335915061177382611472565b818152611782602085016114a8565b6020820152611793604085016114a8565b60408201526117a46060850161170e565b60608201526080840135608082015260a084013560a082015260c084013560c082015260e084013560e0820152809250505092915050565b6004811061148757634e487b7160e01b600052602160045260246000fd5b81516001600160a01b03168152602082015161012082019061181b816117dc565b806020840152506040830151611835604084018215159052565b506060830151611849606084018215159052565b506080830151608083015260a083015160a083015260c083015160c083015260e083015160e083015261010080840151818401525092915050565b600060a0820190508251151582526020830151602083015260408301516040830152606083015160608301526080830151608083015292915050565b6001600160a01b039390931683526020830191909152604082015260600190565b6000600160ff1b820161190457634e487b7160e01b600052601160045260246000fd5b5060000390565b611914816117dc565b9052565b60006101808201905061192c82845161190b565b602083015160208301526040830151611949604084018215159052565b50606083015161196460608401826001600160a01b03169052565b506080830151611978608084018215159052565b5060a083015160a083015260c083015160c083015260e083015160e0830152610100808401518184015250610120808401518184015250610140808401516119c38285018215159052565b5050610160928301511515919092015290565b81516001600160a01b0316815260208083015190820152604080830151908201526060808301511515908201526080808301519082015260a0828101519082015260c0918201519181019190915260e0019056fea2646970667358221220912a0e0b07c8f601291c1180cda1f4a8bffdcad91e202ce6765c86b7c468e7b964736f6c63430008120033",
  "linkReferences": {
    "contracts/order/OrderUtils.sol": {
      "OrderUtils": [
        {
          "length": 20,
          "start": 1157
        }
      ]
    },
    "contracts/position/PnlUtils.sol": {
      "PnlUtils": [
        {
          "length": 20,
          "start": 2520
        }
      ]
    }
  },
  "deployedLinkReferences": {
    "contracts/order/OrderUtils.sol": {
      "OrderUtils": [
        {
          "length": 20,
          "start": 746
        }
      ]
    },
    "contracts/position/PnlUtils.sol": {
      "PnlUtils": [
        {
          "length": 20,
          "start": 2109
        }
      ]
    }
  }
}