{
  "_format": "hh-sol-artifact-1",
  "contractName": "PositionManager",
  "sourceName": "contracts/position/PositionManager.sol",
  "abi": [
    {
      "inputs": [
        {
          "internalType": "address",
          "name": "_positionVault",
          "type": "address"
        },
        {
          "internalType": "address",
          "name": "_market",
          "type": "address"
        }
      ],
      "stateMutability": "nonpayable",
      "type": "constructor"
    },
    {
      "inputs": [
        {
          "internalType": "address",
          "name": "_trader",
          "type": "address"
        },
        {
          "internalType": "uint256[]",
          "name": "_markPrices",
          "type": "uint256[]"
        }
      ],
      "name": "getTraderTotalUnrealizedPnl",
      "outputs": [
        {
          "internalType": "int256",
          "name": "",
          "type": "int256"
        }
      ],
      "stateMutability": "view",
      "type": "function"
    },
    {
      "inputs": [],
      "name": "market",
      "outputs": [
        {
          "internalType": "contract Market",
          "name": "",
          "type": "address"
        }
      ],
      "stateMutability": "view",
      "type": "function"
    },
    {
      "inputs": [],
      "name": "positionVault",
      "outputs": [
        {
          "internalType": "contract PositionVault",
          "name": "",
          "type": "address"
        }
      ],
      "stateMutability": "view",
      "type": "function"
    }
  ],
  "bytecode": "0x608060405234801561001057600080fd5b5060405161064a38038061064a83398101604081905261002f9161007c565b600080546001600160a01b039384166001600160a01b031991821617909155600180549290931691161790556100af565b80516001600160a01b038116811461007757600080fd5b919050565b6000806040838503121561008f57600080fd5b61009883610060565b91506100a660208401610060565b90509250929050565b61058c806100be6000396000f3fe608060405234801561001057600080fd5b50600436106100415760003560e01c80632bad8a581461004657806380f556051461006c57806398654aff14610097575b600080fd5b61005961005436600461035b565b6100aa565b6040519081526020015b60405180910390f35b60015461007f906001600160a01b031681565b6040516001600160a01b039091168152602001610063565b60005461007f906001600160a01b031681565b600080600160009054906101000a90046001600160a01b03166001600160a01b03166397c26be46040518163ffffffff1660e01b8152600401602060405180830381865afa158015610100573d6000803e3d6000fd5b505050506040513d601f19601f8201168201806040525081019061012491906103e3565b905060016000805b838110156103385760005b6002811015610325576040516304adb0ed60e21b81526001600160a01b038a16600482015284151560248201526044810183905260009073__$18943158f75973db0541c3d7c8650b2485$__906312b6c3b490606401602060405180830381865af41580156101aa573d6000803e3d6000fd5b505050506040513d601f19601f820116820180604052508101906101ce91906103e3565b60008054604051631928b3cb60e01b81526004810184905292935090916001600160a01b0390911690631928b3cb9060240161014060405180830381865afa15801561021e573d6000803e3d6000fd5b505050506040513d601f19601f820116820180604052508101906102429190610454565b9050600073__$e8652f61bc11c22d415b40de743c60e742$__632d43eefb8360a001518460e001518e8e8a81811061027c5761027c6104e9565b6020898101516040516001600160e01b031960e08a901b1681526004810197909752602487019590955202919091013560448401525015156064820152608401602060405180830381865af41580156102d9573d6000803e3d6000fd5b505050506040513d601f19601f820116820180604052508101906102fd91906103e3565b90506103098187610515565b955086159650505050808061031d9061053d565b915050610137565b50806103308161053d565b91505061012c565b509695505050505050565b6001600160a01b038116811461035857600080fd5b50565b60008060006040848603121561037057600080fd5b833561037b81610343565b9250602084013567ffffffffffffffff8082111561039857600080fd5b818601915086601f8301126103ac57600080fd5b8135818111156103bb57600080fd5b8760208260051b85010111156103d057600080fd5b6020830194508093505050509250925092565b6000602082840312156103f557600080fd5b5051919050565b604051610140810167ffffffffffffffff8111828210171561042e57634e487b7160e01b600052604160045260246000fd5b60405290565b805161043f81610343565b919050565b8051801515811461043f57600080fd5b6000610140828403121561046757600080fd5b61046f6103fc565b61047883610434565b815261048660208401610444565b602082015260408301516040820152606083015160608201526080830151608082015260a083015160a082015260c083015160c082015260e083015160e08201526101008084015181830152506101208084015181830152508091505092915050565b634e487b7160e01b600052603260045260246000fd5b634e487b7160e01b600052601160045260246000fd5b8082018281126000831280158216821582161715610535576105356104ff565b505092915050565b60006001820161054f5761054f6104ff565b506001019056fea26469706673582212204944d2a9db1fa0d009e1e08d5a310625420f50e6c3625946e30c3a95660f0b1f64736f6c63430008120033",
  "linkReferences": {
    "contracts/order/OrderUtils.sol": {
      "OrderUtils": [
        {
          "length": 20,
          "start": 558
        }
      ]
    },
    "contracts/position/PnlUtils.sol": {
      "PnlUtils": [
        {
          "length": 20,
          "start": 774
        }
      ]
    }
  },
  "deployedLinkReferences": {
    "contracts/order/OrderUtils.sol": {
      "OrderUtils": [
        {
          "length": 20,
          "start": 368
        }
      ]
    },
    "contracts/position/PnlUtils.sol": {
      "PnlUtils": [
        {
          "length": 20,
          "start": 584
        }
      ]
    }
  }
}