{
  "_format": "hh-sol-artifact-1",
  "contractName": "ListingManager",
  "sourceName": "contracts/market/ListingManager.sol",
  "abi": [
    {
      "inputs": [
        {
          "internalType": "address",
          "name": "_market",
          "type": "address"
        }
      ],
      "stateMutability": "nonpayable",
      "type": "constructor"
    },
    {
      "inputs": [
        {
          "components": [
            {
              "internalType": "uint256",
              "name": "marketId",
              "type": "uint256"
            },
            {
              "internalType": "uint256",
              "name": "priceTickSize",
              "type": "uint256"
            },
            {
              "internalType": "uint256",
              "name": "baseAssetId",
              "type": "uint256"
            },
            {
              "internalType": "uint256",
              "name": "quoteAssetId",
              "type": "uint256"
            },
            {
              "internalType": "uint256",
              "name": "longReserveAssetId",
              "type": "uint256"
            },
            {
              "internalType": "uint256",
              "name": "shortReserveAssetId",
              "type": "uint256"
            },
            {
              "internalType": "uint256",
              "name": "marginAssetId",
              "type": "uint256"
            },
            {
              "internalType": "int256",
              "name": "fundingRateMultiplier",
              "type": "int256"
            }
          ],
          "internalType": "struct CreateRisePerpsMarketParams",
          "name": "m",
          "type": "tuple"
        }
      ],
      "name": "createRisePerpsMarket",
      "outputs": [
        {
          "components": [
            {
              "internalType": "uint256",
              "name": "marketId",
              "type": "uint256"
            },
            {
              "internalType": "uint256",
              "name": "priceTickSize",
              "type": "uint256"
            },
            {
              "internalType": "uint256",
              "name": "baseAssetId",
              "type": "uint256"
            },
            {
              "internalType": "uint256",
              "name": "quoteAssetId",
              "type": "uint256"
            },
            {
              "internalType": "uint256",
              "name": "longReserveAssetId",
              "type": "uint256"
            },
            {
              "internalType": "uint256",
              "name": "shortReserveAssetId",
              "type": "uint256"
            },
            {
              "internalType": "uint256",
              "name": "marginAssetId",
              "type": "uint256"
            },
            {
              "internalType": "int256",
              "name": "fundingRateMultiplier",
              "type": "int256"
            },
            {
              "internalType": "address",
              "name": "marketMakerToken",
              "type": "address"
            }
          ],
          "internalType": "struct MarketInfo",
          "name": "",
          "type": "tuple"
        }
      ],
      "stateMutability": "nonpayable",
      "type": "function"
    },
    {
      "inputs": [],
      "name": "market",
      "outputs": [
        {
          "internalType": "contract Market",
          "name": "",
          "type": "address"
        }
      ],
      "stateMutability": "view",
      "type": "function"
    }
  ],
  "bytecode": "0x608060405234801561001057600080fd5b506040516110d73803806110d783398101604081905261002f91610054565b600080546001600160a01b0319166001600160a01b0392909216919091179055610084565b60006020828403121561006657600080fd5b81516001600160a01b038116811461007d57600080fd5b9392505050565b611044806100936000396000f3fe608060405234801561001057600080fd5b50600436106100365760003560e01c806380f556051461003b578063c174bc0e1461006b575b600080fd5b60005461004e906001600160a01b031681565b6040516001600160a01b0390911681526020015b60405180910390f35b61007e610079366004610257565b61008b565b6040516100629190610354565b6100e3604051806101200160405280600081526020016000815260200160008152602001600081526020016000815260200160008152602001600081526020016000815260200160006001600160a01b031681525090565b81516040808401516060808601518351608060208201819052601160a083015270149254d157d411549414d7d3505492d155607a1b60c083015294810195909552908401919091529082015260009060e00160405160208183030381529060405280519060200120905060008160405161015c9061024a565b8190604051809103906000f590508015801561017c573d6000803e3d6000fd5b50604080516101208101825286518152602080880151908201528682015181830152606080880151908201526080808801519082015260a0808801519082015260c0808801519082015260e080880151908201526001600160a01b0380841661010083015260005488519351631bfda9c560e21b81529495509193911691636ff6a7149161020f91908590600401610369565b600060405180830381600087803b15801561022957600080fd5b505af115801561023d573d6000803e3d6000fd5b5092979650505050505050565b610c898061038683390190565b600061010080838503121561026b57600080fd5b6040519081019067ffffffffffffffff8211818310171561029c57634e487b7160e01b600052604160045260246000fd5b81604052833581526020840135602082015260408401356040820152606084013560608201526080840135608082015260a084013560a082015260c084013560c082015260e084013560e0820152809250505092915050565b805182526020808201519083015260408082015190830152606080820151908301526080808201519083015260a0808201519083015260c0808201519083015260e08082015190830152610100908101516001600160a01b0316910152565b610120810161036382846102f5565b92915050565b828152610140810161037e60208301846102f5565b939250505056fe60806040523480156200001157600080fd5b506040518060400160405280601781526020017f52697365204d61726b6574204d616b657220546f6b656e00000000000000000081525060405180604001604052806002815260200161524d60f01b815250816003908162000074919062000131565b50600462000083828262000131565b505050620001fd565b634e487b7160e01b600052604160045260246000fd5b600181811c90821680620000b757607f821691505b602082108103620000d857634e487b7160e01b600052602260045260246000fd5b50919050565b601f8211156200012c57600081815260208120601f850160051c81016020861015620001075750805b601f850160051c820191505b81811015620001285782815560010162000113565b5050505b505050565b81516001600160401b038111156200014d576200014d6200008c565b62000165816200015e8454620000a2565b84620000de565b602080601f8311600181146200019d5760008415620001845750858301515b600019600386901b1c1916600185901b17855562000128565b600085815260208120601f198616915b82811015620001ce57888601518255948401946001909101908401620001ad565b5085821015620001ed5787850151600019600388901b60f8161c191681555b5050505050600190811b01905550565b610a7c806200020d6000396000f3fe608060405234801561001057600080fd5b50600436106100bf5760003560e01c806340c10f191161007c57806340c10f191461014c57806370a082311461016157806395d89b411461018a5780639dc29fac14610192578063a457c2d7146101a5578063a9059cbb146101b8578063dd62ed3e146101cb57600080fd5b806306fdde03146100c4578063095ea7b3146100e257806318160ddd1461010557806323b872dd14610117578063313ce5671461012a5780633950935114610139575b600080fd5b6100cc6101de565b6040516100d991906108a6565b60405180910390f35b6100f56100f0366004610910565b610270565b60405190151581526020016100d9565b6002545b6040519081526020016100d9565b6100f561012536600461093a565b61028a565b604051601281526020016100d9565b6100f5610147366004610910565b6102ae565b61015f61015a366004610910565b6102d0565b005b61010961016f366004610976565b6001600160a01b031660009081526020819052604090205490565b6100cc6102de565b61015f6101a0366004610910565b6102ed565b6100f56101b3366004610910565b6102f7565b6100f56101c6366004610910565b610377565b6101096101d9366004610998565b610385565b6060600380546101ed906109cb565b80601f0160208091040260200160405190810160405280929190818152602001828054610219906109cb565b80156102665780601f1061023b57610100808354040283529160200191610266565b820191906000526020600020905b81548152906001019060200180831161024957829003601f168201915b5050505050905090565b60003361027e8185856103b0565b60019150505b92915050565b6000336102988582856104d5565b6102a385858561054f565b506001949350505050565b60003361027e8185856102c18383610385565b6102cb9190610a05565b6103b0565b6102da82826106e1565b5050565b6060600480546101ed906109cb565b6102da828261078e565b600033816103058286610385565b90508381101561036a5760405162461bcd60e51b815260206004820152602560248201527f45524332303a2064656372656173656420616c6c6f77616e63652062656c6f77604482015264207a65726f60d81b60648201526084015b60405180910390fd5b6102a382868684036103b0565b60003361027e81858561054f565b6001600160a01b03918216600090815260016020908152604080832093909416825291909152205490565b6001600160a01b0383166104125760405162461bcd60e51b8152602060048201526024808201527f45524332303a20617070726f76652066726f6d20746865207a65726f206164646044820152637265737360e01b6064820152608401610361565b6001600160a01b0382166104735760405162461bcd60e51b815260206004820152602260248201527f45524332303a20617070726f766520746f20746865207a65726f206164647265604482015261737360f01b6064820152608401610361565b6001600160a01b0383811660008181526001602090815260408083209487168084529482529182902085905590518481527f8c5be1e5ebec7d5bd14f71427d1e84f3dd0314c0f7b2291e5b200ac8c7c3b92591015b60405180910390a3505050565b60006104e18484610385565b90506000198114610549578181101561053c5760405162461bcd60e51b815260206004820152601d60248201527f45524332303a20696e73756666696369656e7420616c6c6f77616e63650000006044820152606401610361565b61054984848484036103b0565b50505050565b6001600160a01b0383166105b35760405162461bcd60e51b815260206004820152602560248201527f45524332303a207472616e736665722066726f6d20746865207a65726f206164604482015264647265737360d81b6064820152608401610361565b6001600160a01b0382166106155760405162461bcd60e51b815260206004820152602360248201527f45524332303a207472616e7366657220746f20746865207a65726f206164647260448201526265737360e81b6064820152608401610361565b6001600160a01b0383166000908152602081905260409020548181101561068d5760405162461bcd60e51b815260206004820152602660248201527f45524332303a207472616e7366657220616d6f756e7420657863656564732062604482015265616c616e636560d01b6064820152608401610361565b6001600160a01b0384811660008181526020818152604080832087870390559387168083529184902080548701905592518581529092600080516020610a27833981519152910160405180910390a3610549565b6001600160a01b0382166107375760405162461bcd60e51b815260206004820152601f60248201527f45524332303a206d696e7420746f20746865207a65726f2061646472657373006044820152606401610361565b80600260008282546107499190610a05565b90915550506001600160a01b03821660008181526020818152604080832080548601905551848152600080516020610a27833981519152910160405180910390a35050565b6001600160a01b0382166107ee5760405162461bcd60e51b815260206004820152602160248201527f45524332303a206275726e2066726f6d20746865207a65726f206164647265736044820152607360f81b6064820152608401610361565b6001600160a01b038216600090815260208190526040902054818110156108625760405162461bcd60e51b815260206004820152602260248201527f45524332303a206275726e20616d6f756e7420657863656564732062616c616e604482015261636560f01b6064820152608401610361565b6001600160a01b038316600081815260208181526040808320868603905560028054879003905551858152919291600080516020610a2783398151915291016104c8565b600060208083528351808285015260005b818110156108d3578581018301518582016040015282016108b7565b506000604082860101526040601f19601f8301168501019250505092915050565b80356001600160a01b038116811461090b57600080fd5b919050565b6000806040838503121561092357600080fd5b61092c836108f4565b946020939093013593505050565b60008060006060848603121561094f57600080fd5b610958846108f4565b9250610966602085016108f4565b9150604084013590509250925092565b60006020828403121561098857600080fd5b610991826108f4565b9392505050565b600080604083850312156109ab57600080fd5b6109b4836108f4565b91506109c2602084016108f4565b90509250929050565b600181811c908216806109df57607f821691505b6020821081036109ff57634e487b7160e01b600052602260045260246000fd5b50919050565b8082018082111561028457634e487b7160e01b600052601160045260246000fdfeddf252ad1be2c89b69c2b068fc378daa952ba7f163c4a11628f55a4df523b3efa2646970667358221220dcec6e2877bd08ae036deccd21c8e3795ee331d3f6ddf5cc65f9ce437a4bfb9f64736f6c63430008120033a26469706673582212204f3b8b880b6780ce4e2f5b7d5e164cefc415e9bf3cbe7d6dbcfcba978ff58d4c64736f6c63430008120033",
  "linkReferences": {},
  "deployedLinkReferences": {}
}