{
  "_format": "hh-sol-artifact-1",
  "contractName": "OrderValidator",
  "sourceName": "contracts/order/OrderValidator.sol",
  "abi": [
    {
      "inputs": [
        {
          "internalType": "address",
          "name": "_positionVault",
          "type": "address"
        },
        {
          "internalType": "address",
          "name": "_globalState",
          "type": "address"
        },
        {
          "internalType": "address",
          "name": "_risePool",
          "type": "address"
        }
      ],
      "stateMutability": "nonpayable",
      "type": "constructor"
    },
    {
      "inputs": [],
      "name": "globalState",
      "outputs": [
        {
          "internalType": "contract GlobalState",
          "name": "",
          "type": "address"
        }
      ],
      "stateMutability": "view",
      "type": "function"
    },
    {
      "inputs": [],
      "name": "positionVault",
      "outputs": [
        {
          "internalType": "contract PositionVault",
          "name": "",
          "type": "address"
        }
      ],
      "stateMutability": "view",
      "type": "function"
    },
    {
      "inputs": [],
      "name": "risePool",
      "outputs": [
        {
          "internalType": "contract RisePool",
          "name": "",
          "type": "address"
        }
      ],
      "stateMutability": "view",
      "type": "function"
    },
    {
      "inputs": [
        {
          "components": [
            {
              "internalType": "address",
              "name": "trader",
              "type": "address"
            },
            {
              "internalType": "bool",
              "name": "isLong",
              "type": "bool"
            },
            {
              "internalType": "bool",
              "name": "isIncrease",
              "type": "bool"
            },
            {
              "internalType": "enum OrderType",
              "name": "orderType",
              "type": "uint8"
            },
            {
              "internalType": "uint256",
              "name": "marketId",
              "type": "uint256"
            },
            {
              "internalType": "uint256",
              "name": "sizeAbs",
              "type": "uint256"
            },
            {
              "internalType": "uint256",
              "name": "marginAbs",
              "type": "uint256"
            },
            {
              "internalType": "uint256",
              "name": "limitPrice",
              "type": "uint256"
            }
          ],
          "internalType": "struct OrderRequest",
          "name": "req",
          "type": "tuple"
        },
        {
          "internalType": "bytes32",
          "name": "_key",
          "type": "bytes32"
        }
      ],
      "name": "validateDecreaseExecution",
      "outputs": [],
      "stateMutability": "view",
      "type": "function"
    },
    {
      "inputs": [
        {
          "components": [
            {
              "internalType": "address",
              "name": "trader",
              "type": "address"
            },
            {
              "internalType": "bool",
              "name": "isLong",
              "type": "bool"
            },
            {
              "internalType": "bool",
              "name": "isIncrease",
              "type": "bool"
            },
            {
              "internalType": "enum OrderType",
              "name": "orderType",
              "type": "uint8"
            },
            {
              "internalType": "uint256",
              "name": "marketId",
              "type": "uint256"
            },
            {
              "internalType": "uint256",
              "name": "sizeAbs",
              "type": "uint256"
            },
            {
              "internalType": "uint256",
              "name": "marginAbs",
              "type": "uint256"
            },
            {
              "internalType": "uint256",
              "name": "limitPrice",
              "type": "uint256"
            }
          ],
          "internalType": "struct OrderRequest",
          "name": "req",
          "type": "tuple"
        }
      ],
      "name": "validateIncreaseExecution",
      "outputs": [],
      "stateMutability": "view",
      "type": "function"
    }
  ],
  "bytecode": "0x608060405234801561001057600080fd5b50604051610ac8380380610ac883398101604081905261002f9161008d565b600080546001600160a01b039485166001600160a01b0319918216179091556001805493851693821693909317909255600280549190931691161790556100d0565b80516001600160a01b038116811461008857600080fd5b919050565b6000806000606084860312156100a257600080fd5b6100ab84610071565b92506100b960208501610071565b91506100c760408501610071565b90509250925092565b6109e9806100df6000396000f3fe608060405234801561001057600080fd5b50600436106100575760003560e01c80637411e99f1461005c57806398654aff1461008b57806399d7a2841461009e578063c057757f146100b3578063e76c01e4146100c6575b600080fd5b60025461006f906001600160a01b031681565b6040516001600160a01b03909116815260200160405180910390f35b60005461006f906001600160a01b031681565b6100b16100ac366004610796565b6100d9565b005b6100b16100c13660046107c3565b610224565b60015461006f906001600160a01b031681565b60008054604051631928b3cb60e01b8152600481018490526001600160a01b0390911690631928b3cb9060240161014060405180830381865afa158015610124573d6000803e3d6000fd5b505050506040513d601f19601f820116820180604052508101906101489190610857565b90508260a001358160a0015110156101b85760405162461bcd60e51b815260206004820152602860248201527f4f7264657256616c696461746f723a204e6f7420656e6f75676820706f736974604482015267696f6e2073697a6560c01b60648201526084015b60405180910390fd5b8260c001358160c00151101561021f5760405162461bcd60e51b815260206004820152602660248201527f4f7264657256616c696461746f723a204e6f7420656e6f756768206d617267696044820152656e2073697a6560d01b60648201526084016101af565b505050565b600061023660408301602084016108ec565b6102af57600254604051638a4cc1e560e01b8152608084013560048201526001600160a01b0390911690638a4cc1e590602401602060405180830381865afa158015610286573d6000803e3d6000fd5b505050506040513d601f19601f820116820180604052508101906102aa9190610909565b61031f565b600254604051637d0a61cb60e11b8152608084013560048201526001600160a01b039091169063fa14c39690602401602060405180830381865afa1580156102fb573d6000803e3d6000fd5b505050506040513d601f19601f8201168201806040525081019061031f9190610909565b9050600061033360408401602085016108ec565b6103ac5760025460405163e7e38f0560e01b8152608085013560048201526001600160a01b039091169063e7e38f0590602401602060405180830381865afa158015610383573d6000803e3d6000fd5b505050506040513d601f19601f820116820180604052508101906103a79190610909565b61041c565b600254604051631bd3590f60e21b8152608085013560048201526001600160a01b0390911690636f4d643c90602401602060405180830381865afa1580156103f8573d6000803e3d6000fd5b505050506040513d601f19601f8201168201806040525081019061041c9190610909565b60008054604051632f882efb60e21b81526080870135600482015292935090916001600160a01b039091169063be20bbec90602401602060405180830381865afa15801561046e573d6000803e3d6000fd5b505050506040513d601f19601f820116820180604052508101906104929190610909565b60008054604051632d40e95560e21b81526080880135600482015292935090916001600160a01b039091169063b503a55490602401602060405180830381865afa1580156104e4573d6000803e3d6000fd5b505050506040513d601f19601f820116820180604052508101906105089190610909565b905061051860a086013584610922565b84101561057c5760405162461bcd60e51b815260206004820152602c60248201527f4f7264657256616c696461746f723a204e6f7420656e6f75676820746f6b656e60448201526b081c1bdbdb08185b5bdd5b9d60a21b60648201526084016101af565b600061058e60408701602088016108ec565b61060857600154604051630eb91fcd60e01b8152608088013560048201526001600160a01b0390911690630eb91fcd90602401606060405180830381865afa1580156105de573d6000803e3d6000fd5b505050506040513d601f19601f820116820180604052508101906106029190610949565b5161067a565b600154604051633cbaa41960e21b8152608088013560048201526001600160a01b039091169063f2ea906490602401606060405180830381865afa158015610654573d6000803e3d6000fd5b505050506040513d601f19601f820116820180604052508101906106789190610949565b515b905061068c60408701602088016108ec565b156107055761069f60a087013582610922565b8310156107005760405162461bcd60e51b815260206004820152602960248201527f4f7264657256616c696461746f723a2045786365656473206d6178206c6f6e6760448201526820636170616369747960b81b60648201526084016101af565b610775565b61071360a087013582610922565b8210156107755760405162461bcd60e51b815260206004820152602a60248201527f4f7264657256616c696461746f723a2045786365656473206d61782073686f726044820152697420636170616369747960b01b60648201526084016101af565b505050505050565b6000610100828403121561079057600080fd5b50919050565b60008061012083850312156107aa57600080fd5b6107b4848461077d565b94610100939093013593505050565b600061010082840312156107d657600080fd5b6107e0838361077d565b9392505050565b604051610140810167ffffffffffffffff8111828210171561081957634e487b7160e01b600052604160045260246000fd5b60405290565b80516001600160a01b038116811461083657600080fd5b919050565b801515811461084957600080fd5b50565b80516108368161083b565b6000610140828403121561086a57600080fd5b6108726107e7565b61087b8361081f565b81526108896020840161084c565b602082015260408301516040820152606083015160608201526080830151608082015260a083015160a082015260c083015160c082015260e083015160e08201526101008084015181830152506101208084015181830152508091505092915050565b6000602082840312156108fe57600080fd5b81356107e08161083b565b60006020828403121561091b57600080fd5b5051919050565b8082018082111561094357634e487b7160e01b600052601160045260246000fd5b92915050565b60006060828403121561095b57600080fd5b6040516060810181811067ffffffffffffffff8211171561098c57634e487b7160e01b600052604160045260246000fd5b8060405250825181526020830151602082015260408301516040820152809150509291505056fea2646970667358221220539a204e091cb16d14c139790151dfd32cd417098e24e938be0fe2acbb7ff97064736f6c63430008120033",
  "linkReferences": {},
  "deployedLinkReferences": {}
}