{
  "_format": "hh-sol-artifact-1",
  "contractName": "PriceFetcher",
  "sourceName": "contracts/order/PriceFetcher.sol",
  "abi": [
    {
      "inputs": [
        {
          "internalType": "address",
          "name": "_priceManager",
          "type": "address"
        }
      ],
      "stateMutability": "nonpayable",
      "type": "constructor"
    },
    {
      "inputs": [
        {
          "internalType": "uint256",
          "name": "_marketId",
          "type": "uint256"
        },
        {
          "internalType": "uint256",
          "name": "_size",
          "type": "uint256"
        },
        {
          "internalType": "bool",
          "name": "_isLong",
          "type": "bool"
        }
      ],
      "name": "_getAvgExecPrice",
      "outputs": [
        {
          "internalType": "uint256",
          "name": "",
          "type": "uint256"
        }
      ],
      "stateMutability": "view",
      "type": "function"
    },
    {
      "inputs": [
        {
          "internalType": "uint256",
          "name": "_marketId",
          "type": "uint256"
        }
      ],
      "name": "_getIndexPrice",
      "outputs": [
        {
          "internalType": "uint256",
          "name": "",
          "type": "uint256"
        }
      ],
      "stateMutability": "view",
      "type": "function"
    },
    {
      "inputs": [
        {
          "internalType": "uint256",
          "name": "_marketId",
          "type": "uint256"
        }
      ],
      "name": "_getMarkPrice",
      "outputs": [
        {
          "internalType": "uint256",
          "name": "",
          "type": "uint256"
        }
      ],
      "stateMutability": "view",
      "type": "function"
    },
    {
      "inputs": [
        {
          "internalType": "uint256",
          "name": "_marketId",
          "type": "uint256"
        }
      ],
      "name": "_getPriceBuffer",
      "outputs": [
        {
          "internalType": "int256",
          "name": "",
          "type": "int256"
        }
      ],
      "stateMutability": "view",
      "type": "function"
    },
    {
      "inputs": [],
      "name": "priceManager",
      "outputs": [
        {
          "internalType": "contract PriceManager",
          "name": "",
          "type": "address"
        }
      ],
      "stateMutability": "view",
      "type": "function"
    }
  ],
  "bytecode": "0x608060405234801561001057600080fd5b5060405161037d38038061037d83398101604081905261002f91610054565b600080546001600160a01b0319166001600160a01b0392909216919091179055610084565b60006020828403121561006657600080fd5b81516001600160a01b038116811461007d57600080fd5b9392505050565b6102ea806100936000396000f3fe608060405234801561001057600080fd5b50600436106100575760003560e01c806317d9b9261461005c5780633fae742e1461008257806374040ff714610095578063c7e1ffe3146100a8578063d95a4872146100d3575b600080fd5b61006f61006a366004610244565b6100e6565b6040519081526020015b60405180910390f35b61006f610090366004610244565b61015b565b61006f6100a3366004610244565b61018d565b6000546100bb906001600160a01b031681565b6040516001600160a01b039091168152602001610079565b61006f6100e136600461025d565b6101bf565b60008054604051631208064760e01b8152600481018490526001600160a01b03909116906312080647906024015b602060405180830381865afa158015610131573d6000803e3d6000fd5b505050506040513d601f19601f82011682018060405250810190610155919061029b565b92915050565b60008054604051635af3d06160e01b8152600481018490526001600160a01b0390911690635af3d06190602401610114565b6000805460405163af1ab1ab60e01b8152600481018490526001600160a01b039091169063af1ab1ab90602401610114565b600080546040516317399ca960e31b8152600481018690526024810185905283151560448201526001600160a01b039091169063b9cce54890606401602060405180830381865afa158015610218573d6000803e3d6000fd5b505050506040513d601f19601f8201168201806040525081019061023c919061029b565b949350505050565b60006020828403121561025657600080fd5b5035919050565b60008060006060848603121561027257600080fd5b83359250602084013591506040840135801515811461029057600080fd5b809150509250925092565b6000602082840312156102ad57600080fd5b505191905056fea26469706673582212202fc869bbec857373188c58473981864a16a49c0ce1a49acf5e9d60936edcf6cb64736f6c63430008120033",
  "linkReferences": {},
  "deployedLinkReferences": {}
}