{
  "_format": "hh-sol-artifact-1",
  "contractName": "PriceManager",
  "sourceName": "contracts/price/PriceManager.sol",
  "abi": [
    {
      "inputs": [
        {
          "internalType": "address",
          "name": "_globalState",
          "type": "address"
        },
        {
          "internalType": "address",
          "name": "_tokenInfo",
          "type": "address"
        }
      ],
      "stateMutability": "nonpayable",
      "type": "constructor"
    },
    {
      "inputs": [
        {
          "internalType": "uint256",
          "name": "_marketId",
          "type": "uint256"
        },
        {
          "internalType": "uint256",
          "name": "_size",
          "type": "uint256"
        },
        {
          "internalType": "bool",
          "name": "_isBuy",
          "type": "bool"
        }
      ],
      "name": "getAvgExecPrice",
      "outputs": [
        {
          "internalType": "uint256",
          "name": "",
          "type": "uint256"
        }
      ],
      "stateMutability": "view",
      "type": "function"
    },
    {
      "inputs": [
        {
          "internalType": "uint256",
          "name": "_marketId",
          "type": "uint256"
        }
      ],
      "name": "getIndexPrice",
      "outputs": [
        {
          "internalType": "uint256",
          "name": "",
          "type": "uint256"
        }
      ],
      "stateMutability": "view",
      "type": "function"
    },
    {
      "inputs": [
        {
          "internalType": "uint256",
          "name": "_marketId",
          "type": "uint256"
        }
      ],
      "name": "getMarkPrice",
      "outputs": [
        {
          "internalType": "uint256",
          "name": "",
          "type": "uint256"
        }
      ],
      "stateMutability": "view",
      "type": "function"
    },
    {
      "inputs": [
        {
          "internalType": "uint256",
          "name": "_marketId",
          "type": "uint256"
        }
      ],
      "name": "getPriceBuffer",
      "outputs": [
        {
          "internalType": "int256",
          "name": "",
          "type": "int256"
        }
      ],
      "stateMutability": "view",
      "type": "function"
    },
    {
      "inputs": [],
      "name": "globalState",
      "outputs": [
        {
          "internalType": "contract GlobalState",
          "name": "",
          "type": "address"
        }
      ],
      "stateMutability": "view",
      "type": "function"
    },
    {
      "inputs": [
        {
          "internalType": "uint256",
          "name": "",
          "type": "uint256"
        }
      ],
      "name": "indexPrices",
      "outputs": [
        {
          "internalType": "uint256",
          "name": "",
          "type": "uint256"
        }
      ],
      "stateMutability": "view",
      "type": "function"
    },
    {
      "inputs": [
        {
          "internalType": "uint256",
          "name": "",
          "type": "uint256"
        }
      ],
      "name": "lastPriceBuffer",
      "outputs": [
        {
          "internalType": "int256",
          "name": "",
          "type": "int256"
        }
      ],
      "stateMutability": "view",
      "type": "function"
    },
    {
      "inputs": [
        {
          "internalType": "uint256",
          "name": "_marketId",
          "type": "uint256"
        },
        {
          "internalType": "uint256",
          "name": "_price",
          "type": "uint256"
        }
      ],
      "name": "setPrice",
      "outputs": [],
      "stateMutability": "nonpayable",
      "type": "function"
    },
    {
      "inputs": [],
      "name": "tokenInfo",
      "outputs": [
        {
          "internalType": "contract TokenInfo",
          "name": "",
          "type": "address"
        }
      ],
      "stateMutability": "view",
      "type": "function"
    }
  ],
  "bytecode": "0x608060405234801561001057600080fd5b5060405161084638038061084683398101604081905261002f9161007c565b600080546001600160a01b039384166001600160a01b031991821617909155600180549290931691161790556100af565b80516001600160a01b038116811461007757600080fd5b919050565b6000806040838503121561008f57600080fd5b61009883610060565b91506100a660208401610060565b90509250929050565b610788806100be6000396000f3fe608060405234801561001057600080fd5b50600436106100835760003560e01c806312080647146100885780635af3d061146100bb57806366b6abbe146100ce5780636addb663146100ee578063af1ab1ab14610119578063b9cce5481461012c578063e76c01e41461013f578063e8ac3dca14610152578063f7d9757714610172575b600080fd5b6100a86100963660046105fa565b60009081526002602052604090205490565b6040519081526020015b60405180910390f35b6100a86100c93660046105fa565b610187565b6100a86100dc3660046105fa565b60036020526000908152604090205481565b600154610101906001600160a01b031681565b6040516001600160a01b0390911681526020016100b2565b6100a86101273660046105fa565b61020c565b6100a861013a366004610613565b61028b565b600054610101906001600160a01b031681565b6100a86101603660046105fa565b60026020526000908152604090205481565b610185610180366004610651565b6103f3565b005b6000806101938361020c565b905060006101a56402540be400610464565b60008581526002602052604090205483906101bf90610464565b6101c99190610689565b6101d391906106b9565b9050610204816101f56002600088815260200190815260200160002054610464565b6101ff91906106f5565b6104d2565b949350505050565b6000805460405163143911cb60e11b8152600481018490526102859184916001600160a01b0390911690632872239690602401602060405180830381865afa15801561025c573d6000803e3d6000fd5b505050506040513d601f19601f82011682018060405250810190610280919061071d565b610524565b92915050565b600083815260026020526040812054600081116102ef5760405162461bcd60e51b815260206004820152601b60248201527f50726963654d616e616765723a207072696365206e6f7420736574000000000060448201526064015b60405180910390fd5b60008361030d576102ff85610464565b61030890610736565b610316565b61031685610464565b905060006103248783610524565b905060006002826103348a61020c565b61033e91906106f5565b61034891906106b9565b9050600061035a6402540be400610464565b8261036487610464565b61036e9190610689565b61037891906106b9565b61038186610464565b61038b91906106f5565b9050600081136103dd5760405162461bcd60e51b815260206004820152601f60248201527f50726963654d616e616765723a20617667457865635072696365203c3d20300060448201526064016102e6565b6103e6816104d2565b9998505050505050505050565b600081116104525760405162461bcd60e51b815260206004820152602660248201527f50726963654d616e616765723a2070726963652068617320746f20626520706f60448201526573697469766560d01b60648201526084016102e6565b60009182526002602052604090912055565b60006001600160ff1b038211156104ce5760405162461bcd60e51b815260206004820152602860248201527f53616665436173743a2076616c756520646f65736e27742066697420696e2061604482015267371034b73a191a9b60c11b60648201526084016102e6565b5090565b6000808212156104ce5760405162461bcd60e51b815260206004820181905260248201527f53616665436173743a2076616c7565206d75737420626520706f73697469766560448201526064016102e6565b60006105346402540be400610464565b610545670de0b6b3a7640000610464565b61054f9190610689565b61055d6402540be400610464565b6001546040516338c4070d60e11b81526004810187905285916105d5916001600160a01b03909116906371880e1a90602401602060405180830381865afa1580156105ac573d6000803e3d6000fd5b505050506040513d601f19601f820116820180604052508101906105d0919061071d565b610464565b6105df9190610689565b6105e99190610689565b6105f391906106b9565b9392505050565b60006020828403121561060c57600080fd5b5035919050565b60008060006060848603121561062857600080fd5b83359250602084013591506040840135801515811461064657600080fd5b809150509250925092565b6000806040838503121561066457600080fd5b50508035926020909101359150565b634e487b7160e01b600052601160045260246000fd5b80820260008212600160ff1b841416156106a5576106a5610673565b818105831482151761028557610285610673565b6000826106d657634e487b7160e01b600052601260045260246000fd5b600160ff1b8214600019841416156106f0576106f0610673565b500590565b808201828112600083128015821682158216171561071557610715610673565b505092915050565b60006020828403121561072f57600080fd5b5051919050565b6000600160ff1b820161074b5761074b610673565b506000039056fea26469706673582212200fa8747d8deaad2350524311e12b5bee49e83a1e5e7945d43e1e884ffbe91a0664736f6c63430008120033",
  "linkReferences": {},
  "deployedLinkReferences": {}
}