{
  "_format": "hh-sol-artifact-1",
  "contractName": "MathUtils",
  "sourceName": "contracts/utils/MathUtils.sol",
  "abi": [
    {
      "inputs": [
        {
          "internalType": "int256",
          "name": "x",
          "type": "int256"
        }
      ],
      "name": "abs",
      "outputs": [
        {
          "internalType": "uint256",
          "name": "",
          "type": "uint256"
        }
      ],
      "stateMutability": "pure",
      "type": "function"
    },
    {
      "inputs": [
        {
          "internalType": "int256",
          "name": "x",
          "type": "int256"
        },
        {
          "internalType": "int256",
          "name": "min",
          "type": "int256"
        },
        {
          "internalType": "int256",
          "name": "max",
          "type": "int256"
        }
      ],
      "name": "clamp",
      "outputs": [
        {
          "internalType": "int256",
          "name": "",
          "type": "int256"
        }
      ],
      "stateMutability": "pure",
      "type": "function"
    },
    {
      "inputs": [
        {
          "internalType": "uint256",
          "name": "x",
          "type": "uint256"
        },
        {
          "internalType": "uint256",
          "name": "y",
          "type": "uint256"
        },
        {
          "internalType": "uint256",
          "name": "denominator",
          "type": "uint256"
        }
      ],
      "name": "mulDiv",
      "outputs": [
        {
          "internalType": "uint256",
          "name": "",
          "type": "uint256"
        }
      ],
      "stateMutability": "pure",
      "type": "function"
    },
    {
      "inputs": [
        {
          "internalType": "uint256",
          "name": "w_a",
          "type": "uint256"
        },
        {
          "internalType": "uint256",
          "name": "w_b",
          "type": "uint256"
        },
        {
          "internalType": "uint256",
          "name": "a",
          "type": "uint256"
        },
        {
          "internalType": "uint256",
          "name": "b",
          "type": "uint256"
        }
      ],
      "name": "weightedAverage",
      "outputs": [
        {
          "internalType": "uint256",
          "name": "",
          "type": "uint256"
        }
      ],
      "stateMutability": "pure",
      "type": "function"
    },
    {
      "inputs": [
        {
          "internalType": "int256",
          "name": "w_a",
          "type": "int256"
        },
        {
          "internalType": "int256",
          "name": "w_b",
          "type": "int256"
        },
        {
          "internalType": "uint256",
          "name": "a",
          "type": "uint256"
        },
        {
          "internalType": "uint256",
          "name": "b",
          "type": "uint256"
        }
      ],
      "name": "weightedAverage",
      "outputs": [
        {
          "internalType": "int256",
          "name": "",
          "type": "int256"
        }
      ],
      "stateMutability": "pure",
      "type": "function"
    }
  ],
  "bytecode": "0x61056f61003a600b82828239805160001a60731461002d57634e487b7160e01b600052600060045260246000fd5b30600052607381538281f3fe73000000000000000000000000000000000000000030146080604052600436106100615760003560e01c80631b5ac4b51461006657806365271fa11461008b5780637b8d0f0c1461009e5780639cfe687b146100b1578063aa9a0912146100c4575b600080fd5b6100796100743660046103b6565b6100d7565b60405190815260200160405180910390f35b6100796100993660046103cf565b610106565b6100796100ac366004610401565b61015e565b6100796100bf3660046103cf565b610186565b6100796100d2366004610401565b6101fa565b6000808212156100f7576100f26100ed83610443565b610207565b610100565b61010082610207565b92915050565b6000610112828461045f565b60000361012157506000610156565b61012b828461045f565b6101358386610472565b61013f8588610472565b610149919061045f565b610153919061049f565b90505b949350505050565b600082841261017a57818413610174578361017c565b8161017c565b825b90505b9392505050565b60008061019284610262565b9050600061019f84610262565b90506101ab81836104b3565b6000036101bd57600092505050610156565b6101c781836104b3565b6101d182886104db565b6101db848a6104db565b6101e591906104b3565b6101ef919061050b565b979650505050505050565b600061017c8484846102cc565b60008082121561025e5760405162461bcd60e51b815260206004820181905260248201527f53616665436173743a2076616c7565206d75737420626520706f73697469766560448201526064015b60405180910390fd5b5090565b60006001600160ff1b0382111561025e5760405162461bcd60e51b815260206004820152602860248201527f53616665436173743a2076616c756520646f65736e27742066697420696e2061604482015267371034b73a191a9b60c11b6064820152608401610255565b6000808060001985870985870292508281108382030391505080600003610306578382816102fc576102fc610489565b049250505061017f565b80841161034d5760405162461bcd60e51b81526020600482015260156024820152744d6174683a206d756c446976206f766572666c6f7760581b6044820152606401610255565b60008486880960026001871981018816978890046003810283188082028403028082028403028082028403028082028403028082028403029081029092039091026000889003889004909101858311909403939093029303949094049190911702949350505050565b6000602082840312156103c857600080fd5b5035919050565b600080600080608085870312156103e557600080fd5b5050823594602084013594506040840135936060013592509050565b60008060006060848603121561041657600080fd5b505081359360208301359350604090920135919050565b634e487b7160e01b600052601160045260246000fd5b6000600160ff1b82016104585761045861042d565b5060000390565b808201808211156101005761010061042d565b80820281158282048414176101005761010061042d565b634e487b7160e01b600052601260045260246000fd5b6000826104ae576104ae610489565b500490565b80820182811260008312801582168215821617156104d3576104d361042d565b505092915050565b80820260008212600160ff1b841416156104f7576104f761042d565b81810583148215176101005761010061042d565b60008261051a5761051a610489565b600160ff1b8214600019841416156105345761053461042d565b50059056fea2646970667358221220fc89466171b9010f117c5a50e52f8c86d00d433a26717d246d426919a239f50364736f6c63430008120033",
  "linkReferences": {},
  "deployedLinkReferences": {}
}