{
  "_format": "hh-sol-artifact-1",
  "contractName": "Market",
  "sourceName": "contracts/market/Market.sol",
  "abi": [
    {
      "inputs": [],
      "name": "getMarketIdCounter",
      "outputs": [
        {
          "internalType": "uint256",
          "name": "",
          "type": "uint256"
        }
      ],
      "stateMutability": "view",
      "type": "function"
    },
    {
      "inputs": [
        {
          "internalType": "uint256",
          "name": "_marketId",
          "type": "uint256"
        }
      ],
      "name": "getMarketInfo",
      "outputs": [
        {
          "components": [
            {
              "internalType": "uint256",
              "name": "marketId",
              "type": "uint256"
            },
            {
              "internalType": "uint256",
              "name": "priceTickSize",
              "type": "uint256"
            },
            {
              "internalType": "uint256",
              "name": "baseAssetId",
              "type": "uint256"
            },
            {
              "internalType": "uint256",
              "name": "quoteAssetId",
              "type": "uint256"
            },
            {
              "internalType": "uint256",
              "name": "longReserveAssetId",
              "type": "uint256"
            },
            {
              "internalType": "uint256",
              "name": "shortReserveAssetId",
              "type": "uint256"
            },
            {
              "internalType": "uint256",
              "name": "marginAssetId",
              "type": "uint256"
            },
            {
              "internalType": "int256",
              "name": "fundingRateMultiplier",
              "type": "int256"
            },
            {
              "internalType": "address",
              "name": "marketMakerToken",
              "type": "address"
            }
          ],
          "internalType": "struct MarketInfo",
          "name": "",
          "type": "tuple"
        }
      ],
      "stateMutability": "view",
      "type": "function"
    },
    {
      "inputs": [
        {
          "internalType": "uint256",
          "name": "_marketId",
          "type": "uint256"
        }
      ],
      "name": "getPriceTickSize",
      "outputs": [
        {
          "internalType": "uint256",
          "name": "",
          "type": "uint256"
        }
      ],
      "stateMutability": "view",
      "type": "function"
    },
    {
      "inputs": [],
      "name": "globalMarketIdCounter",
      "outputs": [
        {
          "internalType": "uint256",
          "name": "",
          "type": "uint256"
        }
      ],
      "stateMutability": "view",
      "type": "function"
    },
    {
      "inputs": [
        {
          "internalType": "uint256",
          "name": "",
          "type": "uint256"
        }
      ],
      "name": "markets",
      "outputs": [
        {
          "internalType": "uint256",
          "name": "marketId",
          "type": "uint256"
        },
        {
          "internalType": "uint256",
          "name": "priceTickSize",
          "type": "uint256"
        },
        {
          "internalType": "uint256",
          "name": "baseAssetId",
          "type": "uint256"
        },
        {
          "internalType": "uint256",
          "name": "quoteAssetId",
          "type": "uint256"
        },
        {
          "internalType": "uint256",
          "name": "longReserveAssetId",
          "type": "uint256"
        },
        {
          "internalType": "uint256",
          "name": "shortReserveAssetId",
          "type": "uint256"
        },
        {
          "internalType": "uint256",
          "name": "marginAssetId",
          "type": "uint256"
        },
        {
          "internalType": "int256",
          "name": "fundingRateMultiplier",
          "type": "int256"
        },
        {
          "internalType": "address",
          "name": "marketMakerToken",
          "type": "address"
        }
      ],
      "stateMutability": "view",
      "type": "function"
    },
    {
      "inputs": [
        {
          "internalType": "uint256",
          "name": "_marketId",
          "type": "uint256"
        },
        {
          "components": [
            {
              "internalType": "uint256",
              "name": "marketId",
              "type": "uint256"
            },
            {
              "internalType": "uint256",
              "name": "priceTickSize",
              "type": "uint256"
            },
            {
              "internalType": "uint256",
              "name": "baseAssetId",
              "type": "uint256"
            },
            {
              "internalType": "uint256",
              "name": "quoteAssetId",
              "type": "uint256"
            },
            {
              "internalType": "uint256",
              "name": "longReserveAssetId",
              "type": "uint256"
            },
            {
              "internalType": "uint256",
              "name": "shortReserveAssetId",
              "type": "uint256"
            },
            {
              "internalType": "uint256",
              "name": "marginAssetId",
              "type": "uint256"
            },
            {
              "internalType": "int256",
              "name": "fundingRateMultiplier",
              "type": "int256"
            },
            {
              "internalType": "address",
              "name": "marketMakerToken",
              "type": "address"
            }
          ],
          "internalType": "struct MarketInfo",
          "name": "_marketInfo",
          "type": "tuple"
        }
      ],
      "name": "registerMarket",
      "outputs": [],
      "stateMutability": "nonpayable",
      "type": "function"
    },
    {
      "inputs": [
        {
          "internalType": "uint256",
          "name": "_marketId",
          "type": "uint256"
        },
        {
          "internalType": "uint256",
          "name": "_tickSizeInUsd",
          "type": "uint256"
        }
      ],
      "name": "setPriceTickSize",
      "outputs": [],
      "stateMutability": "nonpayable",
      "type": "function"
    }
  ],
  "bytecode": "0x6080604052600060015534801561001557600080fd5b50610622806100256000396000f3fe608060405234801561001057600080fd5b506004361061006d5760003560e01c80633ec7919314610072578063657995e0146100fe5780636ff6a714146101155780638aa8b08c1461012a57806397c26be41461013d578063b1283e7714610145578063b6b520d1146101f4575b600080fd5b6100856100803660046104bc565b610217565b6040516100f59190815181526020808301519082015260408083015190820152606080830151908201526080808301519082015260a0808301519082015260c0808301519082015260e08083015190820152610100918201516001600160a01b0316918101919091526101200190565b60405180910390f35b61010760015481565b6040519081526020016100f5565b610128610123366004610529565b6102ef565b005b6101076101383660046104bc565b6103e0565b600154610107565b6101a76101533660046104bc565b6000602081905290815260409020805460018201546002830154600384015460048501546005860154600687015460078801546008909801549697959694959394929391929091906001600160a01b031689565b60408051998a5260208a0198909852968801959095526060870193909352608086019190915260a085015260c084015260e08301526001600160a01b0316610100820152610120016100f5565b6101286102023660046105ca565b60009182526020829052604090912060010155565b61026f604051806101200160405280600081526020016000815260200160008152602001600081526020016000815260200160008152602001600081526020016000815260200160006001600160a01b031681525090565b5060009081526020818152604091829020825161012081018452815481526001820154928101929092526002810154928201929092526003820154606082015260048201546080820152600582015460a0820152600682015460c0820152600782015460e08201526008909101546001600160a01b031661010082015290565b6000828152602081905260409020541561035f5760405162461bcd60e51b815260206004820152602660248201527f4d61726b65745661756c743a206d61726b657420616c726561647920726567696044820152651cdd195c995960d21b60648201526084015b60405180910390fd5b6000918252602082815260409283902082518155908201516001820155918101516002830155606081015160038301556080810151600483015560a0810151600583015560c0810151600683015560e081015160078301556101000151600890910180546001600160a01b0319166001600160a01b03909216919091179055565b6000818152602081815260408083208151610120810183528154815260018201549381018490526002820154928101929092526003810154606083015260048101546080830152600581015460a0830152600681015460c0830152600781015460e0830152600801546001600160a01b03166101008201529082036104b25760405162461bcd60e51b815260206004820152602260248201527f4d61726b65745661756c743a2070726963655469636b53697a65206e6f742073604482015261195d60f21b6064820152608401610356565b6020015192915050565b6000602082840312156104ce57600080fd5b5035919050565b604051610120810167ffffffffffffffff8111828210171561050757634e487b7160e01b600052604160045260246000fd5b60405290565b80356001600160a01b038116811461052457600080fd5b919050565b60008082840361014081121561053e57600080fd5b8335925061012080601f198301121561055657600080fd5b61055e6104d5565b91506020850135825260408501356020830152606085013560408301526080850135606083015260a0850135608083015260c085013560a083015260e085013560c08301526101008086013560e08401526105ba82870161050d565b9083015250919491935090915050565b600080604083850312156105dd57600080fd5b5050803592602090910135915056fea264697066735822122046741c6e5f9854e912fac93c03388ff5a7b4db34e641e292f137630fbd0db19164736f6c63430008120033",
  "linkReferences": {},
  "deployedLinkReferences": {}
}