{
  "_format": "hh-sol-artifact-1",
  "contractName": "PositionUtils",
  "sourceName": "contracts/position/PositionUtils.sol",
  "abi": [
    {
      "inputs": [
        {
          "internalType": "uint256",
          "name": "_prevSize",
          "type": "uint256"
        },
        {
          "internalType": "int256",
          "name": "_prevAvgEntryFundingIndex",
          "type": "int256"
        },
        {
          "internalType": "uint256",
          "name": "_sizeDeltaAbs",
          "type": "uint256"
        },
        {
          "internalType": "int256",
          "name": "_currentFundingIndex",
          "type": "int256"
        }
      ],
      "name": "_getNextAvgEntryFundingIndex",
      "outputs": [
        {
          "internalType": "int256",
          "name": "",
          "type": "int256"
        }
      ],
      "stateMutability": "pure",
      "type": "function"
    },
    {
      "inputs": [
        {
          "internalType": "uint256",
          "name": "_prevSize",
          "type": "uint256"
        },
        {
          "internalType": "uint256",
          "name": "_prevAvgPrice",
          "type": "uint256"
        },
        {
          "internalType": "uint256",
          "name": "_sizeDeltaAbs",
          "type": "uint256"
        },
        {
          "internalType": "uint256",
          "name": "_markPrice",
          "type": "uint256"
        }
      ],
      "name": "_getNextAvgPrice",
      "outputs": [
        {
          "internalType": "uint256",
          "name": "",
          "type": "uint256"
        }
      ],
      "stateMutability": "pure",
      "type": "function"
    }
  ],
  "bytecode": "0x6101e461003a600b82828239805160001a60731461002d57634e487b7160e01b600052600060045260246000fd5b30600052607381538281f3fe73000000000000000000000000000000000000000030146080604052600436106100405760003560e01c8063c901b33d14610045578063d5f1543d1461006a575b600080fd5b610058610053366004610163565b61007d565b60405190815260200160405180910390f35b610058610078366004610163565b610113565b6040516365271fa160e01b81526004810184905260248101829052604481018590526064810183905260009073__$2fd9b049b395f2393b7444f3bf5e98655a$__906365271fa1906084015b602060405180830381865af41580156100e6573d6000803e3d6000fd5b505050506040513d601f19601f8201168201806040525081019061010a9190610195565b95945050505050565b604051639cfe687b60e01b81526004810184905260248101829052604481018590526064810183905260009073__$2fd9b049b395f2393b7444f3bf5e98655a$__90639cfe687b906084016100c9565b6000806000806080858703121561017957600080fd5b5050823594602084013594506040840135936060013592509050565b6000602082840312156101a757600080fd5b505191905056fea264697066735822122005ffc45362f23c046cd32d8ff170048cd226ba72fb41d07977673ac3f231e9fd64736f6c63430008120033",
  "linkReferences": {
    "contracts/utils/MathUtils.sol": {
      "MathUtils": [
        {
          "length": 20,
          "start": 229
        },
        {
          "length": 20,
          "start": 379
        }
      ]
    }
  },
  "deployedLinkReferences": {
    "contracts/utils/MathUtils.sol": {
      "MathUtils": [
        {
          "length": 20,
          "start": 171
        },
        {
          "length": 20,
          "start": 321
        }
      ]
    }
  }
}