{
  "_format": "hh-sol-artifact-1",
  "contractName": "PnlUtils",
  "sourceName": "contracts/position/PnlUtils.sol",
  "abi": [
    {
      "inputs": [
        {
          "internalType": "uint256",
          "name": "_size",
          "type": "uint256"
        },
        {
          "internalType": "uint256",
          "name": "_averagePrice",
          "type": "uint256"
        },
        {
          "internalType": "uint256",
          "name": "_markPrice",
          "type": "uint256"
        },
        {
          "internalType": "bool",
          "name": "_isLong",
          "type": "bool"
        }
      ],
      "name": "_calculatePnL",
      "outputs": [
        {
          "internalType": "int256",
          "name": "",
          "type": "int256"
        }
      ],
      "stateMutability": "pure",
      "type": "function"
    }
  ],
  "bytecode": "0x6102ae61003a600b82828239805160001a60731461002d57634e487b7160e01b600052600060045260246000fd5b30600052607381538281f3fe73000000000000000000000000000000000000000030146080604052600436106100355760003560e01c80632d43eefb1461003a575b600080fd5b61004d610048366004610183565b61005f565b60405190815260200160405180910390f35b600080826100b957610078670de0b6b3a7640000610111565b61008185610111565b61008a87610111565b61009491906101df565b61009d88610111565b6100a79190610206565b6100b1919061023c565b905080610107565b6100ca670de0b6b3a7640000610111565b6100d386610111565b6100dc86610111565b6100e691906101df565b6100ef88610111565b6100f99190610206565b610103919061023c565b9050805b5095945050505050565b60006001600160ff1b0382111561017f5760405162461bcd60e51b815260206004820152602860248201527f53616665436173743a2076616c756520646f65736e27742066697420696e2061604482015267371034b73a191a9b60c11b606482015260840160405180910390fd5b5090565b6000806000806080858703121561019957600080fd5b843593506020850135925060408501359150606085013580151581146101be57600080fd5b939692955090935050565b634e487b7160e01b600052601160045260246000fd5b81810360008312801583831316838312821617156101ff576101ff6101c9565b5092915050565b80820260008212600160ff1b84141615610222576102226101c9565b8181058314821517610236576102366101c9565b92915050565b60008261025957634e487b7160e01b600052601260045260246000fd5b600160ff1b821460001984141615610273576102736101c9565b50059056fea2646970667358221220ce9be9b884f5395211b8242c5740cb1f3ce60d1188f564ccfc23dc1d9bd0992564736f6c63430008120033",
  "linkReferences": {},
  "deployedLinkReferences": {}
}