{
  "_format": "hh-sol-artifact-1",
  "contractName": "L2LiquidityGateway",
  "sourceName": "contracts/crosschain/L2LiquidityGateway.sol",
  "abi": [
    {
      "inputs": [
        {
          "internalType": "address",
          "name": "_inbox",
          "type": "address"
        },
        {
          "internalType": "address",
          "name": "_l2Vault",
          "type": "address"
        },
        {
          "internalType": "address",
          "name": "_market",
          "type": "address"
        },
        {
          "internalType": "address",
          "name": "_risePoolUtils",
          "type": "address"
        }
      ],
      "stateMutability": "nonpayable",
      "type": "constructor"
    },
    {
      "inputs": [
        {
          "internalType": "address",
          "name": "sender",
          "type": "address"
        }
      ],
      "name": "NotBridge",
      "type": "error"
    },
    {
      "inputs": [
        {
          "internalType": "address",
          "name": "_recipient",
          "type": "address"
        },
        {
          "internalType": "uint256",
          "name": "_amount",
          "type": "uint256"
        },
        {
          "internalType": "address",
          "name": "_token",
          "type": "address"
        }
      ],
      "name": "_removeERC20LiquidityFromOutbox",
      "outputs": [],
      "stateMutability": "nonpayable",
      "type": "function"
    },
    {
      "inputs": [
        {
          "internalType": "address",
          "name": "_recipient",
          "type": "address"
        },
        {
          "internalType": "uint256",
          "name": "_amount",
          "type": "uint256"
        }
      ],
      "name": "_removeEthLiquidityFromOutbox",
      "outputs": [],
      "stateMutability": "nonpayable",
      "type": "function"
    },
    {
      "inputs": [
        {
          "internalType": "address",
          "name": "_token",
          "type": "address"
        },
        {
          "internalType": "uint256",
          "name": "_marketId",
          "type": "uint256"
        },
        {
          "internalType": "bool",
          "name": "_isLongReserve",
          "type": "bool"
        },
        {
          "internalType": "uint256",
          "name": "_addAmount",
          "type": "uint256"
        },
        {
          "components": [
            {
              "internalType": "uint256",
              "name": "_maxSubmissionCost",
              "type": "uint256"
            },
            {
              "internalType": "uint256",
              "name": "_gasLimit",
              "type": "uint256"
            },
            {
              "internalType": "uint256",
              "name": "_gasPriceBid",
              "type": "uint256"
            }
          ],
          "internalType": "struct L2ToL3FeeParams",
          "name": "p",
          "type": "tuple"
        }
      ],
      "name": "addERC20LiquidityToL3",
      "outputs": [
        {
          "internalType": "uint256",
          "name": "",
          "type": "uint256"
        }
      ],
      "stateMutability": "payable",
      "type": "function"
    },
    {
      "inputs": [
        {
          "internalType": "uint256",
          "name": "_marketId",
          "type": "uint256"
        },
        {
          "internalType": "bool",
          "name": "_isLongReserve",
          "type": "bool"
        },
        {
          "internalType": "uint256",
          "name": "_addAmount",
          "type": "uint256"
        },
        {
          "components": [
            {
              "internalType": "uint256",
              "name": "_maxSubmissionCost",
              "type": "uint256"
            },
            {
              "internalType": "uint256",
              "name": "_gasLimit",
              "type": "uint256"
            },
            {
              "internalType": "uint256",
              "name": "_gasPriceBid",
              "type": "uint256"
            }
          ],
          "internalType": "struct L2ToL3FeeParams",
          "name": "p",
          "type": "tuple"
        }
      ],
      "name": "addEthLiquidityToL3",
      "outputs": [
        {
          "internalType": "uint256",
          "name": "",
          "type": "uint256"
        }
      ],
      "stateMutability": "payable",
      "type": "function"
    },
    {
      "inputs": [
        {
          "internalType": "address",
          "name": "",
          "type": "address"
        }
      ],
      "name": "allowedBridgesMap",
      "outputs": [
        {
          "internalType": "uint256",
          "name": "index",
          "type": "uint256"
        },
        {
          "internalType": "bool",
          "name": "allowed",
          "type": "bool"
        }
      ],
      "stateMutability": "view",
      "type": "function"
    },
    {
      "inputs": [],
      "name": "inbox",
      "outputs": [
        {
          "internalType": "contract IInbox",
          "name": "",
          "type": "address"
        }
      ],
      "stateMutability": "view",
      "type": "function"
    },
    {
      "inputs": [
        {
          "internalType": "address",
          "name": "_l3GatewayAddress",
          "type": "address"
        }
      ],
      "name": "initialize",
      "outputs": [],
      "stateMutability": "nonpayable",
      "type": "function"
    },
    {
      "inputs": [],
      "name": "l2Vault",
      "outputs": [
        {
          "internalType": "contract L2Vault",
          "name": "",
          "type": "address"
        }
      ],
      "stateMutability": "view",
      "type": "function"
    },
    {
      "inputs": [],
      "name": "l3GatewayAddress",
      "outputs": [
        {
          "internalType": "address",
          "name": "",
          "type": "address"
        }
      ],
      "stateMutability": "view",
      "type": "function"
    },
    {
      "inputs": [],
      "name": "market",
      "outputs": [
        {
          "internalType": "contract Market",
          "name": "",
          "type": "address"
        }
      ],
      "stateMutability": "view",
      "type": "function"
    },
    {
      "inputs": [],
      "name": "risePoolUtils",
      "outputs": [
        {
          "internalType": "contract RisePoolUtils",
          "name": "",
          "type": "address"
        }
      ],
      "stateMutability": "view",
      "type": "function"
    },
    {
      "inputs": [
        {
          "internalType": "address",
          "name": "_allowedBridge",
          "type": "address"
        }
      ],
      "name": "setAllowedBridge",
      "outputs": [],
      "stateMutability": "nonpayable",
      "type": "function"
    },
    {
      "inputs": [
        {
          "internalType": "uint256",
          "name": "_marketId",
          "type": "uint256"
        },
        {
          "internalType": "bool",
          "name": "_isLongReserve",
          "type": "bool"
        },
        {
          "internalType": "uint256",
          "name": "_withdrawAmount",
          "type": "uint256"
        },
        {
          "components": [
            {
              "internalType": "uint256",
              "name": "_maxSubmissionCost",
              "type": "uint256"
            },
            {
              "internalType": "uint256",
              "name": "_gasLimit",
              "type": "uint256"
            },
            {
              "internalType": "uint256",
              "name": "_gasPriceBid",
              "type": "uint256"
            }
          ],
          "internalType": "struct L2ToL3FeeParams",
          "name": "p",
          "type": "tuple"
        }
      ],
      "name": "triggerRemoveLiquidityFromL2",
      "outputs": [
        {
          "internalType": "uint256",
          "name": "",
          "type": "uint256"
        }
      ],
      "stateMutability": "payable",
      "type": "function"
    }
  ],
  "bytecode": "0x60806040523480156200001157600080fd5b50604051620013a6380380620013a68339810160408190526200003491620000a5565b600480546001600160a01b039586166001600160a01b031991821617909155600280549486169482169490941790935560038054928516928416929092179091556001805491909316911617905562000102565b80516001600160a01b0381168114620000a057600080fd5b919050565b60008060008060808587031215620000bc57600080fd5b620000c78562000088565b9350620000d76020860162000088565b9250620000e76040860162000088565b9150620000f76060860162000088565b905092959194509250565b61129480620001126000396000f3fe6080604052600436106100b25760003560e01c806380f556051161006f57806380f5560514610190578063c4d66de8146101b0578063d6470f0a146101d0578063e33614f11461021c578063e74c33121461022f578063f44241f91461024f578063fb0e722b1461026257600080fd5b8063223af43b146100b757806334834020146100ed57806360cb5cfc1461010d578063611fe70c1461012e578063655f8f44146101505780636b3073a514610170575b600080fd5b3480156100c357600080fd5b506001546100d7906001600160a01b031681565b6040516100e49190610e0f565b60405180910390f35b3480156100f957600080fd5b506002546100d7906001600160a01b031681565b61012061011b366004610eda565b610282565b6040519081526020016100e4565b34801561013a57600080fd5b5061014e610149366004610f39565b610478565b005b34801561015c57600080fd5b5061014e61016b366004610f65565b61051d565b34801561017c57600080fd5b5061014e61018b366004610fa7565b6105c5565b34801561019c57600080fd5b506003546100d7906001600160a01b031681565b3480156101bc57600080fd5b5061014e6101cb366004610fa7565b610654565b3480156101dc57600080fd5b506102076101eb366004610fa7565b6005602052600090815260409020805460019091015460ff1682565b604080519283529015156020830152016100e4565b61012061022a366004610fcb565b6106cf565b34801561023b57600080fd5b506000546100d7906001600160a01b031681565b61012061025d366004610eda565b610a3e565b34801561026e57600080fd5b506004546100d7906001600160a01b031681565b600354604051633ec7919360e01b81526004810186905260009182916001600160a01b0390911690633ec791939060240161012060405180830381865afa1580156102d1573d6000803e3d6000fd5b505050506040513d601f19601f820116820180604052508101906102f59190611030565b610100810151604051632770a7eb60e21b8152919250906001600160a01b03821690639dc29fac9061032d90339089906004016110ae565b600060405180830381600087803b15801561034757600080fd5b505af115801561035b573d6000803e3d6000fd5b505060408051602481018b9052891515604482015233606482015260848082018a90528251808303909101815260a49091018252602080820180516001600160e01b031663720e607760e01b1790526004549289015190890151919450600093506001600160a01b039092169163679b6ded916103d891906110dd565b88516103e491906110fa565b600080548a5160208c01516040808e015190516001600160e01b031960e089901b168152610428956001600160a01b03909516949392339283928d9060040161110d565b60206040518083038185885af1158015610446573d6000803e3d6000fd5b50505050506040513d601f19601f8201168201806040525081019061046b91906111a5565b9998505050505050505050565b3360009081526005602052604090206001015460ff166104b65733604051637c8da0cf60e11b81526004016104ad9190610e0f565b60405180910390fd5b600254604051626ef9d760e41b81526001600160a01b03909116906306ef9d70906104e790859085906004016110ae565b600060405180830381600087803b15801561050157600080fd5b505af1158015610515573d6000803e3d6000fd5b505050505050565b3360009081526005602052604090206001015460ff166105525733604051637c8da0cf60e11b81526004016104ad9190610e0f565b600254604051636180f9a760e11b81526001600160a01b0383811660048301526024820185905285811660448301529091169063c301f34e90606401600060405180830381600087803b1580156105a857600080fd5b505af11580156105bc573d6000803e3d6000fd5b50505050505050565b6001600160a01b0381166000908152600560205260409020541561062b5760405162461bcd60e51b815260206004820152601a60248201527f4c32476174657761793a20616c726561647920616c6c6f77656400000000000060448201526064016104ad565b6001600160a01b031660009081526005602052604090206001908101805460ff19169091179055565b6000546001600160a01b0316156106ad5760405162461bcd60e51b815260206004820152601e60248201527f4c32476174657761793a20616c726561647920696e697469616c697a6564000060448201526064016104ad565b600080546001600160a01b0319166001600160a01b0392909216919091179055565b60008083116106f05760405162461bcd60e51b81526004016104ad906111be565b8160400151826020015161070491906110dd565b825161071091906110fa565b34101561072f5760405162461bcd60e51b81526004016104ad9061120a565b600254604051636b2fc86560e11b81523360048201526001600160a01b038881166024830152604482018690529091169063d65f90ca90606401600060405180830381600087803b15801561078357600080fd5b505af1158015610797573d6000803e3d6000fd5b50506040805160248101899052871515604482015260648082018890528251808303909101815260849091018252602080820180516001600160e01b03166332cbde4d60e11b1790526004549287015190870151919450600093506001600160a01b039092169163679b6ded9161080e91906110dd565b865161081a91906110fa565b60008054885160208a01516040808c015190516001600160e01b031960e089901b16815261085e956001600160a01b03909516949392339283928d9060040161110d565b60206040518083038185885af115801561087c573d6000803e3d6000fd5b50505050506040513d601f19601f820116820180604052508101906108a191906111a5565b90506108d633856040015186602001516108bb91906110dd565b86516108c791906110fa565b6108d1903461124b565b610d5b565b600354604051633ec7919360e01b8152600481018990526000916001600160a01b031690633ec791939060240161012060405180830381865afa158015610921573d6000803e3d6000fd5b505050506040513d601f19601f820116820180604052508101906109459190611030565b9050600081610100015190506000600160009054906101000a90046001600160a01b03166001600160a01b031663a8995deb6040518163ffffffff1660e01b81526004016020604051808303816000875af11580156109a8573d6000803e3d6000fd5b505050506040513d601f19601f820116820180604052508101906109cc91906111a5565b6040516340c10f1960e01b81529091506001600160a01b038316906340c10f19906109fd90339085906004016110ae565b600060405180830381600087803b158015610a1757600080fd5b505af1158015610a2b573d6000803e3d6000fd5b50959d9c50505050505050505050505050565b6000808311610a5f5760405162461bcd60e51b81526004016104ad906111be565b81604001518260200151610a7391906110dd565b8251610a7f90856110fa565b610a8991906110fa565b341015610aa85760405162461bcd60e51b81526004016104ad9061120a565b600254610abe906001600160a01b031684610d5b565b6040805160248101879052851515604482015260648082018690528251808303909101815260849091018252602080820180516001600160e01b03166332cbde4d60e11b179052600454928501519085015191926000926001600160a01b039091169163679b6ded91610b3191906110dd565b8651610b3d91906110fa565b60008054885160208a01516040808c015190516001600160e01b031960e089901b168152610b81956001600160a01b03909516949392339283928d9060040161110d565b60206040518083038185885af1158015610b9f573d6000803e3d6000fd5b50505050506040513d601f19601f82011682018060405250810190610bc491906111a5565b9050610bf43385604001518660200151610bde91906110dd565b8651610bea90896110fa565b6108c791906110fa565b600354604051633ec7919360e01b8152600481018990526000916001600160a01b031690633ec791939060240161012060405180830381865afa158015610c3f573d6000803e3d6000fd5b505050506040513d601f19601f82011682018060405250810190610c639190611030565b9050600081610100015190506000600160009054906101000a90046001600160a01b03166001600160a01b031663a8995deb6040518163ffffffff1660e01b81526004016020604051808303816000875af1158015610cc6573d6000803e3d6000fd5b505050506040513d601f19601f82011682018060405250810190610cea91906111a5565b6040516340c10f1960e01b81529091506001600160a01b038316906340c10f1990610d1b90339085906004016110ae565b600060405180830381600087803b158015610d3557600080fd5b505af1158015610d49573d6000803e3d6000fd5b50959c9b505050505050505050505050565b6000826001600160a01b03168260405160006040518083038185875af1925050503d8060008114610da8576040519150601f19603f3d011682016040523d82523d6000602084013e610dad565b606091505b5050905080610e0a5760405162461bcd60e51b815260206004820152602360248201527f5472616e7366657248656c7065723a20455448207472616e73666572206661696044820152621b195960ea1b60648201526084016104ad565b505050565b6001600160a01b0391909116815260200190565b80358015158114610e3357600080fd5b919050565b604051610120810167ffffffffffffffff81118282101715610e6a57634e487b7160e01b600052604160045260246000fd5b60405290565b600060608284031215610e8257600080fd5b6040516060810181811067ffffffffffffffff82111715610eb357634e487b7160e01b600052604160045260246000fd5b80604052508091508235815260208301356020820152604083013560408201525092915050565b60008060008060c08587031215610ef057600080fd5b84359350610f0060208601610e23565b925060408501359150610f168660608701610e70565b905092959194509250565b6001600160a01b0381168114610f3657600080fd5b50565b60008060408385031215610f4c57600080fd5b8235610f5781610f21565b946020939093013593505050565b600080600060608486031215610f7a57600080fd5b8335610f8581610f21565b9250602084013591506040840135610f9c81610f21565b809150509250925092565b600060208284031215610fb957600080fd5b8135610fc481610f21565b9392505050565b600080600080600060e08688031215610fe357600080fd5b8535610fee81610f21565b94506020860135935061100360408701610e23565b9250606086013591506110198760808801610e70565b90509295509295909350565b8051610e3381610f21565b6000610120828403121561104357600080fd5b61104b610e38565b825181526020830151602082015260408301516040820152606083015160608201526080830151608082015260a083015160a082015260c083015160c082015260e083015160e08201526101006110a3818501611025565b908201529392505050565b6001600160a01b03929092168252602082015260400190565b634e487b7160e01b600052601160045260246000fd5b80820281158282048414176110f4576110f46110c7565b92915050565b808201808211156110f4576110f46110c7565b600061010060018060a01b03808c16845260208b818601528a6040860152818a16606086015281891660808601528760a08601528660c08601528260e0860152855191508183860152600092505b8183101561117a5785830181015185840161012001529182019161115b565b506101209150600082828601015281601f19601f830116850101925050509998505050505050505050565b6000602082840312156111b757600080fd5b5051919050565b6020808252602c908201527f4c32476174657761793a206465706f73697420616d6f756e742073686f756c6460408201526b20626520706f73697469766560a01b606082015260800190565b60208082526021908201527f4c32476174657761793a20696e73756666696369656e74206d73672e76616c756040820152606560f81b606082015260800190565b818103818111156110f4576110f46110c756fea2646970667358221220739fe8be0ebac7df30a2b1761a1f40c74b8c199a6c0bf9ec4815a7d1aeda805c64736f6c63430008120033",
  "linkReferences": {},
  "deployedLinkReferences": {}
}