{
  "_format": "hh-sol-artifact-1",
  "contractName": "OrderBook",
  "sourceName": "contracts/orderbook/OrderBook.sol",
  "abi": [
    {
      "inputs": [
        {
          "internalType": "address",
          "name": "_traderVault",
          "type": "address"
        },
        {
          "internalType": "address",
          "name": "_risePool",
          "type": "address"
        },
        {
          "internalType": "address",
          "name": "_funding",
          "type": "address"
        },
        {
          "internalType": "address",
          "name": "_market",
          "type": "address"
        },
        {
          "internalType": "address",
          "name": "_positionHistory",
          "type": "address"
        },
        {
          "internalType": "address",
          "name": "_positionVault",
          "type": "address"
        },
        {
          "internalType": "address",
          "name": "_priceFetcher",
          "type": "address"
        },
        {
          "internalType": "address",
          "name": "_positionFee",
          "type": "address"
        }
      ],
      "stateMutability": "nonpayable",
      "type": "constructor"
    },
    {
      "inputs": [
        {
          "internalType": "uint256",
          "name": "",
          "type": "uint256"
        },
        {
          "internalType": "uint256",
          "name": "",
          "type": "uint256"
        }
      ],
      "name": "buyFirstIndex",
      "outputs": [
        {
          "internalType": "uint256",
          "name": "",
          "type": "uint256"
        }
      ],
      "stateMutability": "view",
      "type": "function"
    },
    {
      "inputs": [
        {
          "internalType": "uint256",
          "name": "",
          "type": "uint256"
        },
        {
          "internalType": "uint256",
          "name": "",
          "type": "uint256"
        }
      ],
      "name": "buyLastIndex",
      "outputs": [
        {
          "internalType": "uint256",
          "name": "",
          "type": "uint256"
        }
      ],
      "stateMutability": "view",
      "type": "function"
    },
    {
      "inputs": [
        {
          "components": [
            {
              "internalType": "address",
              "name": "trader",
              "type": "address"
            },
            {
              "internalType": "bool",
              "name": "isLong",
              "type": "bool"
            },
            {
              "internalType": "bool",
              "name": "isIncrease",
              "type": "bool"
            },
            {
              "internalType": "enum OrderType",
              "name": "orderType",
              "type": "uint8"
            },
            {
              "internalType": "uint256",
              "name": "marketId",
              "type": "uint256"
            },
            {
              "internalType": "uint256",
              "name": "sizeAbs",
              "type": "uint256"
            },
            {
              "internalType": "uint256",
              "name": "marginAbs",
              "type": "uint256"
            },
            {
              "internalType": "uint256",
              "name": "limitPrice",
              "type": "uint256"
            }
          ],
          "internalType": "struct OrderRequest",
          "name": "req",
          "type": "tuple"
        },
        {
          "internalType": "bool",
          "name": "_isBuy",
          "type": "bool"
        }
      ],
      "name": "dequeueOrderBook",
      "outputs": [],
      "stateMutability": "nonpayable",
      "type": "function"
    },
    {
      "inputs": [
        {
          "components": [
            {
              "internalType": "address",
              "name": "trader",
              "type": "address"
            },
            {
              "internalType": "bool",
              "name": "isLong",
              "type": "bool"
            },
            {
              "internalType": "bool",
              "name": "isIncrease",
              "type": "bool"
            },
            {
              "internalType": "enum OrderType",
              "name": "orderType",
              "type": "uint8"
            },
            {
              "internalType": "uint256",
              "name": "marketId",
              "type": "uint256"
            },
            {
              "internalType": "uint256",
              "name": "sizeAbs",
              "type": "uint256"
            },
            {
              "internalType": "uint256",
              "name": "marginAbs",
              "type": "uint256"
            },
            {
              "internalType": "uint256",
              "name": "limitPrice",
              "type": "uint256"
            }
          ],
          "internalType": "struct OrderRequest",
          "name": "req",
          "type": "tuple"
        },
        {
          "internalType": "bool",
          "name": "_isBuy",
          "type": "bool"
        }
      ],
      "name": "enqueueOrderBook",
      "outputs": [],
      "stateMutability": "nonpayable",
      "type": "function"
    },
    {
      "inputs": [
        {
          "internalType": "bool",
          "name": "_isBuy",
          "type": "bool"
        },
        {
          "internalType": "uint256",
          "name": "_marketId",
          "type": "uint256"
        }
      ],
      "name": "executeLimitOrders",
      "outputs": [],
      "stateMutability": "nonpayable",
      "type": "function"
    },
    {
      "inputs": [],
      "name": "funding",
      "outputs": [
        {
          "internalType": "contract Funding",
          "name": "",
          "type": "address"
        }
      ],
      "stateMutability": "view",
      "type": "function"
    },
    {
      "inputs": [
        {
          "internalType": "bool",
          "name": "_isBuy",
          "type": "bool"
        },
        {
          "internalType": "uint256",
          "name": "_marketId",
          "type": "uint256"
        },
        {
          "internalType": "uint256",
          "name": "_price",
          "type": "uint256"
        },
        {
          "internalType": "uint256",
          "name": "_orderIndex",
          "type": "uint256"
        }
      ],
      "name": "getOrderRequest",
      "outputs": [
        {
          "components": [
            {
              "internalType": "address",
              "name": "trader",
              "type": "address"
            },
            {
              "internalType": "bool",
              "name": "isLong",
              "type": "bool"
            },
            {
              "internalType": "bool",
              "name": "isIncrease",
              "type": "bool"
            },
            {
              "internalType": "enum OrderType",
              "name": "orderType",
              "type": "uint8"
            },
            {
              "internalType": "uint256",
              "name": "marketId",
              "type": "uint256"
            },
            {
              "internalType": "uint256",
              "name": "sizeAbs",
              "type": "uint256"
            },
            {
              "internalType": "uint256",
              "name": "marginAbs",
              "type": "uint256"
            },
            {
              "internalType": "uint256",
              "name": "limitPrice",
              "type": "uint256"
            }
          ],
          "internalType": "struct OrderRequest",
          "name": "",
          "type": "tuple"
        }
      ],
      "stateMutability": "view",
      "type": "function"
    },
    {
      "inputs": [],
      "name": "globalState",
      "outputs": [
        {
          "internalType": "contract GlobalState",
          "name": "",
          "type": "address"
        }
      ],
      "stateMutability": "view",
      "type": "function"
    },
    {
      "inputs": [],
      "name": "market",
      "outputs": [
        {
          "internalType": "contract Market",
          "name": "",
          "type": "address"
        }
      ],
      "stateMutability": "view",
      "type": "function"
    },
    {
      "inputs": [
        {
          "internalType": "uint256",
          "name": "",
          "type": "uint256"
        }
      ],
      "name": "maxBidPrice",
      "outputs": [
        {
          "internalType": "uint256",
          "name": "",
          "type": "uint256"
        }
      ],
      "stateMutability": "view",
      "type": "function"
    },
    {
      "inputs": [
        {
          "internalType": "uint256",
          "name": "",
          "type": "uint256"
        }
      ],
      "name": "minAskPrice",
      "outputs": [
        {
          "internalType": "uint256",
          "name": "",
          "type": "uint256"
        }
      ],
      "stateMutability": "view",
      "type": "function"
    },
    {
      "inputs": [],
      "name": "orderHistory",
      "outputs": [
        {
          "internalType": "contract OrderHistory",
          "name": "",
          "type": "address"
        }
      ],
      "stateMutability": "view",
      "type": "function"
    },
    {
      "inputs": [
        {
          "internalType": "uint256",
          "name": "",
          "type": "uint256"
        },
        {
          "internalType": "uint256",
          "name": "",
          "type": "uint256"
        }
      ],
      "name": "orderSizeForPriceTick",
      "outputs": [
        {
          "internalType": "uint256",
          "name": "",
          "type": "uint256"
        }
      ],
      "stateMutability": "view",
      "type": "function"
    },
    {
      "inputs": [
        {
          "internalType": "address",
          "name": "",
          "type": "address"
        },
        {
          "internalType": "uint256",
          "name": "",
          "type": "uint256"
        }
      ],
      "name": "pendingOrders",
      "outputs": [
        {
          "internalType": "address",
          "name": "trader",
          "type": "address"
        },
        {
          "internalType": "bool",
          "name": "isLong",
          "type": "bool"
        },
        {
          "internalType": "bool",
          "name": "isIncrease",
          "type": "bool"
        },
        {
          "internalType": "enum OrderType",
          "name": "orderType",
          "type": "uint8"
        },
        {
          "internalType": "uint256",
          "name": "marketId",
          "type": "uint256"
        },
        {
          "internalType": "uint256",
          "name": "sizeAbs",
          "type": "uint256"
        },
        {
          "internalType": "uint256",
          "name": "marginAbs",
          "type": "uint256"
        },
        {
          "internalType": "uint256",
          "name": "limitPrice",
          "type": "uint256"
        }
      ],
      "stateMutability": "view",
      "type": "function"
    },
    {
      "inputs": [
        {
          "components": [
            {
              "internalType": "address",
              "name": "trader",
              "type": "address"
            },
            {
              "internalType": "bool",
              "name": "isLong",
              "type": "bool"
            },
            {
              "internalType": "bool",
              "name": "isIncrease",
              "type": "bool"
            },
            {
              "internalType": "enum OrderType",
              "name": "orderType",
              "type": "uint8"
            },
            {
              "internalType": "uint256",
              "name": "marketId",
              "type": "uint256"
            },
            {
              "internalType": "uint256",
              "name": "sizeAbs",
              "type": "uint256"
            },
            {
              "internalType": "uint256",
              "name": "marginAbs",
              "type": "uint256"
            },
            {
              "internalType": "uint256",
              "name": "limitPrice",
              "type": "uint256"
            }
          ],
          "internalType": "struct OrderRequest",
          "name": "req",
          "type": "tuple"
        }
      ],
      "name": "placeLimitOrder",
      "outputs": [],
      "stateMutability": "nonpayable",
      "type": "function"
    },
    {
      "inputs": [],
      "name": "positionFee",
      "outputs": [
        {
          "internalType": "contract PositionFee",
          "name": "",
          "type": "address"
        }
      ],
      "stateMutability": "view",
      "type": "function"
    },
    {
      "inputs": [],
      "name": "positionHistory",
      "outputs": [
        {
          "internalType": "contract PositionHistory",
          "name": "",
          "type": "address"
        }
      ],
      "stateMutability": "view",
      "type": "function"
    },
    {
      "inputs": [],
      "name": "positionVault",
      "outputs": [
        {
          "internalType": "contract PositionVault",
          "name": "",
          "type": "address"
        }
      ],
      "stateMutability": "view",
      "type": "function"
    },
    {
      "inputs": [],
      "name": "priceFetcher",
      "outputs": [
        {
          "internalType": "contract PriceFetcher",
          "name": "",
          "type": "address"
        }
      ],
      "stateMutability": "view",
      "type": "function"
    },
    {
      "inputs": [],
      "name": "risePool",
      "outputs": [
        {
          "internalType": "contract RisePool",
          "name": "",
          "type": "address"
        }
      ],
      "stateMutability": "view",
      "type": "function"
    },
    {
      "inputs": [
        {
          "internalType": "uint256",
          "name": "",
          "type": "uint256"
        },
        {
          "internalType": "uint256",
          "name": "",
          "type": "uint256"
        }
      ],
      "name": "sellFirstIndex",
      "outputs": [
        {
          "internalType": "uint256",
          "name": "",
          "type": "uint256"
        }
      ],
      "stateMutability": "view",
      "type": "function"
    },
    {
      "inputs": [
        {
          "internalType": "uint256",
          "name": "",
          "type": "uint256"
        },
        {
          "internalType": "uint256",
          "name": "",
          "type": "uint256"
        }
      ],
      "name": "sellLastIndex",
      "outputs": [
        {
          "internalType": "uint256",
          "name": "",
          "type": "uint256"
        }
      ],
      "stateMutability": "view",
      "type": "function"
    },
    {
      "inputs": [
        {
          "internalType": "uint256",
          "name": "_marketId",
          "type": "uint256"
        },
        {
          "internalType": "uint256",
          "name": "_price",
          "type": "uint256"
        }
      ],
      "name": "setMaxBidPrice",
      "outputs": [],
      "stateMutability": "nonpayable",
      "type": "function"
    },
    {
      "inputs": [
        {
          "internalType": "uint256",
          "name": "_marketId",
          "type": "uint256"
        },
        {
          "internalType": "uint256",
          "name": "_price",
          "type": "uint256"
        }
      ],
      "name": "setMinAskPrice",
      "outputs": [],
      "stateMutability": "nonpayable",
      "type": "function"
    },
    {
      "inputs": [
        {
          "components": [
            {
              "internalType": "address",
              "name": "trader",
              "type": "address"
            },
            {
              "internalType": "bool",
              "name": "isLong",
              "type": "bool"
            },
            {
              "internalType": "int256",
              "name": "unrealizedPnl",
              "type": "int256"
            },
            {
              "internalType": "uint256",
              "name": "currentPositionRecordId",
              "type": "uint256"
            },
            {
              "internalType": "uint256",
              "name": "marketId",
              "type": "uint256"
            },
            {
              "internalType": "uint256",
              "name": "size",
              "type": "uint256"
            },
            {
              "internalType": "uint256",
              "name": "margin",
              "type": "uint256"
            },
            {
              "internalType": "uint256",
              "name": "avgOpenPrice",
              "type": "uint256"
            },
            {
              "internalType": "uint256",
              "name": "lastUpdatedTime",
              "type": "uint256"
            },
            {
              "internalType": "int256",
              "name": "avgEntryFundingIndex",
              "type": "int256"
            }
          ],
          "internalType": "struct OpenPosition",
          "name": "_position",
          "type": "tuple"
        },
        {
          "internalType": "bool",
          "name": "_isLong",
          "type": "bool"
        },
        {
          "internalType": "uint256",
          "name": "_executionPrice",
          "type": "uint256"
        },
        {
          "internalType": "uint256",
          "name": "_marketId",
          "type": "uint256"
        },
        {
          "internalType": "uint256",
          "name": "_sizeAbs",
          "type": "uint256"
        },
        {
          "internalType": "uint256",
          "name": "_marginAbs",
          "type": "uint256"
        }
      ],
      "name": "settlePnL",
      "outputs": [
        {
          "internalType": "int256",
          "name": "",
          "type": "int256"
        }
      ],
      "stateMutability": "nonpayable",
      "type": "function"
    },
    {
      "inputs": [],
      "name": "tokenInfo",
      "outputs": [
        {
          "internalType": "contract TokenInfo",
          "name": "",
          "type": "address"
        }
      ],
      "stateMutability": "view",
      "type": "function"
    },
    {
      "inputs": [
        {
          "internalType": "address",
          "name": "",
          "type": "address"
        }
      ],
      "name": "traderOrderRequestCounts",
      "outputs": [
        {
          "internalType": "uint256",
          "name": "",
          "type": "uint256"
        }
      ],
      "stateMutability": "view",
      "type": "function"
    },
    {
      "inputs": [],
      "name": "traderVault",
      "outputs": [
        {
          "internalType": "contract TraderVault",
          "name": "",
          "type": "address"
        }
      ],
      "stateMutability": "view",
      "type": "function"
    }
  ],
  "bytecode": "0x60806040523480156200001157600080fd5b5060405162003bc238038062003bc28339810160408190526200003491620000e4565b600b80546001600160a01b03199081166001600160a01b039a8b1617909155600c80548216988a1698909817909755600d8054881696891696909617909555600e8054871694881694909417909355600f8054861692871692909217909155601080548516918616919091179055601180548416928516929092179091556012805490921692169190911790556200018c565b80516001600160a01b0381168114620000df57600080fd5b919050565b600080600080600080600080610100898b0312156200010257600080fd5b6200010d89620000c7565b97506200011d60208a01620000c7565b96506200012d60408a01620000c7565b95506200013d60608a01620000c7565b94506200014d60808a01620000c7565b93506200015d60a08a01620000c7565b92506200016d60c08a01620000c7565b91506200017d60e08a01620000c7565b90509295985092959890939650565b613a26806200019c6000396000f3fe608060405234801561001057600080fd5b50600436106101845760003560e01c806398654aff116100d9578063cd7dfc9911610087578063cd7dfc9914610431578063d10a1d0c1461045c578063dfaae7f31461046f578063e0efd6ea1461048f578063e76c01e4146104ba578063eb4ebf4c146104cd578063f66ad163146104e057600080fd5b806398654aff1461036f578063a2e63b2c14610382578063aaffadec146103ad578063b728ffbc146103cd578063c1fc7410146103e0578063c8a8da061461040b578063cb4c86b71461041e57600080fd5b80636addb663116101365780636addb663146102485780636ef7ff251461025b5780637411e99f146102865780637c191e7a146102995780637cc4d340146102b957806380f556051461033c57806393cf3f931461034f57600080fd5b80630c679658146101895780630dbc9ce1146101bc5780631e71615b146101e75780632421d726146101fa57806326b5eb081461020d57806351ed0ee3146102225780635f8fa7b714610235575b600080fd5b6101a9610197366004612ffb565b60056020526000908152604090205481565b6040519081526020015b60405180910390f35b6011546101cf906001600160a01b031681565b6040516001600160a01b0390911681526020016101b3565b6013546101cf906001600160a01b031681565b6012546101cf906001600160a01b031681565b61022061021b3660046130fd565b610500565b005b600b546101cf906001600160a01b031681565b6102206102433660046131ad565b61085c565b6015546101cf906001600160a01b031681565b6101a96102693660046131d9565b600960209081526000928352604080842090915290825290205481565b600c546101cf906001600160a01b031681565b6101a96102a73660046131fb565b60006020819052908152604090205481565b6103286102c736600461321f565b60016020818152600093845260408085209091529183529120805491810154600282015460038301546004909301546001600160a01b0385169460ff600160a01b8204811695600160a81b8304821695600160b01b90930490911693919288565b6040516101b398979695949392919061327e565b600e546101cf906001600160a01b031681565b61036261035d3660046132d2565b61145f565b6040516101b3919061330d565b6010546101cf906001600160a01b031681565b6101a96103903660046131d9565b600860209081526000928352604080842090915290825290205481565b6102206103bb3660046131d9565b60009182526004602052604090912055565b600f546101cf906001600160a01b031681565b6101a96103ee3660046131d9565b600660209081526000928352604080842090915290825290205481565b6101a961041936600461337b565b6115fb565b600d546101cf906001600160a01b031681565b6101a961043f3660046131d9565b600a60209081526000928352604080842090915290825290205481565b61022061046a36600461345a565b611967565b6101a961047d366004612ffb565b60046020526000908152604090205481565b6101a961049d3660046131d9565b600760209081526000928352604080842090915290825290205481565b6014546101cf906001600160a01b031681565b6102206104db3660046130fd565b611bc4565b6102206104ee3660046131d9565b60009182526005602052604090912055565b80156106b757608082018051600090815260086020908152604080832060e08701805185529083528184205494518452600783528184209051845290915290205481158015906105505750600081115b6105b45760405162461bcd60e51b815260206004820152602a60248201527f426173654f72646572426f6f6b3a206275794f72646572426f6f6b20717565756044820152696520697320656d70747960b01b60648201526084015b60405180910390fd5b608084018051600090815260026020818152604080842060e08a0180518652908352818520878652835281852080546001600160b81b0319168155600181018690559384018590556003840185905560049093018490558451845260078252808420835185528252808420549451845260088252808420925184529190529020540361067d57608084018051600090815260086020908152604080832060e0890180518552908352818420849055935183526007825280832093518352929052908120556106b1565b6080840151600090815260076020908152604080832060e0880151845290915281208054916106ab83613489565b91905055505b50505050565b6080820180516000908152600a6020908152604080832060e08701805185529083528184205494518452600983528184209051845290915290205481158015906107015750600081115b6107615760405162461bcd60e51b815260206004820152602b60248201527f426173654f72646572426f6f6b3a2073656c6c4f72646572426f6f6b2071756560448201526a756520697320656d70747960a81b60648201526084016105ab565b608084018051600090815260036020818152604080842060e08a0180518652908352818520878652835281852080546001600160b81b03191681556001810186905560028101869055938401859055600490930184905584518452600982528084208351855282528084205494518452600a8252808420925184529190529020540361082a576080840180516000908152600a6020908152604080832060e0890180518552908352818420849055935183526009825280832093518352929052908120556106b1565b6080840151600090815260096020908152604080832060e0880151845290915281208054916106ab83613489565b5050565b610882604051806060016040528060001515815260200160008152602001600081525090565b601254604051631fd73a1760e11b8152600481018490526001600160a01b0390911690633fae742e90602401602060405180830381865afa1580156108cb573d6000803e3d6000fd5b505050506040513d601f19601f820116820180604052508101906108ef91906134a2565b60208201528261090d5760008281526005602052604090205461091d565b6000828152600460205260409020545b604082015282610937578060200151816040015110610944565b8060200151816040015110155b151581525b80511561145a5761098760405180604001604052806017815260200175a3e3e3e203e3e3e203e3e3e205768696c65206c6f6f7604c1b815250611ed8565b6109c96040518060400160405280600d81526020016c036b0bc2134b2283934b1b29d1609d1b8152506004600085815260200190815260200160002054611f1e565b610a0b6040518060400160405280600d81526020016c036b4b720b9b5a83934b1b29d1609d1b8152506005600085815260200190815260200160002054611f1e565b610a55604051806101000160405280600015158152602001600081526020016000815260200160008152602001600081526020016000815260200160008152602001600081525090565b60008381526006602090815260408083208582015184529091528120549003610b855783610afe57600e546040516322aa2c2360e21b8152600481018590526001600160a01b0390911690638aa8b08c90602401602060405180830381865afa158015610ac6573d6000803e3d6000fd5b505050506040513d601f19601f82011682018060405250810190610aea91906134a2565b8260400151610af991906134bb565b610b7a565b600e546040516322aa2c2360e21b8152600481018590526001600160a01b0390911690638aa8b08c90602401602060405180830381865afa158015610b47573d6000803e3d6000fd5b505050506040513d601f19601f82011682018060405250810190610b6b91906134a2565b8260400151610b7a91906134d4565b604083015250610949565b601254604051630becdc9360e11b8152600481018590526001600160a01b03909116906317d9b92690602401602060405180830381865afa158015610bce573d6000803e3d6000fd5b505050506040513d601f19601f82011682018060405250810190610bf291906134a2565b6015546040516338c4070d60e11b8152600481018690526001600160a01b03909116906371880e1a90602401602060405180830381865afa158015610c3b573d6000803e3d6000fd5b505050506040513d601f19601f82011682018060405250810190610c5f91906134a2565b610c6c8460200151611f63565b610c798560400151611f63565b610c8391906134e7565b604051631b5ac4b560e01b8152600481019190915273__$2fd9b049b395f2393b7444f3bf5e98655a$__90631b5ac4b590602401602060405180830381865af4158015610cd4573d6000803e3d6000fd5b505050506040513d601f19601f82011682018060405250810190610cf891906134a2565b610d07906402540be40061350e565b610d119190613525565b610d1b9190613525565b816020018181525050610d82604051806040016040528060078152602001660283934b1b29d160cd1b81525068056bc75e2d631000008460400151610d609190613525565b604051806040016040528060048152602001632aa9a20560e11b815250611fd1565b600083815260066020908152604080832085820151845282529182902054838201511083528151808301909252600e82526d1f1f1f1034b9a830b93a34b0b61d60911b908201528151610dd59190612018565b8051610dfd576000838152600660209081526040808320858201518452909152902054610e03565b80602001515b60608201819052601254604051636cad243960e11b815260048101869052602481019290925285151560448301526001600160a01b03169063d95a487290606401602060405180830381865afa158015610e61573d6000803e3d6000fd5b505050506040513d601f19601f82011682018060405250810190610e8591906134a2565b60a0820152600084610eb25760008481526003602090815260408083208682015184529091529020610ecf565b600084815260026020908152604080832086820151845290915290205b905084610ef8576000848152600960209081526040808320868201518452909152902054610f16565b60008481526007602090815260408083208682015184529091529020545b60c083015284610f42576000848152600a60209081526040808320868201518452909152902054610f60565b60008481526008602090815260408083208682015184529091529020545b60e083015260c08201515b8260e00151811161105c5760008181526020838152604080832081516101008101835281546001600160a01b038116825260ff600160a01b82048116151595830195909552600160a81b810485161515938201939093529290916060840191600160b01b909104166003811115610fe457610fe461323d565b6003811115610ff557610ff561323d565b81526020016001820154815260200160028201548152602001600382015481526020016004820154815250509050611037818560a0015186602001518a61205d565b8360200151600003611049575061105c565b508061105481613489565b915050610f6b565b508151156110a35761109c604051806040016040528060178152602001761f1f1f1022bc34ba1d102830b93a34b0b61027b93232b960491b815250611ed8565b5050505050565b600084815260076020908152604080832086820151845290915290205415806110e657506000848152600860209081526040808320868201518452909152902054155b1561120d57841561118157600e546040516322aa2c2360e21b8152600481018690526001600160a01b0390911690638aa8b08c90602401602060405180830381865afa15801561113a573d6000803e3d6000fd5b505050506040513d601f19601f8201168201806040525081019061115e91906134a2565b836040015161116d91906134bb565b60008581526004602052604090205561120d565b600e546040516322aa2c2360e21b8152600481018690526001600160a01b0390911690638aa8b08c90602401602060405180830381865afa1580156111ca573d6000803e3d6000fd5b505050506040513d601f19601f820116820180604052508101906111ee91906134a2565b83604001516111fd91906134d4565b6000858152600560205260409020555b601254604051631fd73a1760e11b8152600481018690526001600160a01b0390911690633fae742e90602401602060405180830381865afa158015611256573d6000803e3d6000fd5b505050506040513d601f19601f8201168201806040525081019061127a91906134a2565b60208401528461130557600e546040516322aa2c2360e21b8152600481018690526001600160a01b0390911690638aa8b08c90602401602060405180830381865afa1580156112cd573d6000803e3d6000fd5b505050506040513d601f19601f820116820180604052508101906112f191906134a2565b836040015161130091906134d4565b611381565b600e546040516322aa2c2360e21b8152600481018690526001600160a01b0390911690638aa8b08c90602401602060405180830381865afa15801561134e573d6000803e3d6000fd5b505050506040513d601f19601f8201168201806040525081019061137291906134a2565b836040015161138191906134bb565b60408401528461139b5782602001518360400151106113a8565b8260200151836040015110155b15158352604080518082018252601e81527f2b2b2b2b2b2b2b2b2b206c696d697450726963654974657261746f723a2000006020820152908401516113ed9190611f1e565b6114306040518060400160405280601c81526020017f2b2b2b2b2b2b2b2b2b20696e746572696d4d61726b50726963653a20000000008152508460200151611f1e565b6114536040518060600160405280602181526020016139d0602191398451612018565b5050610949565b505050565b6114a760408051610100810182526000808252602082018190529181018290529060608201908152602001600081526020016000815260200160008152602001600081525090565b8415611571576000848152600260209081526040808320868452825280832085845282529182902082516101008101845281546001600160a01b038116825260ff600160a01b82048116151594830194909452600160a81b810484161515948201949094529290916060840191600160b01b900416600381111561152d5761152d61323d565b600381111561153e5761153e61323d565b815260200160018201548152602001600282015481526020016003820154815260200160048201548152505090506115f3565b6000848152600360208181526040808420878552825280842086855282529283902083516101008101855281546001600160a01b038116825260ff600160a01b82048116151594830194909452600160a81b810484161515958201959095529390926060850192600160b01b9092049091169081111561152d5761152d61323d565b949350505050565b600e54604051633ec7919360e01b81526004810185905260009182916001600160a01b0390911690633ec791939060240161012060405180830381865afa15801561164a573d6000803e3d6000fd5b505050506040513d601f19601f8201168201806040525081019061166e9190613552565b60e0890151604051632d43eefb60e01b8152600481018790526024810191909152604481018890528815156064820152909150600090819073__$e8652f61bc11c22d415b40de743c60e742$__90632d43eefb90608401602060405180830381865af41580156116e2573d6000803e3d6000fd5b505050506040513d601f19601f8201168201806040525081019061170691906134a2565b600b548b5160c086015160405163df486d1f60e01b81529394506001600160a01b039092169263df486d1f9261174192918a906004016135d0565b600060405180830381600087803b15801561175b57600080fd5b505af115801561176f573d6000803e3d6000fd5b50505050886117e257600c5460405163010b911f60e71b815260048101899052602481018890526001600160a01b03909116906385c88f8090604401600060405180830381600087803b1580156117c557600080fd5b505af11580156117d9573d6000803e3d6000fd5b50505050611848565b600c5460405163b4faf0d360e01b815260048101899052602481018890526001600160a01b039091169063b4faf0d390604401600060405180830381600087803b15801561182f57600080fd5b505af1158015611843573d6000803e3d6000fd5b505050505b600061185483836134e7565b905060008112156118e257600b548b5160c08601516001600160a01b0390921691630b665acb919061188d611888866135f1565b6125e6565b6040518463ffffffff1660e01b81526004016118ab939291906135d0565b600060405180830381600087803b1580156118c557600080fd5b505af11580156118d9573d6000803e3d6000fd5b50505050611959565b600b548b5160c08601516001600160a01b039092169163df486d1f9190611908856125e6565b6040518463ffffffff1660e01b8152600401611926939291906135d0565b600060405180830381600087803b15801561194057600080fd5b505af1158015611954573d6000803e3d6000fd5b505050505b9a9950505050505050505050565b6000604051806101000160405280326001600160a01b03168152602001836020016020810190611997919061360d565b151581526020016119ae606085016040860161360d565b151581526020016119c5608085016060860161362a565b60038111156119d6576119d661323d565b815260808085013560208084019190915260a086013560408085019190915260c087013560608086019190915260e088013593909401929092523260009081526001825282812081835283822054825282528290208451815492860151938601511515600160a81b0260ff60a81b19941515600160a01b026001600160a81b03199094166001600160a01b039290921691909117929092179283168217815592840151939450849391839160ff60b01b191661ffff60a81b1990911617600160b01b836003811115611aaa57611aaa61323d565b02179055506080820151600182015560a0820151600282015560c0820151600382015560e090910151600490910155326000908152602081905260408120805491611af483613489565b9091555060009050611b0c606084016040850161360d565b1515611b1e604085016020860161360d565b15151490508015611b6857608083013560009081526004602052604090205460e08401351115611b63576080830135600090815260046020526040902060e084013590555b611bbe565b608083013560009081526005602052604090205460e08401351080611b9e57506080830135600090815260056020526040902054155b15611bbe576080830135600090815260056020526040902060e084013590555b61145a82825b8015611d32576080820151600090815260086020908152604080832060e086015184529091528120549003611c1a576080820151600090815260076020908152604080832060e086015184529091529020600190555b6080820151600090815260086020908152604080832060e08601518452909152812080548290611c4990613489565b91829055506080840151600090815260026020908152604080832060e0880151845282528083208484528252918290208651815492880151938801511515600160a81b0260ff60a81b19941515600160a01b026001600160a81b03199094166001600160a01b039092169190911792909217928316821781556060870151939450869390929091839160ff60b01b1990911661ffff60a81b1990911617600160b01b836003811115611cfd57611cfd61323d565b02179055506080820151600182015560a0820151600282015560c0820151600382015560e09091015160049091015550611e98565b60808201516000908152600a6020908152604080832060e086015184529091528120549003611d82576080820151600090815260096020908152604080832060e086015184529091529020600190555b60808201516000908152600a6020908152604080832060e08601518452909152812080548290611db190613489565b91829055506080840151600090815260036020818152604080842060e0890151855282528084208585528252928390208751815492890151948901511515600160a81b0260ff60a81b19951515600160a01b026001600160a81b03199094166001600160a01b039092169190911792909217938416821781556060880151949550879490939092849260ff60b01b191661ffff60a81b199092169190911790600160b01b908490811115611e6757611e6761323d565b02179055506080820151600182015560a0820151600282015560c0820151600382015560e090910151600490910155505b60a08201516080830151600090815260066020908152604080832060e0870151845290915281208054909190611ecf9084906134d4565b90915550505050565b611f1b81604051602401611eec919061368b565b60408051601f198184030181529190526020810180516001600160e01b031663104c13eb60e21b179052612638565b50565b6108588282604051602401611f3492919061369e565b60408051601f198184030181529190526020810180516001600160e01b0316632d839cb360e21b179052612638565b60006001600160ff1b03821115611fcd5760405162461bcd60e51b815260206004820152602860248201527f53616665436173743a2076616c756520646f65736e27742066697420696e2061604482015267371034b73a191a9b60c11b60648201526084016105ab565b5090565b61145a838383604051602401611fe9939291906136c0565b60408051601f198184030181529190526020810180516001600160e01b0316635970e08960e01b179052612638565b610858828260405160240161202e9291906136f5565b60408051601f198184030181529190526020810180516001600160e01b031663c3b5563560e01b179052612638565b6040805180820190915260008082526020820152612079612f46565b6080860180516060830152600e549051604051633ec7919360e01b81526001600160a01b0390921691633ec79193916120b89160040190815260200190565b61012060405180830381865afa1580156120d6573d6000803e3d6000fd5b505050506040513d601f19601f820116820180604052508101906120fa9190613552565b60c00151608082015260a08601518410808352612125576121206305f5e100600161350e565b612144565b6305f5e1008660a001518561213a9190613525565b612144919061350e565b60208301528151612159578560a0015161215b565b835b60a08201528151612170578560c00151612193565b6305f5e10082602001518760c00151612189919061350e565b6121939190613525565b60c082015261010081018590528551602087015160808801516040516304adb0ed60e21b81526001600160a01b0390931660048401529015156024830152604482015273__$18943158f75973db0541c3d7c8650b2485$__906312b6c3b490606401602060405180830381865af4158015612212573d6000803e3d6000fd5b505050506040513d601f19601f8201168201806040525081019061223691906134a2565b60408281018290526010549051631928b3cb60e01b815260048101929092526001600160a01b031690631928b3cb9060240161014060405180830381865afa158015612286573d6000803e3d6000fd5b505050506040513d601f19601f820116820180604052508101906122aa9190613724565b80825260a001511580156122bf575085604001515b156122d557600060208201526122d58682612659565b805160a00151158015906122ea575085604001515b1561230057600160208201526123008682612659565b805160a001511580159061231657508560400151155b801561232e5750806000015160a001518160a0015114155b1561234457600260208201526123448682612be6565b805160a001511580159061235a57508560400151155b80156123715750806000015160a001518160a00151145b1561238757600360208201526123878682612be6565b6013546040805161012081019091523281526001600160a01b0390911690636dfd5b3b9060208101600181526020018960200151151581526020018960400151151581526020018460e001518152602001896080015181526020018960a0015181526020018960c0015181526020018960e001518152506040518263ffffffff1660e01b815260040161241a91906137b9565b600060405180830381600087803b15801561243457600080fd5b505af1158015612448573d6000803e3d6000fd5b505050508560200151156124ef576014546040805160a0808201835289830151151582526080808b01516020840152908501518284015260c085015160608301528101889052905163d3cac64d60e01b81526001600160a01b039092169163d3cac64d916124b891600401613843565b600060405180830381600087803b1580156124d257600080fd5b505af11580156124e6573d6000803e3d6000fd5b50505050612584565b6014546040805160a0808201835289830151151582526080808b01516020840152908501518284015260c085015160608301528101889052905163f4e79e2d60e01b81526001600160a01b039092169163f4e79e2d9161255191600401613843565b600060405180830381600087803b15801561256b57600080fd5b505af115801561257f573d6000803e3d6000fd5b505050505b60a081015161259390856134bb565b8251909450156125d4578060a001518660a0018181516125b391906134bb565b90525060c08082015190870180516125cc9083906134bb565b9052506125de565b6125de8684610500565b505050505050565b600080821215611fcd5760405162461bcd60e51b815260206004820181905260248201527f53616665436173743a2076616c7565206d75737420626520706f73697469766560448201526064016105ab565b60006a636f6e736f6c652e6c6f679050600080835160208501845afa505050565b60115460a082015161010083015160808401516060860151604051633829543560e01b81526001600160a01b03909516946338295435946126a29432949193909260040161387f565b600060405180830381600087803b1580156126bc57600080fd5b505af11580156126d0573d6000803e3d6000fd5b5050600b54608084015160c0850151604051630b665acb60e01b81526001600160a01b039093169450630b665acb935061271092329291906004016135d0565b600060405180830381600087803b15801561272a57600080fd5b505af115801561273e573d6000803e3d6000fd5b5050505081602001516127be57600c54606082015160a08301516040516346c3ef9d60e01b8152600481019290925260248201526001600160a01b03909116906346c3ef9d90604401600060405180830381600087803b1580156127a157600080fd5b505af11580156127b5573d6000803e3d6000fd5b5050505061282d565b600c54606082015160a0830151604051631cb6c4f560e11b8152600481019290925260248201526001600160a01b039091169063396d89ea90604401600060405180830381600087803b15801561281457600080fd5b505af1158015612828573d6000803e3d6000fd5b505050505b6000816020015160038111156128455761284561323d565b03612a0357600f5460408051608080820183523282528501516020820190815260a0850151828401908152610100860151606084019081529351633f74b61b60e11b815292516001600160a01b0390811660048501529151602484015251604483015291516064820152911690637ee96c36906084016020604051808303816000875af11580156128da573d6000803e3d6000fd5b505050506040513d601f19601f820116820180604052508101906128fe91906134a2565b60e082015260105460408051610180810190915260208301516001600160a01b039092169163d9b34d0e91908190600381111561293d5761293d61323d565b815260200184604001518152602001600115158152602001326001600160a01b031681526020018560200151151581526020018460e0015181526020018560800151815260200184610100015181526020018460a0015181526020018460c001518152602001856040015115158152602001856040015115158152506040518263ffffffff1660e01b81526004016129d591906138bd565b600060405180830381600087803b1580156129ef57600080fd5b505af11580156125de573d6000803e3d6000fd5b600181602001516003811115612a1b57612a1b61323d565b03612ba55780516060015160e082015260105460408051610180810190915260208301516001600160a01b039092169163d9b34d0e919081906003811115612a6557612a6561323d565b815260200184604001518152602001600015158152602001326001600160a01b031681526020018560200151151581526020018460e0015181526020018560800151815260200184610100015181526020018460a0015181526020018460c001518152602001856040015115158152602001856040015115158152506040518263ffffffff1660e01b8152600401612afd91906138bd565b600060405180830381600087803b158015612b1757600080fd5b505af1158015612b2b573d6000803e3d6000fd5b5050600f546040805160e08082018352328252868301516020830152860151818301528682015115156060820152610120860151608082015260a0808701519082015261010086015160c082015290516315af5e8f60e01b81526001600160a01b0390921693506315af5e8f92506129d59160040161397b565b60405162461bcd60e51b8152602060048201526016602482015275496e76616c696420657865637574696f6e207479706560501b60448201526064016105ab565b60115460a082015161010083015160808401516060860151604051633829543560e01b81526001600160a01b0390951694633829543594612c2f9432949193909260040161387f565b600060405180830381600087803b158015612c4957600080fd5b505af1158015612c5d573d6000803e3d6000fd5b50505050612c888160000151836020015183610100015185608001518560a001518660c001516115fb565b61012082015280516060015160e0820152600281602001516003811115612cb157612cb161323d565b03612e335760105460408051610180810190915260208301516001600160a01b039092169163d9b34d0e919081906003811115612cf057612cf061323d565b815260200184604001518152602001600015158152602001326001600160a01b031681526020018560200151151581526020018460e0015181526020018560800151815260200184610100015181526020018460a0015181526020018460c001518152602001856040015115158152602001856040015115158152506040518263ffffffff1660e01b8152600401612d8891906138bd565b600060405180830381600087803b158015612da257600080fd5b505af1158015612db6573d6000803e3d6000fd5b5050600f546040805160e08101825232815285820151602082015285516060908101518284015287830151151590820152610120860151608082015260a0808701519082015261010086015160c082015290516315af5e8f60e01b81526001600160a01b0390921693506315af5e8f92506129d59160040161397b565b600381602001516003811115612e4b57612e4b61323d565b03612ba5576010546040808301519051634ca0d05960e11b81526001600160a01b0390921691639941a0b291612e879160040190815260200190565b600060405180830381600087803b158015612ea157600080fd5b505af1158015612eb5573d6000803e3d6000fd5b5050600f546040805160a08082018352328252865160609081015160208401908152610120890151848601908152928901519184019182526101008901516080850190815294516315d2cae360e11b815293516001600160a01b03908116600486015290516024850152915160448401525160648301529151608482015291169250632ba595c6915060a4016129d5565b604051806101400160405280612fb360405180610140016040528060006001600160a01b0316815260200160001515815260200160008152602001600081526020016000815260200160008152602001600081526020016000815260200160008152602001600081525090565b81526020016000815260200160008019168152602001600081526020016000815260200160008152602001600081526020016000815260200160008152602001600081525090565b60006020828403121561300d57600080fd5b5035919050565b604051610100810167ffffffffffffffff8111828210171561304657634e487b7160e01b600052604160045260246000fd5b60405290565b604051610140810167ffffffffffffffff8111828210171561304657634e487b7160e01b600052604160045260246000fd5b604051610120810167ffffffffffffffff8111828210171561304657634e487b7160e01b600052604160045260246000fd5b6001600160a01b0381168114611f1b57600080fd5b80356130d0816130b0565b919050565b8015158114611f1b57600080fd5b80356130d0816130d5565b8035600481106130d057600080fd5b60008082840361012081121561311257600080fd5b6101008082121561312257600080fd5b61312a613014565b91508435613137816130b0565b8252613145602086016130e3565b6020830152613156604086016130e3565b6040830152613167606086016130ee565b60608301526080850135608083015260a085013560a083015260c085013560c083015260e085013560e08301528193506131a28186016130e3565b925050509250929050565b600080604083850312156131c057600080fd5b82356131cb816130d5565b946020939093013593505050565b600080604083850312156131ec57600080fd5b50508035926020909101359150565b60006020828403121561320d57600080fd5b8135613218816130b0565b9392505050565b6000806040838503121561323257600080fd5b82356131cb816130b0565b634e487b7160e01b600052602160045260246000fd5b60048110611f1b57634e487b7160e01b600052602160045260246000fd5b61327a81613253565b9052565b6001600160a01b03891681528715156020820152861515604082015261010081016132a887613253565b6060820196909652608081019490945260a084019290925260c083015260e0909101529392505050565b600080600080608085870312156132e857600080fd5b84356132f3816130d5565b966020860135965060408601359560600135945092505050565b81516001600160a01b03168152602080830151151590820152604080830151151590820152606082015161010082019061334681613253565b806060840152506080830151608083015260a083015160a083015260c083015160c083015260e083015160e083015292915050565b6000806000806000808688036101e081121561339657600080fd5b610140808212156133a657600080fd5b6133ae61304c565b91506133b9896130c5565b82526133c760208a016130e3565b602083015260408901356040830152606089013560608301526080890135608083015260a089013560a083015260c089013560c083015260e089013560e0830152610100808a01358184015250610120808a0135818401525081975061342e818a016130e3565b979a97995050505061016086013595610180810135956101a082013595506101c0909101359350915050565b6000610100828403121561346d57600080fd5b50919050565b634e487b7160e01b600052601160045260246000fd5b60006001820161349b5761349b613473565b5060010190565b6000602082840312156134b457600080fd5b5051919050565b818103818111156134ce576134ce613473565b92915050565b808201808211156134ce576134ce613473565b818103600083128015838313168383128216171561350757613507613473565b5092915050565b80820281158282048414176134ce576134ce613473565b60008261354257634e487b7160e01b600052601260045260246000fd5b500490565b80516130d0816130b0565b6000610120828403121561356557600080fd5b61356d61307e565b825181526020830151602082015260408301516040820152606083015160608201526080830151608082015260a083015160a082015260c083015160c082015260e083015160e08201526101006135c5818501613547565b908201529392505050565b6001600160a01b039390931683526020830191909152604082015260600190565b6000600160ff1b820161360657613606613473565b5060000390565b60006020828403121561361f57600080fd5b8135613218816130d5565b60006020828403121561363c57600080fd5b613218826130ee565b6000815180845260005b8181101561366b5760208185018101518683018201520161364f565b506000602082860101526020601f19601f83011685010191505092915050565b6020815260006132186020830184613645565b6040815260006136b16040830185613645565b90508260208301529392505050565b6060815260006136d36060830186613645565b84602084015282810360408401526136eb8185613645565b9695505050505050565b6040815260006137086040830185613645565b905082151560208301529392505050565b80516130d0816130d5565b6000610140828403121561373757600080fd5b61373f61304c565b61374883613547565b815261375660208401613719565b602082015260408301516040820152606083015160608201526080830151608082015260a083015160a082015260c083015160c082015260e083015160e08201526101008084015181830152506101208084015181830152508091505092915050565b81516001600160a01b0316815260208201516101208201906137da81613253565b8060208401525060408301516137f4604084018215159052565b506060830151613808606084018215159052565b506080830151608083015260a083015160a083015260c083015160c083015260e083015160e083015261010080840151818401525092915050565b600060a0820190508251151582526020830151602083015260408301516040830152606083015160608301526080830151608083015292915050565b6001600160a01b038616815260208101859052604081018490526060810183905260a081016138ad83613253565b8260808301529695505050505050565b6000610180820190506138d1828451613271565b6020830151602083015260408301516138ee604084018215159052565b50606083015161390960608401826001600160a01b03169052565b50608083015161391d608084018215159052565b5060a083015160a083015260c083015160c083015260e083015160e0830152610100808401518184015250610120808401518184015250610140808401516139688285018215159052565b5050610160928301511515919092015290565b81516001600160a01b0316815260208083015190820152604080830151908201526060808301511515908201526080808301519082015260a0828101519082015260c0918201519181019190915260e0019056fe2b2b2b2b2b2b2b2b2b2075706461746564206c6f6f70436f6e646974696f6e3a20a2646970667358221220778dfd6621710429ecb15f3dbf173748edf8bf280f5225d976fd8520ffbf52a264736f6c63430008120033",
  "linkReferences": {
    "contracts/order/OrderUtils.sol": {
      "OrderUtils": [
        {
          "length": 20,
          "start": 9076
        }
      ]
    },
    "contracts/position/PnlUtils.sol": {
      "PnlUtils": [
        {
          "length": 20,
          "start": 6212
        }
      ]
    },
    "contracts/utils/MathUtils.sol": {
      "MathUtils": [
        {
          "length": 20,
          "start": 3638
        }
      ]
    }
  },
  "deployedLinkReferences": {
    "contracts/order/OrderUtils.sol": {
      "OrderUtils": [
        {
          "length": 20,
          "start": 8664
        }
      ]
    },
    "contracts/position/PnlUtils.sol": {
      "PnlUtils": [
        {
          "length": 20,
          "start": 5800
        }
      ]
    },
    "contracts/utils/MathUtils.sol": {
      "MathUtils": [
        {
          "length": 20,
          "start": 3226
        }
      ]
    }
  }
}