{
  "_format": "hh-sol-artifact-1",
  "contractName": "OrderHistory",
  "sourceName": "contracts/order/OrderHistory.sol",
  "abi": [
    {
      "inputs": [
        {
          "internalType": "address",
          "name": "_traderVault",
          "type": "address"
        }
      ],
      "stateMutability": "nonpayable",
      "type": "constructor"
    },
    {
      "inputs": [
        {
          "components": [
            {
              "internalType": "address",
              "name": "_trader",
              "type": "address"
            },
            {
              "internalType": "enum OrderType",
              "name": "_orderType",
              "type": "uint8"
            },
            {
              "internalType": "bool",
              "name": "_isLong",
              "type": "bool"
            },
            {
              "internalType": "bool",
              "name": "_isIncrease",
              "type": "bool"
            },
            {
              "internalType": "uint256",
              "name": "_positionRecordId",
              "type": "uint256"
            },
            {
              "internalType": "uint256",
              "name": "_marketId",
              "type": "uint256"
            },
            {
              "internalType": "uint256",
              "name": "_sizeAbs",
              "type": "uint256"
            },
            {
              "internalType": "uint256",
              "name": "_marginAbs",
              "type": "uint256"
            },
            {
              "internalType": "uint256",
              "name": "_executionPrice",
              "type": "uint256"
            }
          ],
          "internalType": "struct CreateOrderRecordParams",
          "name": "p",
          "type": "tuple"
        }
      ],
      "name": "createOrderRecord",
      "outputs": [],
      "stateMutability": "nonpayable",
      "type": "function"
    },
    {
      "inputs": [
        {
          "internalType": "address",
          "name": "",
          "type": "address"
        },
        {
          "internalType": "uint256",
          "name": "",
          "type": "uint256"
        }
      ],
      "name": "orderRecords",
      "outputs": [
        {
          "internalType": "enum OrderType",
          "name": "orderType",
          "type": "uint8"
        },
        {
          "internalType": "bool",
          "name": "isLong",
          "type": "bool"
        },
        {
          "internalType": "bool",
          "name": "isIncrease",
          "type": "bool"
        },
        {
          "internalType": "uint256",
          "name": "positionRecordId",
          "type": "uint256"
        },
        {
          "internalType": "uint256",
          "name": "marketId",
          "type": "uint256"
        },
        {
          "internalType": "uint256",
          "name": "sizeAbs",
          "type": "uint256"
        },
        {
          "internalType": "uint256",
          "name": "marginAbs",
          "type": "uint256"
        },
        {
          "internalType": "uint256",
          "name": "executionPrice",
          "type": "uint256"
        },
        {
          "internalType": "uint256",
          "name": "timestamp",
          "type": "uint256"
        }
      ],
      "stateMutability": "view",
      "type": "function"
    },
    {
      "inputs": [],
      "name": "traderVault",
      "outputs": [
        {
          "internalType": "contract TraderVault",
          "name": "",
          "type": "address"
        }
      ],
      "stateMutability": "view",
      "type": "function"
    }
  ],
  "bytecode": "0x608060405234801561001057600080fd5b5060405161060338038061060383398101604081905261002f91610054565b600080546001600160a01b0319166001600160a01b0392909216919091179055610084565b60006020828403121561006657600080fd5b81516001600160a01b038116811461007d57600080fd5b9392505050565b610570806100936000396000f3fe608060405234801561001057600080fd5b50600436106100415760003560e01c80630b42407b1461004657806351ed0ee3146100cb5780636dfd5b3b146100f6575b600080fd5b6100ad61005436600461036d565b60016020818152600093845260408085209091529183529120805491810154600282015460038301546004840154600585015460069095015460ff80881697610100810482169762010000909104909116959493929189565b6040516100c2999897969594939291906103ad565b60405180910390f35b6000546100de906001600160a01b031681565b6040516001600160a01b0390911681526020016100c2565b610109610104366004610463565b61010b565b005b60008054825160405163e906714360e01b81526001600160a01b03918216600482015291169063e906714390602401602060405180830381865afa158015610157573d6000803e3d6000fd5b505050506040513d601f19601f8201168201806040525081019061017b91906104fa565b90506040518061012001604052808360200151600381111561019f5761019f610397565b8152602001836040015115158152602001836060015115158152602001836080015181526020018360a0015181526020018360c0015181526020018360e0015181526020018361010001518152602001428152506001600084600001516001600160a01b03166001600160a01b03168152602001908152602001600020600083815260200190815260200160002060008201518160000160006101000a81548160ff0219169083600381111561025757610257610397565b021790555060208201518154604084015162ffff0019909116610100921515830262ff0000191617620100009115159190910217825560608301516001808401919091556080840151600284015560a0840151600384015560c0840151600484015560e0840151600584015592015160069091015560005483516001600160a01b039091169163d21f0edb91906102ef908590610513565b6040516001600160e01b031960e085901b1681526001600160a01b0390921660048301526024820152604401600060405180830381600087803b15801561033557600080fd5b505af1158015610349573d6000803e3d6000fd5b505050505050565b80356001600160a01b038116811461036857600080fd5b919050565b6000806040838503121561038057600080fd5b61038983610351565b946020939093013593505050565b634e487b7160e01b600052602160045260246000fd5b610120810160048b106103d057634e487b7160e01b600052602160045260246000fd5b998152971515602089015295151560408801526060870194909452608086019290925260a085015260c084015260e08301526101009091015290565b604051610120810167ffffffffffffffff8111828210171561043e57634e487b7160e01b600052604160045260246000fd5b60405290565b80356004811061036857600080fd5b8035801515811461036857600080fd5b6000610120828403121561047657600080fd5b61047e61040c565b61048783610351565b815261049560208401610444565b60208201526104a660408401610453565b60408201526104b760608401610453565b60608201526080830135608082015260a083013560a082015260c083013560c082015260e083013560e08201526101008084013581830152508091505092915050565b60006020828403121561050c57600080fd5b5051919050565b8082018082111561053457634e487b7160e01b600052601160045260246000fd5b9291505056fea26469706673582212207db8650399d81274db5b6a887f41686c38cb5614883ab8e185a57453cd200b6164736f6c63430008120033",
  "linkReferences": {},
  "deployedLinkReferences": {}
}