{
  "_format": "hh-sol-artifact-1",
  "contractName": "TraderVault",
  "sourceName": "contracts/account/TraderVault.sol",
  "abi": [
    {
      "inputs": [
        {
          "internalType": "address",
          "name": "_trader",
          "type": "address"
        },
        {
          "internalType": "uint256",
          "name": "_assetId",
          "type": "uint256"
        },
        {
          "internalType": "uint256",
          "name": "_amount",
          "type": "uint256"
        }
      ],
      "name": "decreaseTraderBalance",
      "outputs": [],
      "stateMutability": "nonpayable",
      "type": "function"
    },
    {
      "inputs": [
        {
          "internalType": "address",
          "name": "_trader",
          "type": "address"
        },
        {
          "internalType": "uint256",
          "name": "_assetId",
          "type": "uint256"
        }
      ],
      "name": "getTraderBalance",
      "outputs": [
        {
          "internalType": "uint256",
          "name": "",
          "type": "uint256"
        }
      ],
      "stateMutability": "view",
      "type": "function"
    },
    {
      "inputs": [
        {
          "internalType": "address",
          "name": "_trader",
          "type": "address"
        }
      ],
      "name": "getTraderOrderRecordCount",
      "outputs": [
        {
          "internalType": "uint256",
          "name": "",
          "type": "uint256"
        }
      ],
      "stateMutability": "view",
      "type": "function"
    },
    {
      "inputs": [
        {
          "internalType": "address",
          "name": "_trader",
          "type": "address"
        }
      ],
      "name": "getTraderPositionRecordCount",
      "outputs": [
        {
          "internalType": "uint256",
          "name": "",
          "type": "uint256"
        }
      ],
      "stateMutability": "view",
      "type": "function"
    },
    {
      "inputs": [
        {
          "internalType": "address",
          "name": "_trader",
          "type": "address"
        },
        {
          "internalType": "uint256",
          "name": "_assetId",
          "type": "uint256"
        },
        {
          "internalType": "uint256",
          "name": "_amount",
          "type": "uint256"
        }
      ],
      "name": "increaseTraderBalance",
      "outputs": [],
      "stateMutability": "nonpayable",
      "type": "function"
    },
    {
      "inputs": [
        {
          "internalType": "address",
          "name": "_trader",
          "type": "address"
        },
        {
          "internalType": "uint256",
          "name": "_count",
          "type": "uint256"
        }
      ],
      "name": "setTraderOrderRecordCount",
      "outputs": [],
      "stateMutability": "nonpayable",
      "type": "function"
    },
    {
      "inputs": [
        {
          "internalType": "address",
          "name": "_trader",
          "type": "address"
        },
        {
          "internalType": "uint256",
          "name": "_count",
          "type": "uint256"
        }
      ],
      "name": "setTraderPositionRecordCount",
      "outputs": [],
      "stateMutability": "nonpayable",
      "type": "function"
    },
    {
      "inputs": [
        {
          "internalType": "address",
          "name": "",
          "type": "address"
        },
        {
          "internalType": "uint256",
          "name": "",
          "type": "uint256"
        }
      ],
      "name": "traderBalances",
      "outputs": [
        {
          "internalType": "uint256",
          "name": "",
          "type": "uint256"
        }
      ],
      "stateMutability": "view",
      "type": "function"
    },
    {
      "inputs": [
        {
          "internalType": "address",
          "name": "",
          "type": "address"
        }
      ],
      "name": "traderOrderRecordCounts",
      "outputs": [
        {
          "internalType": "uint256",
          "name": "",
          "type": "uint256"
        }
      ],
      "stateMutability": "view",
      "type": "function"
    },
    {
      "inputs": [
        {
          "internalType": "address",
          "name": "",
          "type": "address"
        }
      ],
      "name": "traderPositionRecordCounts",
      "outputs": [
        {
          "internalType": "uint256",
          "name": "",
          "type": "uint256"
        }
      ],
      "stateMutability": "view",
      "type": "function"
    }
  ],
  "bytecode": "0x608060405234801561001057600080fd5b506103a0806100206000396000f3fe608060405234801561001057600080fd5b506004361061009e5760003560e01c8063d21f0edb11610066578063d21f0edb1461015b578063dd9d659314610185578063dedc549214610198578063df486d1f146101c2578063e9067143146101d557600080fd5b80630b665acb146100a35780632f9892c9146100b85780633e4d9041146100ea5780634b712d781461010a578063a10df8af14610133575b600080fd5b6100b66100b13660046102af565b6101fe565b005b6100d86100c63660046102e2565b60016020526000908152604090205481565b60405190815260200160405180910390f35b6100d86100f83660046102e2565b60026020526000908152604090205481565b6100d86101183660046102e2565b6001600160a01b031660009081526002602052604090205490565b6100d8610141366004610304565b600060208181529281526040808220909352908152205481565b6100b6610169366004610304565b6001600160a01b03909116600090815260016020526040902055565b6100d8610193366004610304565b610239565b6100b66101a6366004610304565b6001600160a01b03909116600090815260026020526040902055565b6100b66101d03660046102af565b610262565b6100d86101e33660046102e2565b6001600160a01b031660009081526001602052604090205490565b6001600160a01b0383166000908152602081815260408083208584529091528120805483929061022f908490610344565b9091555050505050565b6001600160a01b0382166000908152602081815260408083208484529091529020545b92915050565b6001600160a01b0383166000908152602081815260408083208584529091528120805483929061022f908490610357565b80356001600160a01b03811681146102aa57600080fd5b919050565b6000806000606084860312156102c457600080fd5b6102cd84610293565b95602085013595506040909401359392505050565b6000602082840312156102f457600080fd5b6102fd82610293565b9392505050565b6000806040838503121561031757600080fd5b61032083610293565b946020939093013593505050565b634e487b7160e01b600052601160045260246000fd5b8181038181111561025c5761025c61032e565b8082018082111561025c5761025c61032e56fea2646970667358221220ec5ad58c0a22d850253a2a3d4aefdb818354113629a1cbdeb3458bb435941dfb64736f6c63430008120033",
  "linkReferences": {},
  "deployedLinkReferences": {}
}