{
  "_format": "hh-sol-artifact-1",
  "contractName": "TraderVault",
  "sourceName": "contracts/account/TraderVault.sol",
  "abi": [
    {
      "inputs": [],
      "name": "changeMarginMode",
      "outputs": [],
      "stateMutability": "nonpayable",
      "type": "function"
    },
    {
      "inputs": [
        {
          "internalType": "address",
          "name": "_trader",
          "type": "address"
        },
        {
          "internalType": "uint256",
          "name": "_assetId",
          "type": "uint256"
        },
        {
          "internalType": "uint256",
          "name": "_amount",
          "type": "uint256"
        }
      ],
      "name": "decreaseTraderBalance",
      "outputs": [],
      "stateMutability": "nonpayable",
      "type": "function"
    },
    {
      "inputs": [
        {
          "internalType": "address",
          "name": "_trader",
          "type": "address"
        },
        {
          "internalType": "uint256",
          "name": "_assetId",
          "type": "uint256"
        }
      ],
      "name": "getTraderBalance",
      "outputs": [
        {
          "internalType": "uint256",
          "name": "",
          "type": "uint256"
        }
      ],
      "stateMutability": "view",
      "type": "function"
    },
    {
      "inputs": [],
      "name": "getTraderOpenPositionKeys",
      "outputs": [],
      "stateMutability": "nonpayable",
      "type": "function"
    },
    {
      "inputs": [
        {
          "internalType": "address",
          "name": "_trader",
          "type": "address"
        }
      ],
      "name": "getTraderOrderRecordCount",
      "outputs": [
        {
          "internalType": "uint256",
          "name": "",
          "type": "uint256"
        }
      ],
      "stateMutability": "view",
      "type": "function"
    },
    {
      "inputs": [
        {
          "internalType": "address",
          "name": "_trader",
          "type": "address"
        }
      ],
      "name": "getTraderPositionRecordCount",
      "outputs": [
        {
          "internalType": "uint256",
          "name": "",
          "type": "uint256"
        }
      ],
      "stateMutability": "view",
      "type": "function"
    },
    {
      "inputs": [],
      "name": "getTraderTotalMaintenanceMargin",
      "outputs": [],
      "stateMutability": "nonpayable",
      "type": "function"
    },
    {
      "inputs": [],
      "name": "getTraderTotalUnrealizedPnl",
      "outputs": [],
      "stateMutability": "nonpayable",
      "type": "function"
    },
    {
      "inputs": [
        {
          "internalType": "address",
          "name": "_trader",
          "type": "address"
        },
        {
          "internalType": "uint256",
          "name": "_assetId",
          "type": "uint256"
        },
        {
          "internalType": "uint256",
          "name": "_amount",
          "type": "uint256"
        }
      ],
      "name": "increaseTraderBalance",
      "outputs": [],
      "stateMutability": "nonpayable",
      "type": "function"
    },
    {
      "inputs": [
        {
          "internalType": "address",
          "name": "",
          "type": "address"
        }
      ],
      "name": "isIsolated",
      "outputs": [
        {
          "internalType": "bool",
          "name": "",
          "type": "bool"
        }
      ],
      "stateMutability": "view",
      "type": "function"
    },
    {
      "inputs": [
        {
          "internalType": "address",
          "name": "_trader",
          "type": "address"
        },
        {
          "internalType": "uint256",
          "name": "_count",
          "type": "uint256"
        }
      ],
      "name": "setTraderOrderRecordCount",
      "outputs": [],
      "stateMutability": "nonpayable",
      "type": "function"
    },
    {
      "inputs": [
        {
          "internalType": "address",
          "name": "_trader",
          "type": "address"
        },
        {
          "internalType": "uint256",
          "name": "_count",
          "type": "uint256"
        }
      ],
      "name": "setTraderPositionRecordCount",
      "outputs": [],
      "stateMutability": "nonpayable",
      "type": "function"
    },
    {
      "inputs": [
        {
          "internalType": "address",
          "name": "",
          "type": "address"
        },
        {
          "internalType": "uint256",
          "name": "",
          "type": "uint256"
        }
      ],
      "name": "traderBalances",
      "outputs": [
        {
          "internalType": "uint256",
          "name": "",
          "type": "uint256"
        }
      ],
      "stateMutability": "view",
      "type": "function"
    },
    {
      "inputs": [
        {
          "internalType": "address",
          "name": "",
          "type": "address"
        }
      ],
      "name": "traderOrderRecordCounts",
      "outputs": [
        {
          "internalType": "uint256",
          "name": "",
          "type": "uint256"
        }
      ],
      "stateMutability": "view",
      "type": "function"
    },
    {
      "inputs": [
        {
          "internalType": "address",
          "name": "",
          "type": "address"
        }
      ],
      "name": "traderPositionRecordCounts",
      "outputs": [
        {
          "internalType": "uint256",
          "name": "",
          "type": "uint256"
        }
      ],
      "stateMutability": "view",
      "type": "function"
    }
  ],
  "bytecode": "0x608060405234801561001057600080fd5b5061042f806100206000396000f3fe608060405234801561001057600080fd5b50600436106100d55760003560e01c80639253618911610087578063925361891461016b578063a10df8af1461019e578063d21f0edb146101c6578063d7c4cfe4146101f0578063dd9d659314610214578063dedc549214610227578063df486d1f14610251578063e90671431461026457600080fd5b80630b665acb146100da5780631469e0f7146100ed5780632f9892c9146100ef5780633b4219a7146100ed5780633e4d9041146101225780634b712d78146101425780636b02baf1146100ed575b600080fd5b6100ed6100e836600461033e565b61028d565b005b61010f6100fd366004610371565b60016020526000908152604090205481565b6040519081526020015b60405180910390f35b61010f610130366004610371565b60026020526000908152604090205481565b61010f610150366004610371565b6001600160a01b031660009081526002602052604090205490565b61018e610179366004610371565b60036020526000908152604090205460ff1681565b6040519015158152602001610119565b61010f6101ac366004610393565b600060208181529281526040808220909352908152205481565b6100ed6101d4366004610393565b6001600160a01b03909116600090815260016020526040902055565b6100ed336000908152600360205260409020805460ff19811660ff90911615179055565b61010f610222366004610393565b6102c8565b6100ed610235366004610393565b6001600160a01b03909116600090815260026020526040902055565b6100ed61025f36600461033e565b6102f1565b61010f610272366004610371565b6001600160a01b031660009081526001602052604090205490565b6001600160a01b038316600090815260208181526040808320858452909152812080548392906102be9084906103d3565b9091555050505050565b6001600160a01b0382166000908152602081815260408083208484529091529020545b92915050565b6001600160a01b038316600090815260208181526040808320858452909152812080548392906102be9084906103e6565b80356001600160a01b038116811461033957600080fd5b919050565b60008060006060848603121561035357600080fd5b61035c84610322565b95602085013595506040909401359392505050565b60006020828403121561038357600080fd5b61038c82610322565b9392505050565b600080604083850312156103a657600080fd5b6103af83610322565b946020939093013593505050565b634e487b7160e01b600052601160045260246000fd5b818103818111156102eb576102eb6103bd565b808201808211156102eb576102eb6103bd56fea2646970667358221220f2cfb100444a950ab3efb577efb123a1b16a529a6a81593a015002c368ac831064736f6c63430008120033",
  "linkReferences": {},
  "deployedLinkReferences": {}
}