{
  "_format": "hh-sol-artifact-1",
  "contractName": "PositionFee",
  "sourceName": "contracts/fee/PositionFee.sol",
  "abi": [
    {
      "inputs": [
        {
          "internalType": "address",
          "name": "_traderVault",
          "type": "address"
        }
      ],
      "stateMutability": "nonpayable",
      "type": "constructor"
    },
    {
      "inputs": [],
      "name": "LIMIT_POSITION_FEE_MULTIPLIER",
      "outputs": [
        {
          "internalType": "uint256",
          "name": "",
          "type": "uint256"
        }
      ],
      "stateMutability": "view",
      "type": "function"
    },
    {
      "inputs": [],
      "name": "MARKET_POSITION_FEE_MULTIPLIER",
      "outputs": [
        {
          "internalType": "uint256",
          "name": "",
          "type": "uint256"
        }
      ],
      "stateMutability": "view",
      "type": "function"
    },
    {
      "inputs": [],
      "name": "POSITION_FEE_PRECISION",
      "outputs": [
        {
          "internalType": "uint256",
          "name": "",
          "type": "uint256"
        }
      ],
      "stateMutability": "view",
      "type": "function"
    },
    {
      "inputs": [],
      "name": "collectedPositionFees",
      "outputs": [
        {
          "internalType": "uint256",
          "name": "",
          "type": "uint256"
        }
      ],
      "stateMutability": "view",
      "type": "function"
    },
    {
      "inputs": [
        {
          "internalType": "uint256",
          "name": "_sizeAbsInUsd",
          "type": "uint256"
        },
        {
          "internalType": "enum OrderType",
          "name": "_orderType",
          "type": "uint8"
        }
      ],
      "name": "getPositionFee",
      "outputs": [
        {
          "internalType": "uint256",
          "name": "",
          "type": "uint256"
        }
      ],
      "stateMutability": "pure",
      "type": "function"
    },
    {
      "inputs": [
        {
          "internalType": "address",
          "name": "_trader",
          "type": "address"
        },
        {
          "internalType": "uint256",
          "name": "_sizeAbs",
          "type": "uint256"
        },
        {
          "internalType": "uint256",
          "name": "_avgExecPrice",
          "type": "uint256"
        },
        {
          "internalType": "uint256",
          "name": "_feeAssetId",
          "type": "uint256"
        },
        {
          "internalType": "enum OrderType",
          "name": "_orderType",
          "type": "uint8"
        }
      ],
      "name": "payPositionFee",
      "outputs": [],
      "stateMutability": "nonpayable",
      "type": "function"
    },
    {
      "inputs": [],
      "name": "traderVault",
      "outputs": [
        {
          "internalType": "contract TraderVault",
          "name": "",
          "type": "address"
        }
      ],
      "stateMutability": "view",
      "type": "function"
    }
  ],
  "bytecode": "0x6080604052600060015534801561001557600080fd5b506040516104ec3803806104ec83398101604081905261003491610059565b600080546001600160a01b0319166001600160a01b0392909216919091179055610089565b60006020828403121561006b57600080fd5b81516001600160a01b038116811461008257600080fd5b9392505050565b610454806100986000396000f3fe608060405234801561001057600080fd5b506004361061006c5760003560e01c80624fc67714610071578063351436321461008d578063382954351461009557806351ed0ee3146100aa5780635b486ef61461008d5780637c5e3e0a146100d5578063ebee87af146100de575b600080fd5b61007a61271081565b6040519081526020015b60405180910390f35b61007a600581565b6100a86100a3366004610303565b6100f1565b005b6000546100bd906001600160a01b031681565b6040516001600160a01b039091168152602001610084565b61007a60015481565b61007a6100ec366004610361565b61028b565b6000670de0b6b3a764000061010685876103a3565b61011091906103ba565b9050600061011e828461028b565b6000805460405163dd9d659360e01b81526001600160a01b038b81166004830152602482018990529394509192169063dd9d659390604401602060405180830381865afa158015610173573d6000803e3d6000fd5b505050506040513d601f19601f8201168201806040525081019061019791906103dc565b90508181116101fd5760405162461bcd60e51b815260206004820152602860248201527f506f736974696f6e4665653a20696e73756666696369656e74206d617267696e6044820152672062616c616e636560c01b606482015260840160405180910390fd5b600054604051630b665acb60e01b81526001600160a01b038a81166004830152602482018890526044820185905290911690630b665acb90606401600060405180830381600087803b15801561025257600080fd5b505af1158015610266573d6000803e3d6000fd5b50505050816001600082825461027c91906103f5565b90915550505050505050505050565b600080808360038111156102a1576102a1610408565b14806102be575060028360038111156102bc576102bc610408565b145b6102c95760056102cc565b60055b90506127106102db85836103a3565b6102e591906103ba565b9150505b92915050565b8035600481106102fe57600080fd5b919050565b600080600080600060a0868803121561031b57600080fd5b85356001600160a01b038116811461033257600080fd5b9450602086013593506040860135925060608601359150610355608087016102ef565b90509295509295909350565b6000806040838503121561037457600080fd5b82359150610384602084016102ef565b90509250929050565b634e487b7160e01b600052601160045260246000fd5b80820281158282048414176102e9576102e961038d565b6000826103d757634e487b7160e01b600052601260045260246000fd5b500490565b6000602082840312156103ee57600080fd5b5051919050565b808201808211156102e9576102e961038d565b634e487b7160e01b600052602160045260246000fdfea2646970667358221220a843aa73570dfe92c1c79956a17a68eadc4579ea685660294721728f2ab4047964736f6c63430008120033",
  "linkReferences": {},
  "deployedLinkReferences": {}
}